:1010000000000420A1640200E5640200E76402001D
:10101000E9640200EB640200ED64020000000000DD
:10102000000000000000000000000000EF6402006B
:10103000F164020000000000F3640200F5640200A5
:1010400065330200059B0200F7640200F7640200AA
:10105000F7640200F7640200F7640200F76402001C
:10106000F7640200F7640200F7640200F76402000C
:10107000F7640200A12A0200F7640200F76402008C
:10108000F7640200F7640200F7640200F7640200EC
:10109000F7640200F7640200F7640200F7640200DC
:1010A000F7640200F7640200F7640200F7640200CC
:1010B000F7640200F7640200000000000000000076
:1010C000F7640200F7640200F7640200F7640200AC
:1010D0006D1E0200F7640200F7640200D9420200AC
:1010E000F7640200F7640200F764020000000000E9
:1010F00000000000F764020000000000F764020036
:1011000000000000000000000000000000000000DF
:1011100000000000000000000000000000000000CF
:1011200000000000000000000000000000000000BF
:1011300000000000000000000000000000000000AF
:10114000000000000000000000000000000000009F
:10115000000000000000000000000000000000008F
:10116000000000000000000000000000000000007F
:10117000000000000000000000000000000000006F
:10118000000000000000000000000000000000005F
:10119000000000000000000000000000000000004F
:1011A000000000000000000000000000000000003F
:1011B000000000000000000000000000000000002F
:1011C000000000000000000000000000000000001F
:1011D000000000000000000000000000000000000F
:1011E00000000000000000000000000000000000FF
:1011F00000000000000000000000000000000000EF
:1012000010B5054C237833B9044B13B10448AFF340
:1012100000800123237010BD300100200000000079
:101220009C51030008B5034B1BB103490348AFF3BE
:10123000008008BD00000000340100209C51030024
:10124000154B002B08BF134B9D46A3F5803A002198
:101250008B460F461348144A121A2EF03EFE0F4BCF
:10126000002B00D098470E4B002B00D09847002051
:10127000002104000D000D48002802D00C48AFF3F7
:1012800000802EF0CBFD2000290000F015F82EF094
:101290009FFD00BF000008000000042000000000C7
:1012A000000000003001002038D0002000000000C5
:1012B000000000007047000070B505460E4631463C
:1012C000284621F0A5FA04F048FB044628B90B4B48
:1012D0000B4A0C486C212EF05DFD00F019F921F04D
:1012E000C9FA18B1204604F03EFBE8E7204604F0B6
:1012F000FCFC204621F0C4FAF1E700BF1113030003
:101300000C1303001A130300B0F88A3AB0F88C2AC1
:10131000C3F500618A42CCBFA0F88E1AA0F88E2ACD
:10132000B0F88E1A21B100F28A20184421F060BD75
:10133000704710B5044600F099F90023A4F88832EC
:10134000A4F88A3AA4F88C3AA4F88E3A21F048FD21
:10135000204610BD10B5044C01462046FFF7E9FFBA
:10136000024B1C6010BD00BF50010020E00B0020AC
:1013700010B500210446B4F88822A31893F88730EA
:101380000A2B01D00D2B07D1013A92B2A4F8882282
:10139000224482F88810EEE722B104F18801204649
:1013A00002F0FCF90020A4F8880210BDB0F88E3AD3
:1013B0000BB9FFF7A9BF7047B0F88E1AB0F88A2AA8
:1013C0000A44C2F30A02A0F88A2AB0F88C2A521AF8
:1013D000A0F88C2A0022A0F88E2AFFF795BF2DE9ED
:1013E000F04105460E4690460027B8F1000F30D078
:1013F000B5F88C4AC4F50064A4B2444528BF4446FD
:1014000031468B1B9BB2A3420FD2B5F88C2AB5F89C
:101410008A3A11F8010B1344C3F30A032B44013237
:1014200083F88A02A5F88C2AEBE7A8EB0408264487
:1014300028463C441FFA88F8FFF7B8FFA7B2B8F176
:10144000000F06D021F0F4FC18B92846FFF7B4FFCE
:10145000CBE73846BDE8F0812DE9F843284FDFF8A7
:10146000A480DFF8A49004460D468E18B54245D2FC
:101470002B780A2B18D013D8082B2BD0B4F888322D
:10148000B3F5FF7F24D8012229462046FFF7A7FFA6
:10149000B4F888325A1CA4F888222A7823442AE017
:1014A0000D2B01D07F2BE8E7022239462046FFF7BB
:1014B00096FFB4F8883233B12344002283F88820A1
:1014C0002046FFF755FF022241462046FFF787FFDF
:1014D0000135CBE7B4F88832002BF9D00322494616
:1014E0002046FFF77CFFB4F88832013B9BB2A4F89A
:1014F00088320022234483F88820E9E7BDE8F88396
:101500005E1303005C13030059130300FFF767BF6A
:10151000FFF720BF044B1B680A4603B9FEE70146EC
:101520001846FFF799BF00BFE00B0020024B186878
:1015300000B9FEE7FFF740BFE00B002000687047EE
:1015400008B5D0F8840004F012FA002008BD443039
:1015500003F088BF08B5D0F8840004F006FA002034
:1015600008BD403003F07ABD483004F023B90129AA
:1015700013B504460DD10DF1070110681CF07DF97B
:1015800028B99DF80710D4F8840004F02DFD02B0AE
:1015900010BD0720FBE713B5044669B10DF1070143
:1015A00010681CF06AF928B99DF80710D4F8840077
:1015B00004F054FD02B010BD0720FBE72DE9F04F09
:1015C00002298BB08046894692463ED901A95068CF
:1015D00004F02AFA044668B90AF1040B054605AB83
:1015E00059195BF8040F1CF048F9EEB2771CFFB2F2
:1015F000044618B120460BB0BDE8F08F0336F6B2B2
:10160000B14503D90135132DE9D12F46DAF8005041
:101610000F4928462FF04FF840B93B4605AA01A9CB
:10162000D8F8840004F057FB2424E3E7094928464E
:101630002FF041F838B93B4605AA01A9D8F8840033
:1016400004F04EFBD6E72324D4E70724D2E700BFFB
:101650004C1F03008324030000BA7047024B186834
:1016600000B9FEE7704700BFE00B002038B500234B
:101670000D4619490360037103754375C3824FF426
:101680007A720346C0E90312144A43F8282F04462D
:10169000036301462064443003F054FD214604F105
:1016A000480003F093FF22462846C4F884500C49B2
:1016B00004F00CFB2246D4F884000A4904F082FDB1
:1016C000094BD4F88400C4E90D3404F1340104F06A
:1016D0003AF9204638BD00BF080001008919000012
:1016E0007D410000BD410000E52A000070B50C46B8
:1016F0002F2106462EF0D2FF054680B104F10801E5
:1017000001301CF0BAF858B9237A013B3F2B08D8B6
:10171000287021463046BDE870401BF09FBF17205F
:1017200070BD0720FCE7002330B5136001394FF48A
:101730007A730A2411F8010FE8B1A0F13005092DE0
:1017400011D8B3F57A7F02BF106860431060087843
:101750001568303803FB0050B3F57A7F1060E9D08C
:10176000B3FBF4F3E6E72E2804D1B3F57A7F01D179
:101770006423DFE7072030BD10B5044686B0A9B169
:101780006946106804F050F970B99DF81230D4F829
:10179000840043F003038DF8123069464FF4507310
:1017A000ADF8103004F0FEF806B010BD0720FBE7DE
:1017B0001FB5044659B16946106804F035F920B9DF
:1017C0006946D4F8840004F0F2F804B010BD072094
:1017D000FBE71FB5044659B16946106804F024F9C7
:1017E00020B96946D4F8840004F0EAF804B010BDCA
:1017F0000720FBE71FB5044659B16946106804F09D
:1018000013F920B96946D4F8840004F0DEF804B076
:1018100010BD0720FBE730B58DB0044620F045FA37
:10182000FFF71AFF2C220090002101A82EF055FB93
:1018300004F118030FCB05AD85E80F00237D627D11
:101840008DF82C304FF0000362F341030021D4F8EF
:1018500084008DF82D3004F0C5F8054688B10422C7
:10186000694604F09EF9C0B9A189284604F095F9AB
:1018700098B9E38AD4F8840001AA294604F068F8EC
:1018800058B9E389013B9BB2E38123B1216904F19B
:10189000280005F08FFC0DB030BD284604F079F922
:1018A000EFE700002DE9F743054616460F460029ED
:1018B0005FD0D2F80080324940462EF0FCFE05F1A0
:1018C00028032A6B38B99342E88254D0184605F0B1
:1018D0002DFC002022E093424FD105F11801404633
:1018E00004F0A2F8D0B9274A28754FF47A73C5E9F5
:1018F00003236875012405F1140805F10E09A742B8
:101900002CD0631E032B34D8DFE803F0020B0E1C2F
:10191000706805F10C011BF009FF80B103B0BDE850
:10192000F0834946B068F6E701AAF1682846FFF758
:10193000FAFE0028F2D1019B002B1ADD2B61013445
:10194000E4B2DCE7414630691BF097FF0028E5D19F
:101950002B7DB3FA83F35B096B75F0E7EB8A0133F8
:101960009BB223B1EB822846FFF755FFB1E7012375
:10197000F8E70720D2E70D20D0E70520CEE700BF2B
:10198000081403000800010008B5FFF767FEBDE872
:101990000840FFF740BF10B5A0B0134604460A4602
:1019A000684680212EF0E0FE68462EF096FE6946DD
:1019B00082B22046FFF7AAFD20B010BD0EB403B5D9
:1019C00003AA52F8041B0192FFF7E5FF02B05DF88D
:1019D00004EB03B0704700002DE9F041084F0646C4
:1019E0000D4690460C46631B984506DD14F8012B06
:1019F00039463046FFF7E2FFF5E7BDE8F08100BF6A
:101A0000C617030010B5CC894B880A8886B064BA23
:101A1000A4B205948C8964BAA4B204944C8964BAC3
:101A2000A4B203940C8964BAA4B20294CC8864BAB8
:101A3000A4B20194898849BA89B25BBA52BA0091BA
:101A40009BB292B20249FFF7B9FF06B010BD00BFCA
:101A5000691C030070B505460E46FFF7D3FF041E50
:101A600002DA4FF0FF3070BD0A492846FFF7A6FFA3
:101A70000028F6DB328A04443AB907492846FFF7C2
:101A80009DFF0028EDDB2044EDE704492846FFF7E1
:101A900095FFF6E7A11F0300931E03002C1503001A
:101AA000F0B587B00D4606461022202101A800247B
:101AB0002EF013FAC5F110078DF81440AC420ED287
:101AC00004F10F03AB42A6BFE11989B2002101ABBB
:101AD000194430461034FFF771FFA4B2EEE707B0A7
:101AE000F0BD00000EB417B505AA044652F8041B59
:101AF0000192FFF750FF04492046FFF75FFF03B054
:101B0000BDE8104003B070476013030070B5054690
:101B10000C4661B124290FD0084604F015FC22467A
:101B2000034606492846BDE87040FFF7DBBF04497D
:101B3000BDE87040FFF7D6BF70BD00BF381403008A
:101B40003314030070B50E4E04460025A9592046F3
:101B50000C35FFF7C7FFB5F53A7FF7D1094E0023E3
:101B600022795D1CDBB29A4208D92268314652F8CC
:101B700033202046FFF7B6FF2B46F1E7002070BD6B
:101B8000FC2003004214030010B58AB004466946E5
:101B9000D0F8840004F009F8BDF800202A49204656
:101BA000FFF7A0FFBDF8022028492046FFF79AFF63
:101BB000BDF80630BDF8042025492046FFF792FF06
:101BC000BDF80A30BDF8082022492046FFF78AFFF9
:101BD000BDF80E30BDF80C201F492046FFF782FFEC
:101BE000BDF81230BDF810201C492046FFF77AFFDF
:101BF000BDF81630BDF8142019492046FFF772FFD2
:101C0000BDF81A30BDF8182016492046FFF76AFFC4
:101C1000BDF81E30BDF81C2013492046FFF762FFB7
:101C2000BDF82230BDF8202010492046FFF75AFFAA
:101C30002046BDF82630BDF824200D49FFF752FF9D
:101C400000200AB010BD00BF051D03000F1D0300DA
:101C5000181D0300281D0300381D0300431D030049
:101C60004E1D0300591D0300831D0300641D030066
:101C7000771D030037B5054681B90DF10701D0F88E
:101C8000840020F0A9FB044628B99DF907200B49E0
:101C90002846FFF727FF204603B030BD0DF10701AE
:101CA00010681BF079FD04460028F4D19DF9071057
:101CB000D5F8840020F0A4FB0446ECE79C13030055
:101CC00073B505460C4659B9D0F8840003F0B1FE4F
:101CD000174902462846FFF705FF204602B070BDAF
:101CE0001668144930462EF0E6FC044630B9D5F8A3
:101CF00084000CF0FBFA02460F49EBE70F4930462F
:101D00002EF0D9FC044620B9D5F884000CF0F2FA84
:101D1000F1E70DF1070130461BF0AFFD0028DDD1E2
:101D20009DF80710D5F8840003F087FED6E700BFC2
:101D30002C150300D3160300DD160300E216030082
:101D40002DE9F04704468EB00D46A9BBD0F88400BB
:101D5000DFF8A080244F04F02FF9AA468146AEB2E6
:101D6000B14539D906AA3146D4F88400ADF806A0A9
:101D700004F0ABF9F0B99DF83430C3F3C003CBB92C
:101D8000ADF8063002AB0DF106023146D4F88400FE
:101D900004F0A2F970B9BDF8282041462046FFF7AB
:101DA0000DFE02A92046FFF72DFE39462046FFF71B
:101DB00099FEE7E70135D2E70C4910682EF07BFC6D
:101DC00070B9012D0ED1D4F8840004F0FEF8084952
:101DD00002462046FFF786FE00200EB0BDE8F087E1
:101DE0002320FAE70720F8E7621303001124030019
:101DF0002C150300EC16030037B505460C4659B9FF
:101E0000D0F8840004F0D8F80A4902462846FFF7C3
:101E100069FE204603B030BD0DF1060110681BF0CD
:101E200085FC0028F6D1BDF80610D5F8840004F032
:101E3000C7F8EFE72C15030037B505460C4659B92E
:101E4000D0F8840003F05CFF0A4902462846FFF7F9
:101E500049FE204603B030BD01A910681BF021FDEA
:101E600004460028F5D10199D5F8840003F04CFF11
:101E7000EFE700BF2C15030037B505460C4659B9EE
:101E8000D0F8840004F0D2F80A4902462846FFF749
:101E900029FE204603B030BD01A910681BF001FDEA
:101EA00004460028F5D10199D5F8840004F0C2F861
:101EB000EFE700BF2C1503002DE9F04104469046E2
:101EC0000F4651B98A49FFF70DFE8A492046FFF7B0
:101ED00009FE3D462846BDE8F0811568844928463C
:101EE0002EF0E9FB0646002840F0B680012F40F0B6
:101EF000A480D4F8840003F037FE054602687E49CA
:101F00002046FFF7EFFD6A687C492046FFF7EAFDAF
:101F1000AA687B492046FFF7E5FDEA687949204633
:101F2000FFF7E0FD2A6978492046FFF7DBFD6A6983
:101F300076492046FFF7D6FDAA6975492046FFF786
:101F4000D1FDEA6973492046FFF7CCFD2A6A724940
:101F50002046FFF7C7FD6A6A70492046FFF7C2FDB9
:101F6000AA6A6F492046FFF7BDFDEA6A6D4920461F
:101F7000FFF7B8FDAA6B6C492046FFF7B3FD2A6C4A
:101F80006A492046FFF7AEFD6A6C69492046FFF7B3
:101F9000A9FDAA6C67492046FFF7A4FDEA6C6649D3
:101FA0002046FFF79FFD2A6D64492046FFF79AFD02
:101FB0006A6D63492046FFF795FDAA6D6149204689
:101FC000FFF790FDEA6D60492046FFF78BFD2A6E12
:101FD0005E492046FFF786FD6A6E5D492046FFF7A1
:101FE00081FDAA6E5B492046FFF77CFDEA6E5A49E7
:101FF0002046FFF777FD2A6F58492046FFF772FD0C
:102000006A6F57492046FFF76DFDAA6F5549204674
:10201000FFF768FDEA6F54492046FFF763FDD5F8E6
:10202000802052492046FFF75DFDD5F884205049B5
:102030002046FFF757FD35464CE7022F56D14D4954
:10204000D8F804002EF037FB054600284ED1D4F80E
:10205000840003F08DFD3DE7284626492EF02BFB3A
:102060000546002842D1012F32D1D4F8840003F074
:1020700098FF0646028840492046FFF733FD7288E4
:102080003E492046FFF72EFDB2883D492046FFF726
:1020900029FDF2883B492046FFF724FD32893A4961
:1020A0002046FFF71FFD728938492046FFF71AFDC9
:1020B000B28937492046FFF715FDF2893549204698
:1020C000FFF710FD328A34492046FFF70BFD01E788
:1020D000022F0BD12749D8F804002EF0ECFA054660
:1020E00020B9D4F8840003F060FFF3E60725F1E699
:1020F000FE1703000218030006180300121803005D
:1021000024180300381803004F1803005F18030059
:1021100078180300871803009A180300AB1803000F
:10212000C3180300D3180300E3180300F4180300D6
:102130000D190300191903002B1903003F1903009F
:102140004E19030061190300721903008A19030074
:102150009A190300B4190300CF190300E41903000E
:10216000F9190300181A0300341A0300451A030072
:10217000561A030083240300691A03007B1A030024
:102180008D1A03009C1A0300AC1A0300E61A030020
:10219000BC1A0300D51A0300FA1A030037B5054626
:1021A0000C4671B9D0F8840003F0C3FB4FF47A7287
:1021B0000D49B0FBF2F22846FFF794FC204603B02D
:1021C00030BD01290ED101A910681BF06AFB00285F
:1021D000F5D1019BD5F884004FF47A71594303F08F
:1021E000ADFBECE70720EAE72C15030010B5044629
:1021F00086B059B10DF1170110681BF03EFBE0B934
:102200009DF817301F2B17D8012199400C4B0193D3
:102210000023029400934FF6FF72D4F8840003F079
:10222000AAFE50B907492046FFF75CFC2046064944
:10223000FFF758FC242000E0072006B010BD00BFC7
:10224000694200000D1B0300641B030030B500232E
:102250008FB0CDE901330B4D044601AA03A9D4F890
:10226000840003F081FF50B903A92046FFF7CAFBA1
:10227000BDF81C2029462046FFF734FCEDE700207E
:102280000FB030BD3415030037B505460C4681B993
:102290006946D0F8840003F005FC08226946284608
:1022A000FFF79AFB28460449FFF71CFC204603B0C1
:1022B00030BD0720FBE700BF6213030037B51346AC
:1022C00005460C4679B9D0F8840003F0D0FB08220B
:1022D00001462846FFF780FB28460949FFF702FC24
:1022E000204603B030BD0822694618681BF0A2FAE8
:1022F0000028F6D16946D5F8840003F0BCFBF0E76E
:102300006213030070B506460D4681B10949106895
:102310002EF0D1F9044650B9012D08D103F037FC55
:10232000054902463046FFF7DDFB204670BD072019
:10233000FCE700BFAB1303002C15030037B51346B1
:1023400005460C4679B9D0F8840003F0E2FC082277
:1023500001462846FFF740FB28460949FFF7C2FB24
:10236000204603B030BD0822694618681BF062FAA7
:102370000028F6D16946D5F8840003F0CEFCF0E7DA
:102380006213030073B5054614460E4681B90DF17C
:102390000701D0F8840020F04BF8044628B99DF9D5
:1023A000072015492846FFF79DFB204602B070BD67
:1023B000124910682EF07FF9E0B9012E0DF10701E6
:1023C0000AD1D5F8840020F033F804460028ECD177
:1023D0009DF907200A49E5E760681BF0DDF904462E
:1023E0000028E2D19DF90710D5F8840020F02AF8E2
:1023F0000446DAE70724D8E793130300A313030086
:102400002C15030070B505460E4689B9D0F8840036
:1024100003F0C0FA044628B128461049FFF762FBD2
:10242000304670BD28460E49FFF75CFB2046F8E7B2
:1024300014680A4920462EF03EF930B90121D5F83A
:102440008400BDE8704003F099BA054920462EF09B
:1024500032F901460028F2D00720E2E7BB1B030057
:10246000BE1B0300F8B5054617460C4681B9D0F8E7
:1024700084002B4E03F092FA0446B4B3214628465A
:10248000FFF7C0FA31462846FFF72CFB6469F4E7F2
:102490001668244930462EF00EF938B9611E3A1DEF
:1024A0002846C9B2BDE8F840FFF766B91E49304674
:1024B0002EF001F938B9611E3A1D2846C9B2BDE8AF
:1024C000F840FFF775B9194930462EF0F4F8044684
:1024D00068B9D5F8840003F08DFC01462846FFF763
:1024E00091FA0F492846FFF7FDFA2046F8BD10493A
:1024F00030462EF0E0F8044620B9D5F8840003F009
:1025000071FCEAE70B4930462EF0D5F8044620B9B5
:10251000D5F8840003F06AFCDFE72324E5E700BF79
:1025200062130300BE150300C2150300C6150300A5
:10253000D0150300D515030070B505460E4689B9C0
:10254000D0F8840003F046FA044630B11149284619
:10255000FFF7C8FA3446204670BD0F492846FFF7FA
:10256000C1FAF8E716680D4930462EF0A4F8044683
:1025700028B90121D5F8840003F030FAEBE70849C7
:1025800030462EF098F8044608B90146F2E70724D1
:10259000E1E700BF302003003820030041200300A2
:1025A00048200300F8B5054616460C4681B9D0F818
:1025B00084001D4E03F000FA04468CB321462846E1
:1025C000FFF720FA31462846FFF78CFA2469F4E732
:1025D0001768164938462EF06EF838B9611E321D5C
:1025E0002846C9B2BDE8F840FFF7F3B810493846AD
:1025F0002EF061F838B9611E321D2846C9B2BDE817
:10260000F840FFF7F7B80B4938462EF054F848B9B0
:10261000611E321D2846C9B2BDE8F840FFF78CBFE5
:102620002046F8BD2320FCE762130300BE1503001B
:10263000C2150300401F03004B1E012B2DE9F3417F
:1026400005460F4616463CD8D2F800801E49404643
:102650002EF031F80446D0B9012F09D1D5F8840005
:1026600003F0E9FB024619492846FFF73BFA0AE066
:1026700001A970681BF015F9044620B90199D5F835
:10268000840003F0DCFB204602B0BDE8F081104975
:1026900040462EF010F8044698B9012F04D1D5F821
:1026A000840003F0D1FBDDE701A970681BF0F9F8A5
:1026B00004460028E7D10199D5F8840003F0C8FB4F
:1026C000E1E70724DFE700BF811E03002C150300AC
:1026D000891E030037B504466946D0F8840003F02C
:1026E000D2FB0546E0B9009A0F492046FFF7FAF9F8
:1026F0009DF804200D492046FFF7F4F99DF80520C8
:102700000B492046FFF7EEF99DF8062009492046BF
:10271000FFF7E8F99DF8072007492046FFF7E2F99F
:10272000284603B030BD00BF8F1D0300A01D03006D
:10273000B51D0300AE1D0300C61D030037B50546D9
:102740000C4659B9D0F8840003F05BFC0A490246F4
:102750002846FFF7C7F9204603B030BD01A910682D
:102760001BF09FF804460028F5D10199D5F88400A4
:1027700003F04BFCEFE700BF271E030037B505460B
:102780000C4659B9D0F8840003F033FC0B490246DB
:102790002846FFF7A7F9204603B030BD0DF1070129
:1027A00010681BF06AF804460028F4D19DF8071061
:1027B000D5F8840003F021FCEDE700BF2C150300E1
:1027C000F7B5002405468DF8044049BBD0F88400D5
:1027D00003F0C7FA8DF80400C0B2C6070ED4840710
:1027E00010D441070ED42B492846FFF7E7F82846B6
:1027F0002949FFF777F9002003B0F0BD27492846A3
:10280000FFF7DCF89DF804309A0703D524492846E1
:10281000FFF7D4F89DF804305B07E8D52149E3E7DA
:1028200016681C4930462DF046FF50B3013E234642
:1028300020462146274616F8012F6AB16E2A06D097
:10284000722A07D0642A23D101210C46F3E7012321
:102850001846F0E70127EEE72FB19DF8042042F07B
:1028600001028DF8042029B19DF8042064F341028F
:102870008DF804202BB19DF8043060F382038DF8AD
:1028800004309DF80410D5F8840003F079FAB3E71A
:102890000720B1E706140300621303003C2803007D
:1028A0002D150300F32503002DE9F8430446D0F865
:1028B0008400DFF888801D4FDFF8849003F0B0FCBF
:1028C0001B4905462046FFF70DF91A492046FFF738
:1028D00009F945B341462046FFF770F829462046DE
:1028E000FFF7B8F806462C2E05D839462046FFF7E4
:1028F00065F80136F7E749462046FFF75FF805F12E
:1029000012012046FFF7A6F806462C2E05D83946B8
:102910002046FFF753F80136F7E707492046FFF74F
:10292000E1F82D6BD5E72846BDE8F883591C030074
:10293000F31603005517030052170300EE1E0300A1
:10294000ED1E030037B505460C4659B9D0F8840092
:1029500003F074FB0B4902462846FFF7C3F82046F4
:1029600003B030BD0DF1070110681AF086FF044670
:102970000028F4D19DF80710D5F8840003F062FB1D
:10298000EDE700BF2C15030038B505460C46D0F81E
:10299000840021B11168BDE8384003F033BA03F078
:1029A0002DFA034902462846FFF79CF8204638BD19
:1029B0004214030037B505460C4659B9D0F88400D7
:1029C00003F076F80A4902462846FFF78BF82046BE
:1029D00003B030BD0DF1060110681AF0A7FE002803
:1029E000F6D1BDF80610D5F8840003F065F8EFE7DE
:1029F0007A1F030037B505460C4659B9D0F8840054
:102A000003F0D7FB0A4902462846FFF76BF8204639
:102A100003B030BD0DF1070110681AF0BDFE0028AB
:102A2000F6D19DF90710D5F8840003F0C6FBEFE757
:102A30002C1503002DE9F34198460023019398F8E3
:102A40000030812B04460E46174640D1C38A002B26
:102A50003DD0B8F8042052BA92B29A4237D1084613
:102A600003F099F80546304603F099F8281A82B227
:102A7000083218492046FEF7A1FF07F11001204651
:102A8000FEF7C0FFB8F8062097F82830124952BA6E
:102A900092B22046FEF792FF304603F080F80423FE
:102AA00001460DEB0302304603F07DF804280AD1FD
:102AB0001FF0FBF805460198FEF7CEFD07492A1ADC
:102AC0002046FEF77BFF06492046FFF70BF802B0D1
:102AD000BDE8F081D51C0300E41C0300FA1C0300D0
:102AE00062130300FFF7A6BF37B505460C4659B978
:102AF000D0F8840002F0F8FF094902462846FEF7A4
:102B0000F1FF204603B030BD01A910681AF0C9FEDC
:102B10000028F7D10199D5F8840002F0EAFFF1E727
:102B20002C15030038B505460C46A9B9D0F8840029
:102B300002F0F9FF50B1D5F884001FF0D7FB28B19F
:102B40001A492846FEF7CEFF204638BD18492846C8
:102B5000FEF7C8FF0024F7E71468164920462DF059
:102B6000AAFD70B90121D5F8840002F0E2FF044605
:102B70000028E9D12A461049D5F8840002F0CEFF9A
:102B8000E2E720460D492DF096FD044660B9014666
:102B90000246D5F8840002F0C1FF2146D5F8840032
:102BA000BDE8384002F0C5BF0724CDE73020030060
:102BB0003820030041200300D12C000048200300EE
:102BC0002DE9F84F0E463849384F0446FEF78AFF84
:102BD0002C2539462046FEF7F1FE013DF9D1B28899
:102BE0003349324F2046FEF7E9FE1C253946204680
:102BF000FEF7E4FE013DF9D12B49DFF8C480204601
:102C0000FEF770FFB388AB423FD941462046FEF73E
:102C1000D5FE0027B288EB1993422AD232682549A3
:102C2000D25C2046FEF7CAFE0137102FF2D1414692
:102C30002046FEF7C3FEDFF88C90DFF88CA0DFF8AB
:102C40008CB00027B288EB1993421CD23268D25C58
:102C5000A2F120035E2B11D859462046FEF7AEFEA6
:102C60000137102FEED141462046FEF73BFF1035CD
:102C7000C8E711492046FEF7A1FED5E75146204698
:102C8000FEF79CFEECE74946F9E70C4E532531462A
:102C90002046FEF793FE013DF9D120460249BDE8EA
:102CA000F84FFEF71FBF00BF62130300A01E030012
:102CB000A21E0300AE1E0300B41E03000614030090
:102CC00053170300BF1E0300BC1E0300B81E030001
:102CD00013460A4601461846FFF772BFF8B5054687
:102CE000D0F884000F4614460BF008FB064602F0AD
:102CF00041FE86420DD077B1206808492DF0DBFCFB
:102D0000044640B9284632460549FEF7EBFE204608
:102D1000F8BD0C20FCE70720FAE700BFB913030059
:102D20004214030010B50446D0F8840003F0C0F844
:102D3000034902462046FEF7D5FE002010BD00BF25
:102D40003515030037B505460C4659B9D0F884004F
:102D500003F0A3F90B4902462846FEF7C3FE2046BE
:102D600003B030BD0DF1070110681AF086FD04466E
:102D70000028F4D19DF80710D5F8840003F091F9EC
:102D8000EDE700BF2C15030070B505460E4689B966
:102D9000D0F8840003F01EF9044628B128461049F3
:102DA000FEF7A0FE304670BD28460E49FEF79AFE9B
:102DB0002046F8E714680C4920462DF07CFC30B919
:102DC0000121D5F88400BDE8704003F008B9074937
:102DD00020462DF070FC01460028F2D00720E2E7E3
:102DE0003020030038200300412003004820030066
:102DF00037B505460C4659B9D0F8840003F055F9AB
:102E00000B4902462846FEF76DFE204603B030BD52
:102E10000DF1070110681AF030FD04460028F4D1C6
:102E20009DF80710D5F8840003F043F9EDE700BFE3
:102E30002C15030037B505460C4659B9D0F8840067
:102E400003F004F90B4902462846FEF74BFE2046E4
:102E500003B030BD0DF1070110681AF00EFD0446F5
:102E60000028F4D19DF80710D5F8840003F0F2F89B
:102E7000EDE700BF2C150300F0B585B00026054630
:102E80001746ADF80E600C46002939D02749106866
:102E90002DF011FC50B9012C46D90DF10E017868C6
:102EA0001AF044FC00283DD005B0F0BD33460DF1CA
:102EB0000D0157F823001AF0E0FC0028F4D19DF82A
:102EC0000D301F2B1AD801249C40CEB1184928463A
:102ED000FEF708FE17492846FEF704FEBDF80E204F
:102EE0000095154BD5F88400214602F04CFE0028D1
:102EF000DAD12420D8E702230126D8E70720D3E738
:102F000028460E49FEF7EEFD28460D49FEF7EAFD7C
:102F1000BDF80E2000950B4BD5F88400214602F039
:102F20002EFEE4E7022CE6D10024CFE710140300C4
:102F30001714030025140300612F00000D1B03006C
:102F4000641B03006942000009B9FEF7DFBD91F977
:102F500001300A780149FEF7C5BD00BF321F0300EA
:102F60000B4601461846FFF7EFBF000010B50446B8
:102F7000D0F8840002F0FAFF28B104492046FEF799
:102F8000B1FD002010BD0249F8E700BFD01C0300CE
:102F9000E934030038B50446D1B9D0F8840002F012
:102FA0006EFF042812D8DFE800F003090B0D0F00B4
:102FB0001F492046FEF796FD002038BD1D49F8E761
:102FC0001D49F6E71D49F4E71D49F2E71D49F0E701
:102FD0001568184928462DF06EFB28B9D4F88400EE
:102FE000BDE8384002F038BF134928462DF063FB96
:102FF00028B9D4F88400BDE8384002F032BF0F4948
:1030000028462DF058FB28B9D4F88400BDE8384094
:1030100003F02CB80A4928462DF04DFB28B9D4F806
:103020008400BDE8384003F033B80720C5E700BF8F
:103030008A150300931503009C150300A2150300D5
:10304000A9150300B015030038B5054611B314687F
:10305000124920462DF02FFB30B90121D5F884000C
:10306000BDE8384002F070BF0D4920462DF023FB2B
:1030700001460028F2D020460A492DF01CFB0446E8
:1030800050B902F071FF084902462846FEF72AFDB2
:10309000204638BD0720FCE72320FAE7CD160300C1
:1030A00008140300B9130300271E030037B50546B3
:1030B00081B90DF10701D0F884001FF079F90446B9
:1030C00028B99DF907200B492846FEF70BFD20463D
:1030D00003B030BD0DF1070110681AF05DFB044626
:1030E0000028F4D19DF90710D5F884001FF06AF983
:1030F0000446ECE79C130300F7B5054616460F4659
:10310000002959D014682E4920462DF0D4FA78B9F8
:10311000022F51D10DF1060170681AF007FB28B992
:10312000BDF80610D5F8840002F06AFC03B0F0BDCB
:10313000244920462DF0BFFAD8B9022F3CD1766839
:10314000214930462DF0B7FA28B9D5F8840002F0AD
:1031500061FC0020EAE70DF1060130461AF0E6FABC
:103160000028E3D1BDF80610D5F8840002F04DFC2C
:10317000DCE7204615492DF09EFA0446F0B90DF122
:103180000601D5F8840002F04AFC064678B1104FDB
:1031900020469DF80630441CC0B2834207D936F859
:1031A000102039462846FEF709FC2046F1E7094978
:1031B0002846FEF797FCCCE70720B7E72320B5E7C2
:1031C000BE150300951E03009C1E03004C1F030048
:1031D000DA1E03006213030038B505460C4641B9F8
:1031E00002F0C8FB084902462846FEF77BFC204651
:1031F00038BD064910682DF05EFA044610B9242245
:103200000349F1E72320F3E742140300B717030053
:103210002C15030037B505460C4659B9D0F8840083
:1032200002F0F7FE0A4902462846FEF75BFC2046FC
:1032300003B030BD0DF1060110681AF077FA0028CE
:10324000F6D1BDF80610D5F8840002F0E7FEEFE7EE
:103250002C1503004B1E012B2DE9F34105460F46AB
:10326000164640D8D2F80080204940462DF023FA77
:103270000446E0B9012F09D1D5F8840002F03EFCE4
:1032800002461B492846FEF72DFC0CE00DF1070114
:1032900070681AF0F2FA044628B99DF80710D5F8BC
:1032A000840002F02FFC204602B0BDE8F0811149F5
:1032B00040462DF000FA0446A8B9012F04D1D5F8F4
:1032C000840002F023FCDBE70DF1070170681AF0BF
:1032D000D4FA04460028E6D19DF80710D5F88400FA
:1032E00002F018FCDFE70724DDE700BFDD1D030067
:1032F0002C150300DB1D030070B5064615460C4671
:1033000061B1084910682DF0D6F948B9611E2A1D2F
:103310003046C9B2BDE87040FFF79CBF072070BDC2
:103320002320FCE7B113030070B50D461146044697
:103330001646FEF7B5FB2A780E4902F00102204638
:10334000FEF7D0FB31462046FEF7AAFB2A780A4951
:10335000C2F340022046FEF7C5FB31462046FEF789
:103360009FFB2A7805492046C2F38002BDE87040E1
:10337000FEF7B8BB63130300741303008313030049
:1033800070B50D46044611461646FEF789FB95F9C1
:10339000002027492046FEF7A5FB31462046FEF7D0
:1033A0007FFB6A7823492046FEF79CFB3146204686
:1033B000FEF776FBAA7820492046FEF793FB3146BC
:1033C0002046FEF76DFBEA781C492046FEF78AFB93
:1033D00031462046FEF764FB2A7919492046FEF75C
:1033E00081FB31462046FEF75BFB6A791549204692
:1033F000FEF778FB31462046FEF752FBAA791249C8
:103400002046FEF76FFB31462046FEF749FB2A892E
:103410000E492046FEF766FB31462046FEF740FB8C
:10342000AA7A0B492046BDE87040FEF75BBB00BF9F
:10343000E41D0300F71D0300081E0300191E03000E
:103440002A1E0300391E0300481E03005A1E0300F3
:103450006C1E030070B504460D4616460A781249E4
:10346000FEF740FB31462046FEF71AFB6A780F490B
:1034700002F003022046FEF735FB31462046FEF7F8
:103480000FFB6A780A49C2F381022046FEF72AFB45
:1034900031462046FEF704FB6A78064920461209A9
:1034A000BDE87040FEF71EBBBB170300CB1703003F
:1034B000DE170300F01703002DE9F8430F46054619
:1034C00011461446FEF7ECFA3A781649DFF85C909C
:1034D0002846FEF707FB21462846FEF7E1FA124987
:1034E0002846FEF7FFFA04F1040806341FFA88F8AC
:1034F0000026A4B27A78B3B29A4206F101060ED938
:1035000041462846FEF7CCFA49462846FEF756FAC9
:10351000224607EB46012846FFF79CFFEAE7BDE895
:10352000F88300BF391E0300C1130300CC1303004E
:1035300070B50D46044611461646FEF7B1FA2A68E4
:1035400014492046FEF7CEFA31462046FEF7A8FA87
:103550002A7911492046FEF7C5FA31462046FEF782
:103560009FFA6A790D492046FEF7BCFA314620469B
:10357000FEF796FAAA790A492046FEF7B3FA3146D1
:103580002046FEF78DFAEA7906492046BDE87040EC
:10359000FEF7A8BA811C0300951C0300A91C0300B8
:1035A000A31C0300B91C030070B50D460446114668
:1035B0001646FEF775FA2A6826492046FEF792FA63
:1035C00031462046FEF76CFA6A6823492046FEF72A
:1035D00089FA31462046FEF763FAAA681F49204659
:1035E000FEF780FA31462046FEF75AFAEA681C498F
:1035F0002046FEF777FA31462046FEF751FA2A694F
:1036000018492046FEF76EFA31462046FEF748FA82
:103610006A6915492046FEF765FA31462046FEF7ED
:103620003FFAAA6911492046FEF75CFA3146204666
:10363000FEF736FAEA690E492046FEF753FA31469C
:103640002046FEF72DFA2A6A0A492046BDE8704056
:10365000FEF748BA502003006620030075200300DF
:103660008520030097200300AD200300BE20030047
:10367000D1200300E820030070B516460A880546ED
:103680000C46C2F348120F49FEF72CFA3146284681
:10369000FEF706FA14F8022B0B4902F01F02284627
:1036A000FEF720FA31462846FEF7FAF92846074980
:1036B000FEF718FA321D2146284692B2BDE8704046
:1036C000FFF732BEC21E030024200300D21E0300F7
:1036D0007FB5054616460C4679B9D0F8840002F04D
:1036E0004BFD102201462846FEF776F9284616497A
:1036F000FEF7F8F9204604B070BD012910680BD11F
:10370000102269461AF096F80028F4D16946D5F8D7
:10371000840002F035FDEEE70C492CF0CCFF80B9B7
:10372000D5F88400746802F069FB0646D5F8840079
:1037300002F0EFFA6B4602463146204602F0F2F8FC
:10374000E2E70720D7E700BF621303000D14030070
:1037500030B5134685B005460C4679B9D0F88400DB
:1037600002F020FB102201462846FEF735F92846D4
:103770000949FEF7B7F9204605B030BD1022694669
:1037800018681AF057F80028F6D16946D5F8840071
:1037900002F00CFBF0E700BF621303002DE9F041DB
:1037A000A4B005460C4616460021802204A82CF041
:1037B00094FB00238DF80F309CB1711C89B2204618
:1037C00003F0C7FBB0420CD8202304AA0DF10F016F
:1037D000204619F0FBFE38B1202225492846FEF785
:1037E00081F924B0BDE8F0819DF80F3023B921495B
:1037F0002846FEF777F9F4E7049E1F4B00933E221C
:103800000C231E49304619F0BDFE0446C0B995F898
:103810000480E3B2984529D92B68304653F8341018
:1038200003EBC4072CF047FF01340028F1D19DF8C9
:103830000F107B68A868013905AAC9B29847D0E77C
:10384000816863684A10C9079DF80F1005EB0200F4
:1038500048BFAA5801F1FF3148BFD358C9B205AAE1
:10386000984701462846FEF751F9BAE72321F9E7C0
:10387000CF130300ED1303003D150000FC200300EF
:103880000822FEF7A9B800002DE9F04704468AB0E7
:10389000002900F0FB8015687D4928462CF00BFFBD
:1038A0000646002865D07B4928462CF004FF0028F6
:1038B00067D028460DF1060119F038FF05460028AB
:1038C00040F0CD8002AABDF80610D4F8840002F0C2
:1038D000F5FB0546002840F0C280BDF81A206E496D
:1038E0002046FEF7FFF8BDF818206C492046FEF789
:1038F000F9F86B492046FEF761F802A92046FFF768
:10390000BFFF68492046FEF7EDF867492046FEF7FD
:1039100055F89DF82430DE0700F1A580980700F1E6
:10392000A680590700F1A38060492046FEF746F8BB
:1039300020465C49FEF7D6F89DF81C205C492046DD
:10394000FEF7D0F8049A5B492046FEF7CBF8059ABB
:1039500059492046FEF7C6F89DF81D2057492046D4
:10396000FEF7C0F89DF91E2055492046FEF7BAF82B
:1039700075E054492046FEF7B5F853492046FEF756
:10398000B1F8D4F88400DFF86881DFF86891DFF8D7
:1039900068A102F011FB00250746A9B28F4259D950
:1039A00002AAD4F8840002F090FB00284BD19DF8C5
:1039B00024301B0747D4BDF81A20002E45D14946B4
:1039C0002046FDF7FBFFBDF8182051462046FDF7C5
:1039D000F5FF049A3D492046FDF7F0FF059A3B4963
:1039E0002046FDF7EBFF9DF81D2039492046FDF7E5
:1039F000E5FF9DF81C2037492046FDF7DFFF9DF8C5
:103A00002420354902F001022046FDF7D7FF9DF83A
:103A100024203149C2F340022046FDF7CFFF9DF834
:103A200024202D49C2F380022046FDF7C7FF2B4911
:103A30002046FDF7C3FF02A92046FFF721FF2849D2
:103A40002046FEF74FF80135A7E741462046FDF72F
:103A5000B5FFF8E713492046FEF744F8002528464D
:103A60000AB0BDE8F0871F492046FDF7A7FF9DF883
:103A700024309A0703D51C492046FDF79FFF9DF887
:103A800024305B077FF554AF18494EE70725E6E77A
:103A9000451403004B140300221503002F150300E7
:103AA0003A150300621303004515030006140300D2
:103AB0004C15030059150300651503006D1503002F
:103AC0008115030050140300A3140300071503001D
:103AD0000F150300161503001D150300EE1E03004D
:103AE000521703003C2803002D150300F3250300A3
:103AF000DA1E0300F6140300FD1403002DE9F04163
:103B00008AB000230446ADF8023059B116683D4929
:103B100030462CF0D0FD054630B13B4930462CF004
:103B2000CAFD48B1072069E038492046FDF7DAFFB1
:103B300037492046FDF7D6FF364E374FDFF8F8807D
:103B4000D4F8840001AA0DF1020102F090F90028D6
:103B50004FD1002D46D19DF8243013F0080F14BF2B
:103B60004322522239462046FDF728FFBDF8102097
:103B700041462046FDF722FF039A28492046FDF7DB
:103B80001DFF9DF91D2026492046FDF717FF9DF9D1
:103B90001E2024492046FDF711FF9DF824202249CC
:103BA00002F001022046FDF709FF9DF824201E497E
:103BB000C2F340022046FDF701FF9DF824201A4978
:103BC000C2F380022046FDF7F9FE18492046FDF7B2
:103BD000F5FE01A92046FFF753FE15492046FDF7E3
:103BE00081FFADE7BDF8102031462046FDF7E6FE27
:103BF000A6E720460F49FDF775FF00200AB0BDE893
:103C0000F08100BF451403004B140300C31B0300E5
:103C10000B1C0300FF140300531C0300F6140300E5
:103C20005B1C0300621C03001D150300EE1E030055
:103C30005217030062130300FD14030030B587B070
:103C4000044601A9D0F8840002F037F9054618BBF4
:103C500013492046FDF7B2FE01A92046FFF710FEEA
:103C600010492046FDF73EFFBDF80C200E492046C6
:103C7000FDF738FF9DF811200C492046FDF732FF73
:103C80009DF812200A492046FDF72CFF9DF81320CD
:103C900008492046FDF726FF284607B030BD00BF83
:103CA0003A15030062130300DB1503006D150300D2
:103CB000E4150300651503002DE9F04F044687B0B5
:103CC000002900F0DC8015686E4928462CF0F3FCD2
:103CD000064600286BD06C4928462CF0ECFC0028E6
:103CE0006DD028460DF1020119F020FD054600288F
:103CF00040F0BB8001AABDF80210D4F8840002F0A5
:103D00002DFA0546002840F0B0809DF814205F4948
:103D100002F001022046FDF7E5FE9DF81430DA07B7
:103D200040F1A3809DF80E2059492046FDF7DAFEA8
:103D3000BDF80C2057492046FDF7D4FE9DF80F2012
:103D4000554992022046FDF7CDFE9DF814205349B7
:103D5000C2F340022046FDF7C5FE9DF814309B07D4
:103D600040F183804E492046FDF728FE01A92046F8
:103D7000FFF786FD20464B49FDF7B4FE9DF8102065
:103D800049492046FDF7AEFE9DF8112047492046DF
:103D9000FDF7A8FE9DF8122045492046FDF7A2FE3A
:103DA0009DF8132043492046FDF79CFE5DE0424903
:103DB0002046FDF797FE41492046FDF793FED4F8D3
:103DC0008400DFF81891DFF818A1DFF818B102F0CD
:103DD000C3F900258046EFB201AA3946D4F8840021
:103DE00002F0BCF9002837D1002E42D19DF80E20F8
:103DF00051462046FDF7E2FDBDF80C20594620460D
:103E0000FDF7DCFD9DF80F202D492046FDF7D6FD7E
:103E10009DF810202B492046FDF7D0FD9DF811207C
:103E200029492046FDF7CAFD9DF812202749204662
:103E3000FDF7C4FD9DF8132025492046FDF7BEFD82
:103E400024492046FDF7BAFD01A92046FFF718FDD9
:103E500021492046FDF746FE0135EBB29845BAD21E
:103E600010492046FDF73EFE0025284607B0BDE874
:103E7000F08F3A4649462046FDF7A0FDECE70725BE
:103E8000F3E700BF451403004B140300A216030020
:103E9000CD1D03002F150300AC160300BB16030055
:103EA0003A15030062130300C41603006D150300E6
:103EB000E415030065150300F91503004A16030015
:103EC0005B1C0300621C03000F1503009B1603001C
:103ED000F6140300EE1E030052170300DA1E03005F
:103EE000F21E0300FD1403002DE9F04F0446DDB07F
:103EF00008460F4601F04FFE0546384601F04FFEDA
:103F000000262D1A8A49ADF806602046ADB2FDF7AD
:103F100055FDD5B1102D3846A84628BF4FF01008E2
:103F200001F03DFE8119434602AA89B2384601F0EC
:103F30003AFEA5EB08055FFA88F202A9204646443E
:103F4000FDF74AFDADB2B6B2E3E77A49DFF8208269
:103F5000DFF82092784E2046FDF7C4FD06AA0DF149
:103F60000601384601F0B0FE002840F0D6809DF8EA
:103F70001830132BF2D801A252F823F0CD3F0000E5
:103F8000E73F0000F53F0000094000000F4000003F
:103F900023400000374000004B4000006340000019
:103FA000AD4000005D3F00005D3F00005D3F000050
:103FB0005D3F0000C1400000C9400000D14000004A
:103FC000114100005D3F0000154100005B492046A3
:103FD000FDF7F4FC07A92046FFF752FC31462046C6
:103FE000FDF780FDBAE7BDF81C2055492046FDF7D6
:103FF00079FDB3E720465349FDF774FD042207A974
:104000002046FFF791F9A9E7079A4F49EEE72046C6
:104010004E49FDF767FD042207A92046FFF7B0F9D6
:104020009CE720464A49FDF75DFD042207A920468A
:10403000FFF742FA92E720464649FDF753FD042276
:1040400007A92046FFF774FA88E743492046FDF7A1
:10405000B5FC9DF81C200DF11D012046FDF7BCFCB0
:10406000BCE73E49DFF810B1DFF8C8A02046FDF7F5
:1040700039FD00259DF81C20ABB29A4205F10105DF
:104080007FF66CAF20460421FDF70AFD5946204615
:10409000FDF794FC0DF10D0303EB05112046FDF730
:1040A000B1FC51462046FDF71DFDE3E720462C49B3
:1040B000FDF718FD042207A92046FFF775FA4DE722
:1040C0009DF81C20274991E7BDF81C2026498DE763
:1040D0002649DFF8A4A02046FDF704FD00259DF841
:1040E0001C20ABB29A4205F101057FF637AF20469E
:1040F0000421FDF7D5FC51462046FDF75FFC0DF18C
:104100001A03062203EB85012046FFF7B5FAE6E71E
:1041100049469BE7079A414668E7172814BF0146BE
:1041200000212046FDF7F2FC5DB0BDE8F08F00BF36
:10413000501F030062130300B11F0300631F03003D
:10414000721F0300D21E030024200300811F0300FE
:104150008F1F0300961F0300A31F0300B31F03005C
:10416000C51F0300D31F0300E71F0300FC1F03004C
:104170001A20030009200300CC13030013460A464B
:1041800001461846FFF7B0BE70B504460D46094912
:10419000FDF714FC29462046FFF772FB2A7A0649F0
:1041A000C2F30013204602F00F02BDE87040FDF795
:1041B00099BC00BF011F03001B1F03000B460146F3
:1041C0001846FFF7E1BF000038B504460D4619B99F
:1041D000BDE83840FDF79ABC91F839201A49C2F37E
:1041E0004012FDF7EBFB05F1080218492046FDF7E8
:1041F000E5FB17492046FDF7E1FB05F119012046D3
:10420000FFF73EFB13492046FDF7D8FB6A8E1249A3
:104210002046FDF7D3FB29462046FFF731FB95F8F2
:1042200036200E492046FDF7C9FB95F937200C4989
:104230002046FDF7C3FB95F838200A492046BDE823
:104240003840FDF74FBC00BFD81E0300DE1E030040
:10425000EE1E0300591C0300E71E0300F11E0300BD
:10426000F6140300F91E03000B4601461846FFF73B
:10427000ABBF00687047000070B5064E05460024CD
:10428000A15928680C34FDF72DFCFC2CF8D1002036
:1042900070BD00BF3C270300F8B5054616460F4623
:1042A0003D4C002939D194F86500C0F38000002806
:1042B00032D0B4F85C2039492868FDF77FFB94F9C7
:1042C0005E30002B03DA36492868FDF777FB94F857
:1042D0005E30580603D533492868FDF76FFB94F824
:1042E0005E30990603D530492868FDF767FB94F8DE
:1042F0005E30DA0603D52D492868FDF75FFB94F898
:104300005E301B0703D52A492868FDF757FB28684C
:104310002849FDF7E7FB0020F8BD04F15C011068B7
:1043200019F004FA0028F7D1012F84F85E002CD987
:104330007268013A12F8013F3BB36E2B16D005D8D4
:10434000622B1DD0632B16D00720E5E76F2B06D01C
:10435000722BF9D194F85E3043F0200303E094F817
:104360005E3063F07F0384F85E30E3E794F85E30FC
:1043700043F04003F7E794F85E3043F01003F2E7B0
:1043800094F85E3043F00803EDE794F8653043F0AD
:10439000040384F86530BFE7E80B0020DA1E030051
:1043A000ED230300F32503003C280300BA1E03009D
:1043B000732603006213030008B568220021024837
:1043C0002BF08BFD002008BDE80B002038B504461B
:1043D00039B31568144928462CF06DF938B92368AB
:1043E0001249D3F88400BDE8384001F04FBA1049B3
:1043F00028462CF060F938B923680C49D3F88400BA
:10440000BDE8384001F05EBA0A4928462CF053F95D
:1044100038B923680549D3F88400BDE8384001F075
:1044200083BA072038BD00BF7F3C0300E80B0020A3
:104430001F2603002726030038B50D460E4C61B930
:1044400094F8643013F0010314D000680B49D4E9E8
:104450000023FDF747FB284638BD2146106819F0B8
:10446000FDF80028F8D194F8643043F0010384F893
:104470006430F1E71846EFE7E80B0020C22603009E
:1044800038B50D460F4C61B994F86430C3F340035E
:10449000ABB100680C49D4E90223FDF723FB2846A1
:1044A00038BD04F10801106819F0D8F80028F7D1D8
:1044B00094F8643043F0020384F86430F0E718465F
:1044C000EEE700BFE80B0020C226030038B50D461A
:1044D0000F4C61B994F8653013F0010315D00068F2
:1044E000B4F84A200B49FDF7FDFA284638BD04F11F
:1044F0004A01106819F01AF90028F7D194F86530CC
:1045000043F0010384F86530F0E71846EEE700BF9A
:10451000E80B00202C15030038B50D460E4C59B998
:1045200094F86430DB0915D00068B4F848200B49D2
:10453000FDF7D8FA284638BD04F14801106819F093
:10454000F5F80028F7D194F8643043F0800384F83C
:104550006430F0E71846EEE7E80B00207A1F03000E
:1045600038B50D460E4C59B994F86530C3F3C00305
:10457000A3B10068226E0B49FDF7B4FA284638BD96
:1045800004F16001106819F08CF90028F7D194F853
:10459000653043F0080384F86530F0E71846EEE72D
:1045A000E80B00208E1C030038B50D460E4C59B99F
:1045B00094F86430C3F38013A3B10068626C0B49B4
:1045C000FDF790FA284638BD04F14401106819F04F
:1045D00068F90028F7D194F8643043F0400384F878
:1045E0006430F0E71846EEE7E80B00202C150300D6
:1045F00038B50446D1B115680D4928462CF05BF852
:1046000038B923680B49D3F88400BDE8384001F07D
:104610004BB9094928462CF04EF838B923680549AA
:10462000D3F88400BDE8384001F05AB9072038BDFE
:104630007F3C0300E80B00201F26030070B51546E1
:1046400069B9154B93F86420C2F3C0022AB1203334
:10465000112212490068FDF745FA002070BD10686C
:104660002CF03BF81028064613D80B4C11220021E1
:1046700004F120002BF031FC3246296804F12000BF
:104680002BF007FC94F8643043F0080384F864309E
:10469000E3E70720E2E700BFE80B00202B2603003A
:1046A00030B50D46C3B0FE230446ADF8063002AA6D
:1046B00000230DF10601686819F07DF878B92D68BE
:1046C000BDF806300E498DF8063128462BF0F3FF71
:1046D00038B9236802A9D3F8840001F0ECF843B09C
:1046E00030BD084928462BF0E6FF30B9236802A9FF
:1046F000D3F8840001F0FBF8F1E70720EFE700BFF3
:104700007F3C03001F260300022902D11146FFF758
:10471000C7BF07207047000030B50D4687B0F9B914
:104720001A4991F86430C3F34013B3B1B1F83F4074
:10473000B1F83B30B1F8392064BAA4B20194B1F8B1
:104740003D1049BA89B200915BBA52BA9BB292B29B
:104750000F490068FDF7C6F92B46184607B030BD73
:1047600002A9106801F060F903460028F5D1074C52
:1047700002AA03CA94F86420C4F8390042F0200267
:10478000C4F83D1084F86420E7E700BFE80B002080
:10479000752603002DE9F04F824691B017468846F2
:1047A000002900F0BD800025DFF8A8B1ADF80C505D
:1047B0000124A946A04540F28C8057F8246059494D
:1047C00030462BF078FF40B99DF80C3043F00103E0
:1047D0008DF80C300134E4B2ECE7534930462BF04D
:1047E0006AFF20B99DF80C3043F00203F0E7594608
:1047F00030462BF060FF20B99DF80C3043F00403E5
:10480000E6E74A4930462BF056FF20B99DF80C30B8
:1048100043F00803DCE7464930462BF04CFF20B953
:104820009DF80C3043F01003D2E7424930462BF09C
:1048300042FF20B99DF80C3043F02003C8E73E4901
:1048400030462BF038FF20B99DF80C3043F0400380
:10485000BEE73A4930462BF02EFF20B99DF80C30C8
:1048600043F08003B4E7364930462BF024FF30B9DB
:104870009DF80D3043F001038DF80D30AAE7314962
:1048800030462BF018FF034688B90134E4B2A04546
:1048900046D92022ADF80E200DF10E016A4457F8DA
:1048A000240018F088FF30BB9DF80E9092E726494F
:1048B00030462BF000FF002832D10134E4B2A0458D
:1048C0002ED904A957F8240001F0AEF898B90125B3
:1048D00080E73C681D4920462BF0EDFE70B9DAF800
:1048E0000030D3F8840005B104AD00954B4608AA0A
:1048F00003A901F003F811B0BDE8F08F1449204678
:104900002BF0D9FE60B9DAF80030D3F8840005B195
:1049100004AD00954B4608AA03A900F0F9FFEAE7A9
:104920000720E8E730260300402603003A2503006D
:10493000732403004E28030051260300762403004D
:10494000FC2303005C2603005F2603007F3C03007A
:104950001F260300EF240300F8B505461446B1B93D
:10496000254991F86530980708D54C312868102200
:10497000FDF732F821492868FDF7B4F81E4A92F88D
:10498000653043F0020382F86530002008E0012919
:1049900007D110221A49206818F04CFF0028EDD0EA
:1049A000F8BD022925D1174910682BF084FE00BB01
:1049B0006768114C94F864301A0715D42B68D3F843
:1049C000840001F01BFA064694F86430DB060ED42E
:1049D0002B68D3F8840001F09CF90246084B31465D
:1049E000384600F09FFFD9E704F12006ECE7064ABD
:1049F000F4E70720D4E700BFE80B002062130300B0
:104A0000340C00200D140300190C002070B513465F
:104A100006460D46104C81B994F86400C0F30010AE
:104A200050B1082204F131013068FCF7D5FF30683D
:104A30000A49FDF757F8284670BD082204F13101F4
:104A4000186818F0F7FE0028F6D194F8643043F0A7
:104A5000100384F86430EFE7E80B002062130300D2
:104A600070B5134606460D460F4C79B994F86400AC
:104A7000C0F3800048B11022A1183068FCF7ACFFE9
:104A800030680A49FDF72EF8284670BD1022A1189B
:104A9000186818F0CFFE0028F7D194F8643043F07E
:104AA000040384F86430F0E7E80B0020621303008D
:104AB0002DE9F04F8146C1B015460E46C1B16822BE
:104AC000002106A82BF009FA00244FEA560AA04656
:104AD000A24500F0118105EBC40398495F68384690
:104AE0002BF0E9FDB0B9631C5B00DBB29E4201D83C
:104AF00007200CE09DF87C2042F001028DF87C201C
:104B000006A955F8230018F0A9FD00284ED041B0A1
:104B1000BDE8F08F8A4938462BF0CDFD60B9631CA3
:104B20005B00DBB29E42E3D99DF87C2042F002029A
:104B30008DF87C2008A9E4E7824938462BF0BBFDBC
:104B400088B9631C5B00DBB29E42D1D99DF87C2002
:104B500042F004028DF87C200AA9102255F82300A7
:104B600018F068FED1E7784938462BF0A4FD019093
:104B7000F0B9631C5B00DBB29E42B9D99DF87C2082
:104B800055F8237042F0080238468DF87C202BF04F
:104B9000A4FD10288346ABD8112201990EA82BF052
:104BA0009CF95A4639460EA82BF073F901348FE769
:104BB000664938462BF07FFD70B9631C5B00DBB2A1
:104BC0009E4295D99DF87C2042F010028DF87C2001
:104BD0000DF149010822C1E75D4938462BF06BFD14
:104BE000C0B9631C5B00DBB29E4281D99DF87C207A
:104BF00055F8230042F0200202A98DF87C2000F035
:104C000013FF002883D102AB03CBCDF85100CDF8C0
:104C10005510CBE74F4938462BF04DFD88B9631C42
:104C20005B00DBB29E427FF663AF9DF87C2042F0D2
:104C300040028DF87C2017A955F8230018F031FEAA
:104C400063E7454938462BF036FD88B9631C5B00A5
:104C5000DBB29E427FF64CAF9DF87C2042F0800292
:104C60008DF87C2018A955F8230018F05FFD4CE75B
:104C70003A4938462BF01FFD70B9631C5B00DBB26C
:104C80009E427FF635AF9DF87D2042F001028DF8FF
:104C90007D200DF16201E6E7314938462BF00BFD2E
:104CA00068B9631C5B00DBB29E427FF621AF9DF8C2
:104CB0007D2042F008028DF87D201EA9BCE729491D
:104CC00038462BF0F8FC034600287FF411AF671C30
:104CD0007F00FFB2BE427FF60BAF8022ADF8082006
:104CE00002A96A4455F8270018F065FD00287FF4F2
:104CF0000EAF9DF8088059E72C681B4920462BF021
:104D0000DAFC48B9D9F80000434620AA06A9D0F831
:104D1000840000F0F8FDFAE6144920462BF0CBFCA5
:104D200000287FF4E5AED9F80000434620AA06A982
:104D3000D0F8840000F0F1FDE9E600BF3026030062
:104D400040260300EF2403003A25030073240300E8
:104D50004E2803005126030076240300FC230300A1
:104D6000672603005C2603007F3C03001F26030028
:104D700037B591F864300C469907054605D5D4E956
:104D8000022365490068FCF7ADFE94F86430DA0749
:104D900005D5D4E9002361492868FCF7A3FE94F8FF
:104DA0006530DB0705D5B4F84A205D492868FCF773
:104DB00099FE94F86530180704D5226E5949286881
:104DC000FCF790FE94F86430590604D5626C56499D
:104DD0002868FCF787FE94F86430DA060DD553494D
:104DE0002868FCF7EBFD04F1310128680822FCF784
:104DF000F3FD4F492868FCF775FE94F864309B0674
:104E000015D5B4F83F10B4F83B30B4F83920286811
:104E100049BA89B20191B4F83D1049BA89B25BBA76
:104E200052BA00919BB292B24249FCF75BFE94F8F1
:104E3000643058070CD540492868FCF7BFFD1022A4
:104E4000A1182868FCF7C8FD39492868FCF74AFE14
:104E500094F8643019070AD538492868FCF7AEFD84
:104E600004F12003112236492868FCF73BFE94F830
:104E70006430DB0905D0B4F8482032492868FCF7D3
:104E800031FE94F865309A070DD52F492868FCF754
:104E900095FD04F14C0128681022FCF79DFD244982
:104EA0002868FCF71FFE94F865305B0731D5B4F82D
:104EB0005C2026492868FCF781FD94F95E30002BC0
:104EC00003DA23492868FCF779FD94F85E30580628
:104ED00003D520492868FCF771FD94F85E309906E7
:104EE00003D51D492868FCF769FD94F85E30DA06A1
:104EF00003D51A492868FCF761FD94F85E301B075A
:104F000003D517492868FCF759FD09492868FCF7BB
:104F1000E9FD002003B030BD99260300B026030050
:104F200001190300C6260300DB260300E526030063
:104F30006213030075260300F2260300FF26030018
:104F40002B2603000E2703001D2703002427030040
:104F5000ED230300F32503003C280300BA1E0300E1
:104F60007326030030B50546C1B079B903686946B8
:104F7000D3F8840000F08AFC044620B9694628462C
:104F8000FFF7F6FE0446204641B030BD012921D18D
:104F90001468114920462BF08EFBD8B920462BF01F
:104FA0009CFBB0F5FE7F13D82B686946D3F88400CC
:104FB00000F073FC04460028E5D1694628689DF896
:104FC000FE20FCF709FD05492868FCF78BFDDAE7B0
:104FD0000324D8E70724D6E75C2603006213030006
:104FE00030B50546C1B079B903686946D3F8840085
:104FF00000F068FC044620B969462846FFF7B8FE71
:105000000446204641B030BD012921D11468114920
:1050100020462BF050FBD8B920462BF05EFBB0F5B4
:10502000FE7F13D82B686946D3F8840000F051FC4A
:1050300004460028E5D1694628689DF8FE20FCF763
:10504000CBFC05492868FCF74DFDDAE70324D8E7D7
:105050000724D6E75C2603006213030073B50646F7
:1050600015460C4629B9124902B0BDE87040FFF759
:105070007FBE104B009315220C230F49286818F0AF
:1050800081FA034688B181685B684A10C90706EB5C
:10509000020048BFB25804F1FF3148BFD358C9B22B
:1050A0002A1D02B0BDE870401847232002B070BD31
:1050B000E80B0020734200003C27030000687047A3
:1050C00010B5044606490068FCF70CFD2068054948
:1050D000FCF708FD20680449FCF704FD002010BD22
:1050E0008D240300872803008C28030030B5012994
:1050F00087B00546144621D9114910682BF0DBFA18
:10510000E0B98DF8100002A96068FCF7EFFA1728E3
:1051100004D108226946606818F08CFB40B92B68FE
:10512000D3F884009DF8103023B102A900F0C7FD28
:1051300007B030BD694600F0BDFDF9E70720F7E78D
:10514000DE2803000160704730B50C4685B04B88FF
:105150000A88097C0291E18849BA89B20191A18843
:1051600049BA89B200915BBA52BA9BB2054692B273
:105170002D490068FCF722FC637C580703D52B49B6
:105180002868FCF71BFC637C190703D528492868AD
:10519000FCF714FC637CDA0603D526492868FCF783
:1051A0000DFC637C9B0603D523492868FCF706FCAD
:1051B000637C580603D521492868FCF7FFFB637C14
:1051C000DB0903D01E492868FCF7F8FBA37CD9074C
:1051D00003D51C492868FCF7F1FBA37C9A0703D58B
:1051E00019492868FCF7EAFBA37C5B0703D517493C
:1051F0002868FCF7E3FB637C286843F301035BB298
:10520000002B0DD00EDC013302D11149FCF7D6FB87
:10521000A28A1049286805B0BDE83040FCF762BC9E
:105220000D49F3E70D49F1E7992803000E14030037
:10523000972803002D150300BA1E03003C28030025
:10524000ED230300C8280300F3250300D43B03002B
:10525000AB28030034150300B0280300B528030071
:1052600030B50C4685B04B880A88097C0291E188EC
:1052700049BA89B20191A18849BA89B200915BBA51
:1052800052BA9BB2054692B211490068FCF796FBF0
:10529000237D5B0703D50F492868FCF78FFB237D2F
:1052A000286843F301035BB2002B0DD00EDC013301
:1052B00002D10949FCF782FB628A0849286805B0D7
:1052C000BDE83040FCF70EBC0549F3E70549F1E7BE
:1052D00099280300E41E0300AC28030034150300E2
:1052E000B1280300B628030038B50C4605464A68C5
:1052F00000681249FCF762FB227A286804F1090170
:10530000FCF76AFB0E492868FCF758FB94F8072164
:10531000286804F58471FCF75FFB94F80631DB071D
:1053200003D508492868FCF749FBB4F8002228682F
:105330000549BDE83840FCF7D5BB00BFC3280300D2
:10534000591C0300C72803003415030010B588B0AA
:1053500004460023094900680193FCF7C3FB236856
:1053600002AA01A9D3F8840000F089FC20B902A99F
:105370002046FFF7E9FEF2E708B010BDCA28030097
:1053800010B588B004460023094900680193FCF772
:10539000A9FB236802AA01A9D3F8840000F078FCD5
:1053A00020B902A92046FFF75BFFF2E708B010BD65
:1053B000BB28030010B5ADF5027D044600230A4961
:1053C00000680093FCF78EFB236801AA6946D3F8B6
:1053D000840000F066FC20B901A92046FFF784FF95
:1053E000F2E70DF5027D10BDD428030030B5044668
:1053F000C3B00068FF238DF8073002AA0DF1070340
:105400000021D0F8840000F02FFC054648B902A91D
:1054100020689DF80720FCF7DFFA03492068FCF7B5
:1054200061FB284643B030BD6213030038B5054622
:105430000C4649B9FFF78AFF2846FFF7A1FF284627
:10544000FFF7B8FF204638BD054910682BF033F947
:1054500020B92846BDE83840FFF7C8BF0720F2E76B
:105460005C26030073B5064615460C4629B90A4664
:10547000FFF726FE232002B070BD0E4B00930322DF
:105480000C230D49286818F07DF803460028F1D058
:1054900081685B684A10C90706EB020048BFB25832
:1054A00004F1FF3148BFD358C9B22A1D02B0BDE88C
:1054B00070401847BD500000E428030000687047A2
:1054C00070B5064E05460024A15928680C34FCF737
:1054D00009FB542CF8D1002070BD00BF1C2903002B
:1054E000036800F10801D3F8840000F085BE0000D5
:1054F00003460068034AD0F8840003F1080100F075
:1055000076BE00BF8958000038B505460C4659B92B
:1055100001790E4A0E4B0068002914BF1146194646
:10552000FCF7E0FA204638BD14680A4920462BF003
:10553000C2F810B901232B71F5E7074920462BF07B
:10554000BAF808B92871EEE72320ECE73020030011
:1055500038200300412003004820030030B5022911
:1055600087B00446154613D101A9106800F05CFA13
:1055700060B905A9686818F0D9F838B9236801AA94
:1055800004F10801D3F8840000F03BFE07B030BD01
:105590000720FBE730B5022987B00446154613D132
:1055A00001A9106800F040FA60B905A9686818F010
:1055B000BDF838B9236801AA04F10801D3F88400C2
:1055C00000F024FE07B030BD0720FBE710B5012333
:1055D0000446016003713422002108302AF07DFC6A
:1055E000204610BD2DE9F34102AD302305F8013D01
:1055F0000E46174600244FF06108BC4219D0012224
:105600002946304600F0CDFAA0B99DF807300133A5
:10561000DBB25B2B07D07B2B09D03A2B08BF412391
:105620008DF8073001E08DF807800134E5E730237D
:10563000F6E7002002B0BDE8F08100002DE9F0415E
:105640009AB00025012388468DF80130064603797B
:105650008DF80030174629462C2202A8ADF80450D8
:105660002AF03BFC08F1FF33032B00F29B80B8F1DA
:10567000020F14D906A9386800F0D6F904460028AC
:1056800048D10DF12A01786818F050F80446002836
:1056900040D10225B8F1040F02D0002413E0F9D163
:1056A0002B461BB2013557F8234040492046EDB246
:1056B0002BF001F890BB01A957F8250018F036F837
:1056C000044638BB012433686946D3F8840000F0EF
:1056D00080FD8046002867D0012C2DD0022C2DB2F1
:1056E00031D057F8254020462AF0F7FF214682B2F4
:1056F000404600F056FA044600284DD1306802AB0F
:10570000424606F10801D0F8840000F084FD04460A
:10571000002841D120461AB0BDE8F0812449204636
:105720002AF0C9FF0028B8D157F825002AF0D5FF84
:105730000224ADF80400C6E70146BDF80420304657
:10574000FFF750FFD7E757F825503227BDF8043050
:10575000002BD3D001230DAA0DF106012846ADF888
:10576000067018F028F80446B0B9BDF80620BAB1A2
:10577000BDF804105300C8079BB244BF03F1FF33C8
:105780009BB21D444046CB1A0DA9ADF8043000F081
:1057900008FA04460028D9D0404600F0FAF9B9E7E3
:1057A0000724F9E70724B5E70324B3E70829030032
:1057B0005C26030073B5064615460C4629B90A4611
:1057C000FFF77EFE072002B070BD0F4B009307224B
:1057D0000C230E49286817F0D5FE034688B181686E
:1057E0005B684A10C90706EB020048BFB25804F1D3
:1057F000FF3148BFD358C9B22A1D02B0BDE870407E
:1058000018472320DFE700BFBD5400001C29030018
:105810002DE9F0410446ADF5BC6D076808460D461C
:10582000164600F0B8F98046284600F0B8F913494A
:10583000A8EB00023846FCF7C1F806F11001206819
:10584000FCF7E0F8728C0E492068FCF7B7F82846A0
:1058500000F0A5F901AE3246014640F2DB5328467E
:1058600000F0A1F900233354324606492068FCF7C2
:1058700039F90DF5BC6DBDE8F08100BF0B290300BF
:10588000D91E030042140300FFF7C2BF01B9FEE7AF
:1058900000F5B540503004F07FB901B9FEE700F5DE
:1058A000B540503004F092B901B9FEE700F5B540BB
:1058B0004C3004F0CFBB01B9FEE700F5B5404C30E9
:1058C00004F0D4BB01B9FEE700F5B6401C3004F08B
:1058D00063B901B9FEE700F5B6401C3004F076B9B3
:1058E00001B9FEE700F5B640183004F0C8BF01B9B1
:1058F000FEE700F5B640183004F0CCBF00F5B54027
:105900004C3004F00DBE00F5B5404C3004F096BCB0
:1059100000F5B640183004F003BE00F5B64018306C
:1059200004F08CBC05F070BF00F5B5404C3005F0BC
:1059300073B800F5F840303006F0A6B800F5F8402E
:10594000303006F097B800F5B1400C3006F018BBC7
:1059500000F5B1400C3006F021BB00F0B7BC48F2B6
:10596000D013C05C704700F0C1BC00F09BBC00F0DD
:10597000E0BC0000004870479A29030000F5B240DF
:1059800008B5483019B116F04DFF002008BD16F0DB
:1059900071FFFAE747F6D033C05C704745F648130D
:1059A000C058704700F5B240483008F047B800F5DD
:1059B000B240483008F040B945F64C13C058704723
:1059C00000F5B240483007F0DBBF00F5B240483088
:1059D00008F0BCB845F65013C05C704745F650134C
:1059E000C154704713B5044601A800F015FD04F535
:1059F000B04001AA0021683006F05EFC02B010BD84
:105A000000F5B640703007F078BC00F5B640703055
:105A100007F08EBC00F5B640703007F099BC00F579
:105A2000B640703007F097BC0B460146184607F0A9
:105A300077BB45F60843C05C704738B545F6296327
:105A40000446C35C8BB900F5B84002F0EFF8054698
:105A500048B904F5B5404C3004F0C2F904F5B6403D
:105A6000183004F0CBFE284638BD0D25FBE700F5C5
:105A7000B8404230704738B5054601B9FEE745F6F3
:105A80002963C45C5CB900F5B8403C3003F0F4FC19
:105A900005F5BC4008300CF0AFFE204638BD0D20A7
:105AA000FCE7000001481CF011BB00BF500C0020B7
:105AB00045F60643C05A704738B545F62963054692
:105AC000C45C7CB900F5B84001F094FF05F5B54021
:105AD0004C3004F085F905F5B640183004F08EFE20
:105AE000204638BD0D20FCE700F5BB40683001F0D2
:105AF000FFBC00F5BB40683001F060BD45F63043A7
:105B0000C05C704745F63043C154704745F6314399
:105B1000C05C704745F63143C154704700F5B8404A
:105B20003C3003F0BDBC00F5B8404078C0F3C00085
:105B3000704710B547F6D033C45C2CB900F5B840B7
:105B400002F07CFF204610BD0D20FCE747F6D03365
:105B5000C35C3BB900F5B840027861F30002027003
:105B6000184670470D20704700F5B9403C3070472B
:105B700000F5B940882200213C302AF0AEB900F58A
:105B8000B84002F0BCB800F5B84002F0D9B8012026
:105B9000704700F06BBC408B704700F06BBC808B93
:105BA000704700F06CBD00F01EBDA02373B50B80E4
:105BB000054600F506600C4600F023FC05F5BA46E4
:105BC0004C366080A21D211D304600F0BBFF04F161
:105BD0000A0204F1080106F1100000F0ABFE04F126
:105BE0001A0204F1180106F1800000F0ABFF05F580
:105BF000B04004F10E0204F10C01743000F0A2FF79
:105C000005F5B24004F1120204F11001343000F045
:105C100091FE05F5BD4004F1160204F11401303087
:105C200000F088FE05F5B34004F11E0204F11C01EA
:105C30006C3000F07FFE05F5B4400DF1060201A9BD
:105C4000103000F077FEA38BBDF804201344A3832B
:105C5000BDF80620E38B1344E3830023238463848D
:105C6000A384E38402B070BD10B402B103B9FEE7AF
:105C700000F5F34070305DF8044B13F0A2BD29B17C
:105C800022B100F5F340703013F0E1BB07207047FC
:105C900029B122B100F5F340703013F0E7BB0720C3
:105CA000704729B122B100F5F340703013F0EDBB1D
:105CB0000720704700F5F340703014F025B900F567
:105CC000F340703014F030B915F006BF00F5F7401E
:105CD000083015F0EDBA00F5F740083015F0ECBAD1
:105CE00000F5F740083015F051BE10B50446FFF737
:105CF00036FE20B1201DBDE8104001F055B910BDA1
:105D000045F61873C058704700F5BC4008300FF0D6
:105D100029B800F5B8401030704773B545F62963CF
:105D20000546C45C0E46D4B900F5B84001F07EFECD
:105D30003146684613F04EF805F5BC406946083018
:105D40000EF028FB05F5B5404C3004F049F805F598
:105D5000B640183004F052FD204602B070BD0D2050
:105D6000FBE707B500F5BD40694603788DF80430C0
:105D700001A813F011F89DF8000003B05DF804FBD2
:105D800013B502AB044603F8041D6846194613F028
:105D900011F804F5BC409DF8001008300EF0FCFF2F
:105DA00002B010BD00F5B6407830704738B50446F3
:105DB00001B9FEE745F62963C35C8BB900F5B6402F
:105DC00078300AF09BFA054604F5B5404C3004F0F3
:105DD00007F804F5B640183004F010FD284638BD29
:105DE0000D25FBE700F5BE406C30704700F5BE4066
:105DF0005430704700F5BE403C30704700F5B84065
:105E00001830704738B545F629630446C35C83B93A
:105E100000F5B84001F0E2FD054604F5B5404C3010
:105E200003F0DEFF04F5B640183004F0E7FC284626
:105E300038BD0D25FBE745F68833C058704700F59F
:105E4000B64078300AF018BB45F6C033C0587047EA
:105E500045F6C033C150704700F5BC4008300CF027
:105E60007DBD00F5BC40002108300CF029BB02B11B
:105E700001B9FEE700F5BC407C3013F09BB845F655
:105E80002963C05C704738B50D4601B9FEE700F5DF
:105E9000BC44083420460CF079FB38B120460CF0A5
:105EA000E1FD03C885E80300002038BD1020FCE7B1
:105EB00000F5BC4008300CF00FBD70B506460C462E
:105EC00001B9FEE745F62963C35C022B3AD100F520
:105ED000BC45EB6A0B602B6B4B6045F64463C25AC2
:105EE0000A81C35A9B128B7245F65263C35CCB7214
:105EF00095F85330C3F383030B7345F64C63C35CCF
:105F00004B7395F85330C3F301038B731BF0CDFE35
:105F100045F63463F358C01A4FF47A73B0FBF3F0CC
:105F2000237CE07343F00103237495F8463003F0BB
:105F30000F03DA1F53425341227C63F34102227460
:105F4000002070BD0D20FCE700F5BC4010B5083006
:105F50000C4621B10021BDE810400EF0D7BD012153
:105F60000CF0D6FB204610BD0220704700F5BC4067
:105F700008300FF0B6BC10B586B006AC00F5F340A3
:105F800044F8041D0A990391099902910021019195
:105F90009DF8201000910830214609F03FFA06B024
:105FA00010BD00F5BE402830704700F5BE401222FB
:105FB0000021283029F091BF45F6FC73C05A704784
:105FC00000F5BF407C3009F003B900F5BC40083053
:105FD0000FF0C0BD00F5BC4008300FF021BB00F54C
:105FE000BC4008300FF028BB00F5BC40083010F072
:105FF000D7BB47F66313C05C704747F66313C154C1
:10600000704747F66413C058704747F66413C15091
:10601000704700F5F740543005F06CB808B500F54E
:10602000F740543005F0B5F8002008BD47F630338E
:10603000C058704747F63033C150704747F6601379
:10604000C05C704747F66013C154704747F6611350
:10605000C05C704747F66113C15470473E2903D8AE
:1060600000F5E84016F020B80720704745F6296390
:10607000C35C022B04D009D3042B07D8002070473F
:1060800000F5BC400321083010F066BC0D207047BD
:1060900000F5BC40083010F09BBA47F66213C05CB4
:1060A000704747F66213C154704747F67613C05CD9
:1060B000704700F5BC4008300FF0EEBB02B9FEE7B8
:1060C00000F5BF407C3009F093B802B9FEE700F557
:1060D000BF407C3009F0A6B830B51C4687B01546E5
:1060E00002B103B9FEE700F5BF407C3008F0EBFFDA
:1060F00080B3837E03F00F03012B02D0063B012BFC
:1061000028D82B88009000226846ADF806308DF81C
:10611000042016F069FDBDF80630052B02D91720C2
:1061200007B030BD684616F028FD00F1100350F8A6
:10613000042B44F8042B9842F9D1BDF80630684688
:106140000133ADF8063016F04FFDBDF806302B8058
:106150000020E5E70720E3E73E20704702B9FEE7AD
:1061600000F5E84016F0EDB802B101B9FEE700F520
:10617000F940243008F0D4B800F5B74054307047E7
:1061800038B545F629630546C45C84B900F5B640C8
:1061900078300AF031F805F5B5404C3003F020FEB8
:1061A00005F5B640183004F029FB204638BD0D2017
:1061B000FCE747F67813C056704700F5BC4008303E
:1061C00012F0BCBD00F5F24300F5F340D967026060
:1061D000704713B5044601A800F01EF904F5B1405C
:1061E00001AA0021143007F01BFF02B010BD00F51A
:1061F000B140143008F008B800F5B140143008F090
:1062000025B800F5B140143007F0B2BE00F5B1403A
:10621000143007F0EFBE00F5B140143007F036BF80
:1062200045F69C03C058704738B504460025043035
:1062300000F09FFEC4E9025504F1100017F04AF87F
:1062400004F5016001F02EF804F6110000F054FD91
:10625000214604F6140000F095FC214604F63C00AB
:1062600000F0B4FE214604F5056000F06FFD214604
:1062700004F5066000F074F804F5B040214668307B
:1062800005F0F4FF04F5B2402146483016F04CFA10
:1062900048F2D0132046E55438BD0000004870474E
:1062A000500C00201BF0B4BE10B548F2D0130122F0
:1062B0000446C25400F64C0000F04AFD04F5BC4010
:1062C0000830BDE810400CF039B8000010B548F2B5
:1062D000D013054CE35C2BB92046FFF7A5FF204601
:1062E000FFF7E2FF004810BD500C002038B548F21F
:1062F000D0130446C25CDAB10025C5542946FFF725
:1063000023FE29462046FFF739FB29462046FFF7A2
:106310001DFC04F64C0000F021FD04F5B8403C30B3
:1063200003F0D8F804F61100BDE8384000F08EBC48
:1063300038BD10B5044600F64C0000F011FD2046B3
:10634000BDE810401BF064BE24289ABF024B53F8EE
:1063500020000248704700BFD0290300642A0300D0
:10636000A023038000F5A04200234360083200F11F
:1063700008039A4204D04168196043608033F8E70B
:10638000704741B143680A680B600388416001337C
:1063900003801146F5E770474A681AB98B680BB954
:1063A000FFF7EFBFFEE70000F8B50B4E05460C46C1
:1063B00017462B88A3420ADA394630460BF095F986
:1063C0000028F6D02B88A34203DA0320F8BD002C66
:1063D000F8DA0020FAE700BF9C69002010B50A46F1
:1063E00001210446FFF7E0FF48B963682BB11A6842
:1063F00062602288013A22801860184610BD00238E
:10640000FBE70088704701F1FF3CDCF1000141EB44
:106410000C0101704270704729B10B78037021B1F3
:106420004B78437070470123F8E70123F9E7F8B58B
:1064300006460F4605465424BC422968F0680FD230
:1064400019B17C342D68A4B2F6E796F82B10C1F38D
:106450004101FFF7C3FF28600028F2D1032004E0C8
:1064600000242C60FFF78DFF2046F8BD0146C06870
:10647000FFF792BF038B70B5CD18ADB29D420446B5
:106480000E4627D3542D82BFA5F155017C2291FBE6
:10649000F2F1428B13449BB28CBF01310021542B8B
:1064A00005D9553B7C2293FBF2F30133C91A94F8CA
:1064B0002B20E068C2F34102FFF776FF48B9294676
:1064C0002046FFF7B4FF20B9A38B6683B34200D9FF
:1064D000A68370BD0720FCE7036801201BB10130D3
:1064E000C0B21B68FAE77047838B428B1944914214
:1064F00000DDFEE789B29142818300D9FEE7704753
:10650000438B8B4200D2FEE78183704790F82A309C
:10651000C3F3C3030A2B09D8012202FA03F340F2A2
:106520004E72134214BF01200020704700207047B4
:10653000438B8B4200D2FEE75B1A4383838B028B33
:106540008B420A4494BF0023591A02838CBF818373
:106550008383704730B5448BA1420BD300219980CF
:1065600011889888884288BF998011889B88CB1AA7
:10657000138030BD15880D44A542A4BF641A148051
:10658000048B9860214489B2532905D82C300844E3
:106590001860C1F15401E2E75439986800689860C6
:1065A00089B200B9FEE77B2905D804300844186099
:1065B000C1F17C01D3E77C39EFE70B880BB99380FD
:1065C000704793681B68936003B9FEE70433136058
:1065D0007C2393800B887B2B98BF93800B889288B9
:1065E0009B1A0B807047F0B587B01646ADF80630A1
:1065F0000DF1060203AB0746FFF7ACFF3446BDF8CA
:10660000105065B12A460399204629F042FC03AA9E
:106610000DF1060138462C44FFF7CFFFEFE7A01B32
:1066200080B207B0F0BD10B51C46FFF7DCFFA042FA
:1066300014BF0620002010BD30B587B01446428B31
:10664000ADF806300B449342054600DDFEE703AB90
:106650000DF10602FFF77EFFBDF810206AB121465A
:10666000039829F021FCBDF8103003AA0DF10601B2
:1066700028461C44FFF7A1FFEEE707B030BD2DE927
:10668000F041468B8846B11889B205461746FFF798
:10669000F1FE044628B93B46424631462846FFF7FC
:1066A000CBFF2046BDE8F081F8B504460D461646FE
:1066B00000F12C07238B9E4218D994F82B10E06828
:1066C000C1F34101FFF78AFE30B323680360238BD7
:1066D0002060532B06D82C30C3F15402F91818440B
:1066E00029F0D7FB238B7C332383E3E7618BA28BD9
:1066F0003144324489B292B29B1B9142238361831D
:1067000000D2FEE7A2834DB1204633462A4600213F
:10671000FFF792FF0020F8BD0320FCE72846FAE7C8
:10672000F0B587B006460C9FADF806308742144698
:1067300002D1914200D2FEE703AB0DF106023046D2
:10674000FFF708FF0025BDF810308BB1039A2146F2
:106750003846FFF771FFBDF8103003AA1C441D44F2
:106760000DF106013046A4B2ADB2FFF726FFEAE70D
:10677000284607B0F0BD1F2900D9FEE700EBD10085
:10678000802390F8202001F0070143FA01F10A422A
:1067900014BF0120002070471F2900D9FEE700EB3D
:1067A000D100802301F007010B4190F8201021EA6D
:1067B000030180F8201070471F2900D9FEE700EB85
:1067C000D10001F007038021194190F820301943CE
:1067D00080F82010704700F120032430834205D058
:1067E00013F8012B002AF9D00120704700207047D0
:1067F0004A7990F82B3062F3000380F82B300B8835
:10680000038591F903101E3009F0A2BE00207047E5
:10681000002202607047006800B1406870470B6951
:1068200010B503B1FEE74B6873B98C6864B991F891
:106830002B30086164F3C30381F82B30036823B95C
:10684000C1E90111016009E0FEE75B684B60046883
:106850008C6099600368012A5960F3D010BD91F8EB
:106860002B301B0754BF0B690023984200D0FEE772
:106870004B68D3B18B68C3B10268914204D18B429B
:10688000036004BF00230360D1E901235A60D1E90A
:1068900001329A6091F82B20002363F3C302C1E90F
:1068A00001330B6181F82B207047FEE7034600F1AE
:1068B000100100228B4202D043F8042BFAE7704704
:1068C0000B4650F8232032B9032B1ABF0133DBB239
:1068D00013469942F5D11046704708B50021FFF7DD
:1068E000EFFF00B1406808BD08B550F821304BB14A
:1068F00003291ABF0131C9B20021FFF7E1FF00B936
:10690000FEE74368184608BD0021FFF7D9BF10B560
:106910000446006994F82B301B0707D528B1FFF710
:10692000F3FFA04214BF6068002010BD0028FCD017
:106930000068F6E738B500230B8013800D46144637
:10694000FFF769FF024658B12B8801332B80FFF710
:10695000C3FD2388184420801046FFF7D8FFF1E7D5
:1069600038BD0B6970B506460C4603B1FEE72061E1
:1069700091F82B5045F0080581F82B50C5F34105DF
:106980002946FFF79DFF38B14368C4E901309C6098
:10699000446046F8254070BDC4E90144F9E791F828
:1069A0002B30C3F3C00210B502B10A69904200D087
:1069B000FEE7C3F341038A6850F82340A1420AD19D
:1069C000914219D092F82B40C4F341049C4218BF65
:1069D000002240F82320D1E901329A60D1E9012355
:1069E0005A6091F82B20002363F3C302C1E90133FD
:1069F0000B6181F82B2010BD0022EAE7032970B556
:106A000004460D461ED806693EB994F82B3065F34E
:106A1000420384F82B30002015E090F82B30C3F3AC
:106A200041028A42F7D01B07EFD501463046FFF7F7
:106A3000B6FF94F82B3065F3420384F82B30FFF750
:106A400090FFE8E7072070BD2DE9F0418846194620
:106A5000054617461E46FFF7C1FC0446E0B18022FA
:106A6000002129F03AFA94F82A30E56068F302032D
:106A700084F82A3094F82B30278343F00103314601
:106A800084F82B302046FFF7B9FF014638B1214684
:106A90002846FFF781FC00242046BDE8F08120460F
:106AA000FFF7E8FC0028F7D0F1E710B51C465B784B
:106AB000FFF7CAFF30B190F82B30227862F3000361
:106AC00080F82B3010BD73B590F82B30028B0E463A
:106AD00090F82A100546C3F3410301F00701C0688E
