:1010000000000420DD6A0200056B0200076B02008D
:10101000096B02000B6B02000D6B02000000000068
:101020000000000000000000000000000F6B020044
:10103000116B020000000000136B0200156B020030
:101040009569020025180200176B0200C57802009E
:10105000176B0200176B0200176B0200176B020080
:10106000176B0200176B0200176B0200176B020070
:10107000176B0200A5F40100176B0200176B02004A
:10108000176B0200176B0200176B0200176B020050
:10109000176B0200176B0200176B0200176B020040
:1010A000176B0200176B0200176B0200176B020030
:1010B000176B0200176B0200000000000000000028
:1010C000176B0200176B0200176B0200176B020010
:1010D00029ED0100176B0200176B0200F9450200B1
:1010E000176B0200176B02007595020000000000EC
:1010F00000000000176B020000000000176B0200E8
:1011000000000000000000000000000000000000DF
:1011100000000000000000000000000000000000CF
:1011200000000000000000000000000000000000BF
:1011300000000000000000000000000000000000AF
:10114000000000000000000000000000000000009F
:10115000000000000000000000000000000000008F
:10116000000000000000000000000000000000007F
:10117000000000000000000000000000000000006F
:10118000000000000000000000000000000000005F
:10119000000000000000000000000000000000004F
:1011A000000000000000000000000000000000003F
:1011B000000000000000000000000000000000002F
:1011C000000000000000000000000000000000001F
:1011D000000000000000000000000000000000000F
:1011E00000000000000000000000000000000000FF
:1011F00000000000000000000000000000000000EF
:1012000010B5054C237833B9044B13B10448AFF340
:1012100000800123237010BD500200200000000058
:101220009C04030008B5034B1BB103490348AFF30B
:10123000008008BD00000000540200209C04030050
:10124000154B002B08BF134B9D46A3F5803A002198
:101250008B460F461348144A121A29F01EFE0F4BF4
:10126000002B00D098470E4B002B00D09847002051
:10127000002104000D000D48002802D00C48AFF3F7
:10128000008029F095FD2000290000F015F829F0D4
:1012900069FD00BF000008000000042000000000FD
:1012A0000000000050020020D09900200000000043
:1012B000000000007047000070B505460E4631463C
:1012C00028461EF0A7F903F003FB044628B90C4B8F
:1012D0000C4A0D48672129F027FD00F05FF82046F1
:1012E00029F0CFF81EF0C0F918B1204603F0F6FA45
:1012F000E5E7204603F066FC20461EF0BBF9F1E767
:10130000B1C50200ACC50200BAC502000EB410B5EA
:10131000A3B025AB044653F8042B0193802102A807
:101320002AF062FB02A82AF0ECF9236882B21B685B
:1013300002A92046984723B0BDE8104003B070478B
:10134000B0F80636B0F80826C3F580618A42CCBFF3
:10135000A0F80A16A0F80A26B0F80A1621B100F281
:10136000062018441EF0AEBA7047000010B50A4BB4
:101370000360044600F20C6000F078FA0023A4F841
:101380000432A4F80636A4F80836A4F80A361EF08B
:1013900091FA204610BD00BF08C6020010B5044CEB
:1013A00001462046FFF7E2FF024B1C6010BD00BF64
:1013B000700200206C02002010B5B0F80432013B2E
:1013C000C218044612790A2A01BFA0F8043210FAA2
:1013D00083F300221A71B0F80432013BC218011DD8
:1013E00012790D2A01BFA0F8043210FA83F300220B
:1013F0001A71B0F80422034600F20C6002F058FAA9
:101400000020A4F8040210BD2DE9F843294FDFF8AD
:10141000A880DFF8A89004460D468E18B54247D242
:101420002B780A2B19D014D8082B2DD0B4F80432FD
:10143000B3F5007F26D2236801221B682946204687
:101440009847B4F804325A1CA4F804222A7823449A
:101450002CE00D2B01D07F2BE7E7236802221B68CD
:10146000394620469847B4F804322BB12344002271
:101470001A712046FFF7A0FF236802221B6841462D
:10148000204698470135C9E7B4F80432002BF9D05B
:10149000236803221B68494620469847B4F8043263
:1014A000013B9BB2A4F80432002223441A71E9E7FD
:1014B000BDE8F883FEC50200FCC50200F9C50200C4
:1014C000024B0A4601461868FFF79EBF6C020020D7
:1014D000B0F80A360BB9FFF733BF704770B5B0F8F4
:1014E0000846C4F58064A4B2944228BF14460D4651
:1014F0006B1A9C420FDDB0F80826B0F8063615F8D6
:10150000016B1344C3F309030344013283F80662F9
:10151000A0F80826ECE7FFF7DBFF204670BDB0F827
:101520000A16B0F806260A44C2F30902A0F80626F5
:10153000B0F80826521AA0F808260022A0F80A26B9
:10154000FFF7FEBE014B1868FFF7E9BF6C020020F1
:101550002DE9F041104F114E054600244FF00C08C4
:10156000A86808FB04F20368D2595B68314601346D
:101570009847362CF4D1094E00242B79A34209D97F
:10158000A8682A68036852F834205B683146984797
:101590000134F2E7BDE8F081F8CF02008AD2020000
:1015A000D0F8F40003F0A1B9D0F8F40003F098B932
:1015B00070B585682B680446D0F8F4005E6803F0C7
:1015C000D9FB054902462846B047A068034903688D
:1015D000BDE870405B681847A6C70200A2C80200B9
:1015E00010B5C0B00446002308468DF8FF30114600
:1015F000FF236A4628F047FFA068034903686A464C
:101600005B68984740B010BDF502030070B5846870
:10161000236808460D465E6803F0C0FD2A4603466F
:10162000B44620460149BDE87040604780D20200C0
:1016300070B5044659B98068694903685B68984782
:10164000A06868490368BDE870405B681847664950
:1016500010682AF044F8002840F0C180D4F8F40063
:1016600003F014FA0546A0682A6803685F495B68BE
:101670009847A0686A6803685D495B689847A068F6
:10168000AA6803685B495B689847A068EA680368D2
:1016900059495B689847A0682A69036857495B689D
:1016A0009847A0686A69036855495B689847A068CD
:1016B000AA69036853495B689847A068EA690368A8
:1016C00051495B689847A0682A6A03684F495B687C
:1016D0009847A0686A6A03684D495B689847A068A4
:1016E000AA6A03684B495B689847A068EA6A03687E
:1016F00049495B689847A0682A6B036847495B685B
:101700009847A068AA6B036845495B689847A0683A
:10171000EA6B036843495B689847A0682A6C0368D2
:1017200041495B689847A0686A6C03683F495B68F9
:101730009847A068AA6C03683D495B689847A06811
:10174000EA6C03683B495B689847A0682A6D0368A8
:1017500039495B689847A0686A6D036837495B68D8
:101760009847A068AA6D036835495B689847A068E8
:10177000EA6D036833495B689847A0682A6E03687E
:1017800031495B689847A0686A6E03682F495B68B7
:101790009847A068AA6E03682D495B689847A068BF
:1017A000EA6E03682B495B689847A0682A6F036854
:1017B00029495B689847A0686A6F036827495B6896
:1017C0009847A068AA6F036825495B689847A06896
:1017D000EA6F036823495B68BDE87040184770BD35
:1017E0008EC90200A2C8020094C9020098C9020072
:1017F000A6C90200BAC90200D0C90200E9C90200A4
:10180000FBC9020016CA020027CA02003CCA020035
:101810004FCA020069CA02007BCA02008DCA0200D8
:10182000A0CA0200BBCA0200C9CA0200DDCA020087
:10183000F3CA020004CB020019CB02002CCB020039
:1018400046CB020058CB020074CB020091CB0200C1
:10185000A8CB0200BFCB0200E0CB0200FECB02000F
:1018600011CC020024CC020000BA704770B50025EC
:1018700004460E4605600571856029462C220C3011
:1018800029F00BFB164A4FF47A73C4E90E23154B6B
:10189000C4E9103504F14003A364214604F1B80003
:1018A00002F03AFF2946C4F8F460602204F14C00CB
:1018B00029F0F3FA22460C49304603F013F8224689
:1018C000D4F8F400094903F094FA094BD4F8F40071
:1018D000C4E92B3404F1AC0102F0F2FF204670BDE4
:1018E0000800010071360000E9390000593A000093
:1018F0004D3500002DE9F041074690460C4629F091
:1019000000FF3D1800F001060130B8EB500F12D374
:10191000384621460022854221D910F8013BA3F127
:101920004107052F0BD8373B1343DBB29EB10B7039
:1019300000260131EEE74FF0FF30BDE8F081A3F162
:101940006107052F01D8573BEEE7303BDBB2092B8F
:10195000F1D81343EAE71B01DAB20126DBE7081BE3
:10196000EBE7000021B98068024903685B6818470B
:10197000FFF74CBEA2C8020070B505460E46A9B9D5
:10198000D0F8F40003F058FA0446A86803685B68CE
:1019900044B111499847304601462846BDE8704099
:1019A000FFF7E0BF0D4998472046F5E714680C495A
:1019B000204629F094FE28B90121D5F8F40003F05F
:1019C0004FFAE9E70749204629F089FE0146002839
:1019D000F3D00720E0E700BFEDCD0200F7CD020015
:1019E00002CE020009CE020030B504468BB0694633
:1019F000D0F8F40003F087F8A068BDF80020036871
:101A000030495B689847A068BDF8022003682E49FA
:101A10005B689847A068BDF8042003682B495D689F
:101A2000BDF80630A847A068BDF80820036828491B
:101A30005D68BDF80A30A847A068BDF80C200368AF
:101A400024495D68BDF80E30A847A068BDF8102095
:101A5000036821495D68BDF81230A847A068BDF849
:101A6000142003681D495D68BDF81630A847A068BA
:101A7000BDF8182003681A495D68BDF81A30A847F8
:101A8000A068BDF81C20036816495D68BDF81E30CB
:101A9000A847A068BDF82020036813495D68BDF819
:101AA0002230A847A068BDF8242003680F495D686C
:101AB000BDF82630A84700212046FFF753FF0BB0A2
:101AC00030BD00BF68CE020074CE02007FCE02009F
:101AD00091CE0200A3CE0200B0CE0200BDCE020025
:101AE000CACE0200F8CE0200D7CE0200ECCE020031
:101AF00010B504468368D0F8F40002F027FD0146D3
:101B00002046BDE81040FFF72DBF0000F0B5234E82
:101B10008FB00446002509AAE9B2D4F8F40003F016
:101B20003DFA002833D19DF83730DB072DD5A0686A
:101B3000BDF8341007680691BDF83210BDF82630A4
:101B4000BDF8242049BA89B20591BDF8301049BAD0
:101B500089B20491BDF82E1049BA89B20391BDF83B
:101B60002C1049BA89B20291BDF82A1049BA89B23B
:101B70000191BDF8281049BA89B200915BBA52BAF6
:101B80007F689BB292B23146B8470135C3E7002166
:101B90002046FFF7E7FE0FB0F0BD00BFEBCC020020
:101BA00070B505460E46A9B9D0F8F40002F0ABFEB8
:101BB0000446A86803685B6844B1114998473046F9
:101BC00001462846BDE87040FFF7CCBE0D49984756
:101BD0002046F5E714680C49204629F080FD28B915
:101BE0000121D5F8F40002F087FEE9E70749204615
:101BF00029F075FD01460028F3D00720E0E700BF7B
:101C00000ACD02000FCD020016CD020019CD020050
:101C100037B504466946D0F8F40003F0A4F8054649
:101C200008BBA068009A036812495B689847A068DF
:101C30009DF80420036810495B689847A0689DF8E8
:101C4000052003680D495B689847A0689DF8062049
:101C500003680B495B689847A0689DF807200368F4
:101C600008495B68984729462046FFF77BFE03B08A
:101C700030BD00BF06CF020019CF020030CF0200F6
:101C800029CF020043CF0200F0B5134685B00446C9
:101C9000D9B9D0F8F400154F03F087F9461E00F1CA
:101CA0000F05A06816F8012F036839465B6898474E
:101CB000B542F6D1A0680E4903685B6898470021D9
:101CC0002046FFF74FFE05B0F0BD102269461868A8
:101CD000FFF710FE102806D16946D4F8F40003F08F
:101CE00068F90146ECE70621EAE700BFA1C6020059
:101CF0002DC60200F7B5002304468DF804300029F4
:101D000033D1D0F8F40002F09AFF8DF80400C00738
:101D100004D5A068444903685B6898479DF804307F
:101D2000990704D5A068414903685B6898479DF806
:101D300004305A0704D5A0683D4903685B6898479A
:101D40009DF804301B0704D5A0683A4903685B6816
:101D50009847A068384903685B6898470021204687
:101D600003B0BDE8F040FFF7FDBD15689E46013D9C
:101D700019461E4618461F469C4615F8012F6AB3A1
:101D80006E2A25D01AD8642A1FD0BCF1000F05D0C6
:101D90009DF8043043F001038DF8043028B19DF81C
:101DA000043067F341038DF8043029B19DF8043005
:101DB00066F382038DF804300621D0E7722A0AD038
:101DC000732AE2D101200746D7E701210E46D4E766
:101DD00001239E46D1E74FF0010CCEE7BCF1000F86
:101DE00005D09DF8042042F001028DF8042028B1AE
:101DF0009DF8042067F341028DF8042029B19DF875
:101E0000042066F382028DF804202BB19DF8043083
:101E10006EF3C3038DF804309DF80410D4F8F40079
:101E200002F034FF01469AE727E1020022E10200B6
:101E30005BCE020035DE02002DC602002DE9F04F18
:101E400000238BB099420446ADF802300BDD1568D3
:101E50004E49284629F043FC064630B14C492846F5
:101E600029F03DFC58B1072189E0A0684949036881
:101E70005B689847A068484903685B689847DFF843
:101E80003881DFF83891DFF838A1D4F8F40001AFD9
:101E90003A460DF1020102F05BFFA3681A680028C0
:101EA00068D15568002E5FD19DF82420DFF814B169
:101EB00012F0100F0CBF5222432249461846A84781
:101EC000A068BDF81020036851465B689847A06879
:101ED000039A036831495B689847A0689DF91D2003
:101EE00003682F495B689847A0689DF91E20036826
:101EF0002C495B689847A0689DF8242003682A490C
:101F00005B6802F001029847A0689DF824200368EE
:101F100025495B68C2F340029847A0689DF82420D9
:101F2000036821495B68C2F380029847A0689DF866
:101F3000242003681C495B68C2F3C0029847A0686C
:101F40001A4903685B6898473546A0687A5D03685C
:101F500059465B6801359847082DF6D1A0681449A9
:101F600003685B68984790E7BDF810204146184623
:101F7000A8478AE70F495268184690470021204633
:101F8000FFF7F0FC0BB0BDE8F08F00BF1ECD0200E4
:101F900024CD020029CD020075CD0200D3CD020070
:101FA000DACD0200E1CD0200E8CD0200AFCF0200A1
:101FB000F7C802002DC60200CBCD0200C1CD020041
:101FC000C9CD0200A1C602002DE9F04186B001AFE3
:101FD00004463946D0F8F40002F0D0FE0646002848
:101FE00031D1A0681B490368DFF880805B6898479F
:101FF0003546A0687A5D036841465B6801359847BD
:10200000082DF6D1A068144903685B689847A0685A
:10201000BDF80C20036811495B689847A0689DF8DB
:10202000112003680E495B689847A0689DF812204C
:1020300003680C495B689847A0689DF81320036803
:1020400009495B68984731462046FFF78BFC06B08C
:10205000BDE8F08155C802002DC6020060C802002C
:102060006BC8020081C8020098C80200A1C6020025
:1020700038B50446D1B9D0F8F40002F0EBFC80B1D9
:10208000D4F8F4001CF0F8FF58B1A06818490368B0
:102090005B689847002001462046BDE83840FFF7BE
:1020A00061BCA068134903685B68F2E715681249D0
:1020B000284629F014FB58B91049D4F8F4002246F8
:1020C00002F0C4FC0121D4F8F40002F0C8FCE2E7FD
:1020D00028460B4929F003FB054638B9014602465C
:1020E000D4F8F40002F0B2FC2946ECE70720D2E76E
:1020F000EDCD0200F7CD020002CE0200A9370000AC
:1021000009CE020070B505460E46A1B9D0F8F4001C
:1021100002F0C7FE0446A86803685B6844B1114931
:102120009847344621462846BDE87040FFF71ABC60
:102130000D499847F6E716680C49304629F0CFFA62
:10214000044628B90121D5F8F40002F0AEFEE9E713
:102150000749304629F0C3FA044608B90146F2E7B8
:102160000724DFE7EDCD0200F7CD020002CE02002A
:1021700009CE020010B50446D0F8F40002F07CFE4F
:10218000A3681A68526840B105491846904720462E
:102190000021BDE81040FFF7E5BB0249F5E700BFAD
:1021A00011CE020018CE020038B5044600292BD10A
:1021B000D0F8F40002F0D4FDA368042820D8DFE8AA
:1021C00000F0030F13171B001A68254952681846C0
:1021D0009047002001462046BDE83840FFF7C2BBCB
:1021E0001A6820495268F2E71A681F495268EEE7F8
:1021F0001A681E495268EAE71A681D495268E6E7FC
:102200001A681C495268E2E715681B49284629F0FC
:1022100066FA20B9D4F8F40002F091FDDAE7174924
:10222000284629F05CFA20B9D4F8F40002F08BFDBE
:10223000D0E71349284629F052FA20B9D4F8F4001F
:1022400002F070FEC6E70F49284629F048FA20B987
:10225000D4F8F40002F076FEBCE70720BAE700BF2E
:10226000DCC70200E7C70200F2C70200FAC702009B
:1022700003C802000CC802001CC80200F0E0020003
:1022800025C802002CC80200002938B5044617DD15
:1022900015680C49284629F022FA50B90121D4F8D2
:1022A000F40002F0B5FD01462046BDE83840FFF7D6
:1022B00059BB0549284629F012FA01460028EED0FC
:1022C0000720F0E798D2020089C9020010B5044641
:1022D000B83002F02BFA01462046BDE81040FFF767
:1022E00041BB0000F0B5134685B00446D9B9D0F81B
:1022F000F400154F02F0E0FC461E00F10F05A06847
:1023000016F8012F036839465B689847B542F6D145
:10231000A0680E4903685B68984700212046FFF7D4
:1023200021FB05B0F0BD102269461868FFF7E2FAFC
:10233000102806D16946D4F8F40002F0C1FC014629
:10234000ECE70621EAE700BFA1C602002DC60200A5
:10235000F8B505460C46D0F8F40079B902F0C9FC8E
:10236000AE680949336810225F6803463046B847B3
:1023700021462846BDE8F840FFF7F4BA116802F09C
:10238000BBFC0146F5E700BF6CCF020038B5044640
:1023900002F0AEFAA36806491A6855680246184664
:1023A000A84720460021BDE83840FFF7DBBA00BF50
:1023B0008AD202002DE9F041084E07460D469046AC
:1023C0000C46631B984507DDB86814F8012B0368B9
:1023D00031465B689847F4E7BDE8F081A1C602008A
:1023E00037B505460C46A1B96946D0F8F40002F0AD
:1023F0000AFB082269462846FFF7DCFFA868064961
:1024000003685B68984721462846FFF7ABFA03B09C
:1024100030BD0721F8E700BF2DC6020037B51346CF
:1024200005460C4699B9D0F8F40002F0D5FA082216
:1024300001462846FFF7BEFFA8680D4903685B68A0
:10244000984721462846FFF78DFA03B030BD082291
:1024500069461868FFF74EFA002801DA0621F1E70D
:102460006946D5F8F40002F0BAFA0146EAE700BF7F
:102470002DC6020037B5134605460C4699B9D0F86B
:10248000F40002F0B2FB082201462846FFF792FF53
:10249000A8680D4903685B68984721462846FFF7FE
:1024A00061FA03B030BD082269461868FFF722FAC6
:1024B000002801DA0621F1E76946D5F8F40002F0B8
:1024C00097FB0146EAE700BF2DC6020013B50022C4
:1024D0000C4601A929F0B6F9019B20601B78002B5E
:1024E00014BF0620002002B010BD0000F7B505465D
:1024F0000C4689B98668D0F8F40033685F6802F04A
:1025000051FA0C4902463046B84720460146284653
:10251000FFF728FA03B0F0BD01A91068FFF7D6FF56
:102520000028F3D19DF80410D5F8F40002F03DFA2C
:10253000ECE700BF9BC702002DE9F04F00298BB0EC
:10254000044640F3318115689849284629F0C7F8B8
:102550000746002800F08F809549284629F0BFF8EB
:10256000002800F09280284601A9FFF7AFFF05463A
:10257000002840F0128102AF3A46BDF80410D4F8AA
:10258000F40002F0F3FC0546002840F00681A06844
:10259000BDF81A20036887495B68DFF8788298479E
:1025A000A068BDF81820036883495B689847A06855
:1025B000824903685B6898472E46A068BA5D036845
:1025C00041465B6801369847082EF6D1A0687C49E1
:1025D00003685B689847A0687A4903685B68984716
:1025E0009DF82430D80704D5A068774903685B6854
:1025F00098479DF82430990704D5A068734903686B
:102600005B6898479DF824305A0704D5A068704944
:1026100003685B6898479DF824301B0704D5A068C1
:102620006C4903685B689847A068654903685B6804
:102630009847A0689DF81C20036867495B68984725
:10264000A068049A036865495B689847A068059A82
:10265000036863495B689847A0689DF81D2003687C
:1026600060495B689847A0689DF91E2003685E4931
:102670005B68984791E0A0685C4903685B6898478D
:10268000A0685B4903685B689847D4F8F400DFF8FA
:1026900088A102F0FFFB00268146F1B2494576D2BF
:1026A0000DF108084246D4F8F40002F066FC002858
:1026B00068D19DF82430DD0664D4A068BDF81A20E6
:1026C00003685B68002F5FD14A49DFF848B198473B
:1026D000A068BDF81820036851465B689847A06859
:1026E000049A036844495B689847A068059A0368A0
:1026F00041495B689847A0689DF81D2003683F49E1
:102700005B689847A0689DF81C2003683C495B689B
:102710009847A0689DF8242003683A495B6802F056
:1027200001029847A0689DF82420036835495B683A
:10273000C2F340029847A0689DF8242003683149FD
:102740005B68C2F380029847A0689DF82420036864
:102750002C495B68C2F3C0029847A0682A49036805
:102760005B6898473D46A06818F8052003685946FD
:102770005B6801359847082DF5D1A06823490368A7
:102780005B689847013688E721499847FAE7A068CF
:102790000B4903685B689847002529462046FFF7E8
:1027A000E1F80BB0BDE8F08F0725F6E71ECD02007B
:1027B00024CD020091C70200A0C7020055C8020044
:1027C0002DC60200ADC7020027E1020022E102008F
:1027D0005BCE020035DE0200B4C70200C3C70200B0
:1027E00098C802006BC80200D1C70200CDC6020023
:1027F00024C70200D3CD02007BC7020083C70200BA
:102800008AC70200E8CD0200AFCF0200F7C802007D
:10281000AAD60200A1C60200C9CD0200F7B505463E
:102820000C4689B98668D0F8F40033685F6802F016
:1028300031FB0C4902463046B8472046014628463F
:10284000FFF790F803B0F0BD01A91068FFF73EFE56
:102850000028F3D19DF80410D5F8F40002F01DFB18
:10286000ECE700BF9BC70200F7B505460C4681B9EF
:102870008668D0F8F40033685F6802F0AFF90B495E
:1028800002463046B84721462846FFF76BF803B0AA
:10289000F0BD01A91068FFF719FE04460028F2D127
:1028A0000199D5F8F40002F09CF9ECE79BC702000F
:1028B00073B5044681B98568D0F8F4002B685E686A
:1028C00002F011FB0A4902462846B0470021204683
:1028D000FFF748F802B070BD01A91068FFF7F6FDD8
:1028E0000028F3D10199D4F8F40002F001FBEDE7E0
:1028F0009BC7020010B5002986B004461FDD05A95C
:102900001068FFF7E3FDE0B9059B012199400F4BEB
:1029100001930023029400934FF6FF72D4F8F40061
:1029200002F0AEFA68B9A068094903685B68984785
:10293000A068084903685B68984706B010BD00218D
:10294000E5E701462046FFF70DF8F6E76D38000091
:1029500039CC020092CC02004B1E012B2DE9F34131
:1029600005460F46164644D8D2F800802249404614
:1029700028F0B5FE0446F8B9012F0BD1AE68D5F8A2
:10298000F40033685F6802F0CDF902461B49304617
:10299000B8470AE001A97068FFF798FD044620B91E
:1029A0000199D5F8F40002F0C0F921462846FEF757
:1029B000D9FF02B0BDE8F0811149404628F08FFEF2
:1029C0000446B0B9012F07D1AE68D5F8F4003368DA
:1029D0005F6802F0AEF9D8E701A97068FFF776FDED
:1029E00004460028E1D10199D5F8F40002F0A4F9D9
:1029F000DBE70724D9E700BF5ACF02009BC70200DC
:102A000062CF0200F7B505460C4681B98668D0F85A
:102A1000F40033685F6802F04CFA0C490246304615
:102A2000B84721462846FEF79DFF03B0F0BD01A937
:102A30001068FFF74BFD04460028F2D19DF8041002
:102A4000D5F8F40002F039FAEBE700BF9BC70200AB
:102A5000F7B505460C4681B98668D0F8F4003368AE
:102A60005F6802F04AFA0C4902463046B8472146F0
:102A70002846FEF777FF03B0F0BD01A91068FFF705
:102A800025FD04460028F2D19DF80410D5F8F40085
:102A900002F037FAEBE700BF9BC70200F7B5054627
:102AA0000C4689B98668D0F8F40033685F6801F095
:102AB000ACFF0C4902463046B8472046014628463E
:102AC000FEF750FF03B0F0BD01A91068FFF7FEFC50
:102AD0000028F3D1BDF80410D5F8F40001F098FFF8
:102AE000ECE700BFA6C70200F7B505460C4689B95A
:102AF0008668D0F8F40033685F6802F06FFA0C491A
:102B000002463046B847204601462846FEF72AFFCF
:102B100003B0F0BD01A91068FFF7D8FC0028F3D17D
:102B20009DF90410D5F8F40002F05CFAECE700BF60
:102B30009BC70200F7B505460C4699B98668D0F8E0
:102B4000F40033685F6801F079FF4FF47A720D4941
:102B5000B0FBF2F23046B84721462846FEF702FFA6
:102B600003B0F0BD01A91068FFF7B0FC04460028CF
:102B7000F2D1019BD5F8F4004FF47A71594301F07A
:102B800061FFE9E79BC70200002913B5044610DD89
:102B900001A91068FFF79AFC28B99DF80410D4F831
:102BA000F40002F0BAF901462046FEF7DBFE02B05F
:102BB00010BD0720F7E700002DE9F04F002987B08E
:102BC000044640F3048115688249284628F087FDB1
:102BD000074600287FD08049284628F080FD00283D
:102BE00000F0838028466946FFF770FC0546002800
:102BF00040F0E28001AF3A46BDF80010D4F8F4008E
:102C000002F0C4F90546002840F0D680A0689DF87F
:102C10001420036871495B6802F0010298479DF82F
:102C20001430DA0740F1C880A0689DF80E200368D0
:102C30006B495B689847A068BDF80C200368694938
:102C40005B689847A0689DF80F20036866495B6839
:102C500092029847A0689DF81420036863495B6856
:102C6000C2F3400298479DF814309B0740F1A480BE
:102C7000A0685F490368DFF8BC815B6898472E460F
:102C8000A068BA5D036841465B6801369847082E24
:102C9000F6D1A068574903685B689847A0689DF81B
:102CA0001020036854495B689847A0689DF811207C
:102CB000036852495B689847A0689DF81220036832
:102CC0004F495B689847A0689DF8132003684D49F9
:102CD0005B68984770E0A0684B4903685B68984759
:102CE000A0684A4903685B689847D4F8F400DFF8A5
:102CF00048A102F049F9002581460DF10408EEB221
:102D000042463146D4F8F40002F040F9002849D197
:102D1000A06803685B68002F55D19DF80E203C49E0
:102D2000DFF810B19847A068BDF80C200368514641
:102D30005B689847A0689DF80F20036835495B6879
:102D40009847A0689DF81020036833495B6898474E
:102D5000A0689DF81120036830495B689847A06817
:102D60009DF8122003682E495B689847A0689DF87B
:102D7000132003682B495B689847A0682A490368B9
:102D80005B6898473E46A06818F8062003685946D5
:102D90005B6801369847082EF5D1A068234903687F
:102DA0005B6898470135EBB24B45A6D9A06811493D
:102DB00003685B689847002529462046FEF7D2FD48
:102DC00007B0BDE8F08F324619499847EAE7072572
:102DD000F2E700BF1ECD020024CD020056C902005A
:102DE0004ACF0200A0C7020062C9020073C90200F4
:102DF00055C802002DC602007EC902006BC8020041
:102E000081C8020098C80200A9C80200FCC80200DC
:102E1000B3CF0200DACD0200E1CD020083C7020089
:102E20004FC90200D3CD0200AFCF0200F7C80200A5
:102E3000AAD60200A1C60200C9CD0200F7B5054618
:102E40000C4681B98668D0F8F40033685F6802F0F8
:102E50007DF80C4902463046B84721462846FEF721
:102E600081FD03B0F0BD01A91068FFF72FFB0446F8
:102E70000028F2D19DF80410D5F8F40002F06AF8A9
:102E8000EBE700BF9BC70200F7B505460C4681B9CA
:102E90008668D0F8F40033685F6802F05FF80E4986
:102EA00002463046B84721462846FEF75BFD03B090
:102EB000F0BD01A91068FFF709FB04460028F2D114
:102EC00001994B1EFE2B05D8C9B2D5F8F40002F0CB
:102ED00049F8E8E70724E6E79BC70200F7B505468F
:102EE0000C4681B98668D0F8F40033685F6802F058
:102EF0000CF80C4902463046B84721462846FEF7F2
:102F000031FD03B0F0BD01A91068FFF7DFFA0446F8
:102F10000028F2D19DF80410D5F8F40001F0F9FF73
:102F2000EBE700BF9BC70200F0B50F1E85B004465B
:102F3000164645DD15682349284628F0D0FB08BB16
:102F4000012F3BD003A97068FFF7C0FAA0B9BDF804
:102F50000C50A0681C4903685B689847A0681B492F
:102F600003685B6898470094194BD4F8F4002A462C
:102F7000002101F0A3FD18B101462046FEF7F2FC46
:102F800005B0F0BD03A92846FFF7A0FA0028F3D149
:102F9000039B01259D40A0680E4903685B68984724
:102FA000A0680D4903685B68984700940B4BD4F800
:102FB000F4000022294601F06DFDDCE70546C8E774
:102FC0000025E8E7A6C60200ADC60200BDC60200A5
:102FD000A538000039CC020092CC02006D38000008
:102FE00037B5054699B901A9D0F8F4001CF0A6F848
:102FF000044630B9A8689DF9042003680B495B6852
:10300000984721462846FEF7ADFC03B030BD01A924
:103010001068FFF75BFA04460028F2D19DF904100E
:10302000D5F8F4001CF094F80446EAE71501030013
:10303000F7B505460C4689B98668D0F8F4003368C0
:103040005F6801F046FF0C4902463046B84720460B
:1030500001462846FEF786FC03B0F0BD01A91068C2
:10306000FFF734FA0028F3D1BDF80410D5F8F400C6
:1030700001F034FFECE700BF9BC702002DE9F047E9
:1030800002298AB005460E4690463FDD01A95068E8
:1030900001F06BFC00283AD108F10409023E044615
:1030A0000DF1140AB442E7B20DD0132C0AD06946D0
:1030B00059F8040FFFF70AFA48BB009B04F80A30DE
:1030C0000134EFE72746D8F800401249204628F09F
:1030D00006FB48B93B4605AA01A9D5F8F40001F062
:1030E0008DFE0AB0BDE8F08720460B4928F0F7FABC
:1030F000044658B901A93B4605AAD5F8F40001F0E9
:1031000082FE21462846FEF72DFCEAE7072001460D
:10311000F8E700BFE0CF02001FD3020013B5002282
:103120000C4601A928F01EFC019B20601B78002B97
:1031300014BF0620002002B010BD0000F7B5054600
:103140000C46A1B98668D0F8F40033685F6801F0D6
:10315000ADFB4FF47A720F49B0FBF2F23046B8473C
:10316000204601462846FEF7FDFB03B0F0BD0129CD
:103170000ED101A91068FFF7D1FF0028F1D1019B02
:10318000D5F8F4004FF47A71594301F094FBE8E765
:103190000720E6E79BC70200F7B505460C4681B954
:1031A0008668D0F8F40033685F6801F08AFE0B4946
:1031B00002463046B84721462846FEF7D3FB03B007
:1031C000F0BD01A91068FFF7A9FF04460028F2D15D
:1031D0000199D5F8F40001F078FEECE714CF020075
:1031E00010B5002986B0044614DD6946106801F068
:1031F000BCFB68B940238DF810309DF81130D4F82D
:10320000F40043F0030369468DF8113001F082FBAE
:1032100006B010BD0720FBE700291FB504460BDDF3
:103220006946106801F0A1FB20B96946D4F8F400A2
:1032300001F074FB04B010BD0720FBE7F0B50546B4
:1032400087B016460C4600292CD1D0F8F400264E43
:1032500001F05DFB0446002C41D0E189A868638839
:103260002288076849BA89B20591A18949BA89B209
:103270000491618949BA89B20391218949BA89B215
:103280000291E18849BA89B20191A18849BA89B20B
:1032900000915BBA52BA7F689BB292B23146B8478E
:1032A0006469D8E717681149384628F018FA58B900
:1032B000321D611E2846FFF793FF0146284607B0DE
:1032C000BDE8F040FEF74EBB0949384628F007FA42
:1032D00038B9321D611E2846FFF79EFFEDE72046F4
:1032E000EBE70720E9E700BF33C802004DC8020042
:1032F00051C8020000291FB504460BDD694610685D
:1033000001F033FB20B96946D4F8F40001F00DFB5D
:1033100004B010BD0720FBE700291FB504460BDDF4
:103320006946106801F021FB20B96946D4F8F40021
:1033300001F0FFFA04B010BD0720FBE770B50546A9
:103340000E4681B9D0F8F40001F0F7FA0446A868F7
:1033500003685B6824B10F4998473446204670BD26
:103360000D499847FAE716680C49304628F0B7F936
:10337000044628B90121D5F8F40001F0E1FAEDE79F
:103380000749304628F0ABF9044608B90146F2E790
:103390000724E3E7EDCD0200F7CD020002CE0200E4
:1033A00009CE0200F0B5054687B016460C46002946
:1033B0002CD1D0F8F4002B4E01F0B4FA0446002CC6
:1033C0004CD0E189A86863882288076849BA89B225
:1033D0000591A18949BA89B20491618949BA89B232
:1033E0000391218949BA89B20291E18849BA89B227
:1033F0000191A18849BA89B200915BBA52BA7F683B
:103400009BB292B23146B8472469D8E7176816498B
:10341000384628F064F958B9321D611E2846FFF776
:1034200069FF0146284607B0BDE8F040FEF79ABAAA
:103430000E49384628F053F928B9321D611E284636
:10344000FFF76AFFEDE70A49384628F048F938B92E
:10345000321D611E2846FFF771FFE2E72046E0E7D4
:103460000720DEE733C802004DC8020051C8020041
:10347000D4CF02002DE9F0411F4688B00023079306
:103480003B78812B05460E46144651D10B8CCA8BD6
:1034900080682949D21A036808325B689847E18B33
:1034A000A868638AD0F800C0228A49BA89B2059117
:1034B000A18B49BA89B20491618B49BA89B203914F
:1034C000218B49BA89B20291E18A49BA89B2019144
:1034D000A18A49BA89B200915BBA52BADCF8048079
:1034E00016499BB292B2C047A868FA88036814498B
:1034F0005F6894F8253052BA92B2B84707AB0422FD
:10350000318C304601F02CFF03280CD9AC682368BD
:103510005E681BF028FB07460798FEF7A5F90949E6
:103520003A1A2046B047A868074903685B6898477D
:1035300008B0BDE8F08100BF20CE02002FCE02000F
:1035400047CE02005DCE02002DC60200FFF792BFFB
:1035500037B504461BF007FBFEF786F90021019002
:10356000D4F8F40001F0F3F90546B0B104220DEBF4
:10357000020101F0BFFAE8B9218F284601F0B6FA3E
:10358000C0B9012304F10C022946D4F8F40001F07B
:103590009BF978B9638F013B6387638F43B1E56B18
:1035A0001BF0E1FA2A46014604F1400002F0ECFC6F
:1035B00003B030BD284601F095FAEEE72DE9F3415E
:1035C0000F1E054616464DDDD2F8008026494046BE
:1035D00028F085F805F14003AA6C044650B99A42D8
:1035E0003CD0184602F098FC204601462846FEF7DB
:1035F000B9F930E09A4233D1414605F11C0007F099
:103600003BFF0028F1D1194A4FF47A73C5E90E2324
:10361000012485F830409846BC4219DA01A956F8D1
:103620002400FEF753FF0028DFD1022C08D0032C22
:1036300009D0012C16D1019B2B870134E4B2EBE7B2
:10364000019B6B87F9E7019B08FB03F3EB63F4E74E
:103650002846FFF77DFF02B0BDE8F0810D20C4E7EA
:103660000520C2E70720C0E789C902000800010061
:10367000024B186800F20C60FFF76ABF6C02002072
:103680002DE9F14F044680683C4F03680E465B68A5
:103690003B4998472C25A068036839465B689847E2
:1036A000013DF8D1A0683279036836495B68334F31
:1036B00098471C25A068036839465B689847013D18
:1036C000F8D1A0682E490368DFF8CC805B68984782
:1036D000A06832790368AA425B683DD941469847A1
:1036E0000027A06831790368EA198A425B682BD207
:1036F00031688A5C244998470137102FF1D1A068BE
:10370000DFF898900368DFF898A05B68DFF894B062
:10371000414698470027A06831790368EA198A4230
:103720005B6817D231688A5CA2F120015E290ED84D
:10373000594698470137102FEDD1A0681349036807
:103740005B6898471035C3E711499847D4E751465D
:103750009847EFE74946FBE70E4E5325A0680368FC
:1037600031465B689847013DF8D1A0680449036879
:103770005B6801B0BDE8F04F184700BF73CF02008F
:103780002DC6020075CF020083CF0200F8C80200E8
:1037900089CF020097CF020081CF020094CF0200B0
:1037A00091CF02008DCF02000B4601461846FFF76D
:1037B00067BF000070B50446806803680D465B680B
:1037C00019B92149BDE87040184791F839201F49BF
:1037D000C2F340129847A0681D49036805F108022A
:1037E0005B689847A0681B4903685B689847082294
:1037F00005F119012046FEF7DDFDA06816490368B2
:103800005B689847A0686A8E036814495B689847AC
:10381000294620460822FEF7CDFDA06895F83620FF
:1038200003680F495B689847A06895F937200368DB
:103830000C495B689847A06895F8382003680A49E6
:103840005B68BDE870401847A2C8020099CF02002B
:103850009FCF0200AFCF0200C7CD0200A8CF020069
:10386000B2CF0200D3CD0200BACF02000B46014610
:103870001846FFF79FBF000010B4806803685C68BB
:1038800021B9234605495DF8044B184791F90130E9
:103890000A780349A4465DF8044B6047A2C80200B9
:1038A000C4CF02000B4601461846FFF7E5BF0000F3
:1038B0002DE9F043A3B005460C46164600218022B0
:1038C00002A81F4627F0E9FA00238DF80730AF6001
:1038D0009CB1711C204627F02EFFB0420DD820234A
:1038E00002AA0DF10701204617F09EF940B1A86821
:1038F0002F49036820225B68984723B0BDE8F08316
:103900009DF807302BB9A8682A4903685B68984777
:10391000F3E7029F26F0B9FD48B12749384627F062
:10392000DEFE20B1A868254903685B68EFE7244EF6
:1039300004464FF00C0909FB04F8384658F8061005
:1039400027F0CDFE88B94644B16873684A10C907AC
:1039500005EB02009DF8071048BFAA5801F1FF319E
:1039600048BFD35803AA9847C7E70134362CE2D1A1
:1039700095F804900024E6B2B14511D92B68384679
:1039800053F8341003EBC40827F0A9FE01340028D3
:10399000F1D19DF80700D8F8043003A90138984701
:1039A0002B79B342A9D106212846FDF72FFEA4E7C3
:1039B00010C6020030C602004BC6020050C602000C
:1039C000F8CF02008B0507B509D50023009300F15D
:1039D0004C01044BD0F8F400042200F0B4FF03B013
:1039E0005DF804FB4B4900000B4601461846FFF703
:1039F000E9BF00002DE9FF4180460B8CCC8B80682D
:103A0000E41A03680F465B6811499847A4B2002581
:103A1000ACB1398C102C2646294428BF10266B46A1
:103A2000324689B2384601F09BFCA41BF2B26946CB
:103A300040463544FEF7BEFCA4B2ADB2E8E7D8F884
:103A40000800044903685B68984704B0BDE8F0814A
:103A5000E4CF02002DC6020013460A46014618466E
:103A6000FFF7C8BFF8B5084F084E094D0024386865
:103A700056F83420036829465B6801349847132CB4
:103A8000F5D10020F8BD00BF78090020B0D50200B4
:103A90008AD2020008B568220021024827F0FDF909
:103AA000002008BD80090020002970B519DD1668C6
:103AB000304627F026FE441C6408A2B2102A12D811
:103AC0000B4DA91A5C3130461446FDF713FFA04296
:103AD0000BD195F8653043F0020385F8653000207E
:103AE00070BD0720FCE70320FAE70620F8E700BFD7
:103AF00080090020002970B515461ADD106827F0EE
:103B000000FE1028064616D80C4C1122002104F1A4
:103B1000200027F0C2F93246296804F1200027F07E
:103B200098F994F8643043F0080384F86430002076
:103B300070BD0720FCE70620FAE700BF80090020DF
:103B4000002937B511DD01A91068FEF7BFFC50B997
:103B5000074B019C93F86420E517C3E9004542F048
:103B6000010283F8642003B030BD0720FBE700BFEB
:103B700080090020002907B511DD01A91068FEF7B2
:103B8000A5FC48B9074B019AA3F84A2093F8652091
:103B900042F0010283F8652003B05DF804FB0720C2
:103BA000FAE700BF80090020002907B510DD01A950
:103BB0001068FEF78BFC40B9064B019A1A6693F821
:103BC000652042F0080283F8652003B05DF804FB2D
:103BD0000720FAE780090020002907B510DD01A9B8
:103BE0001068FEF773FC40B9064B019A5A6493F8CB
:103BF000642042F0400283F8642003B05DF804FBC7
:103C00000720FAE780090020002907B511DD01A986
:103C10001068FEF75BFC48B9074B019AA3F84820EF
:103C200093F8642042F0800283F8642003B05DF8CA
:103C300004FB0720FAE700BF80090020002937B500
:103C400011DD01A91068FEF741FC50B9074B019C3A
:103C500093F86420E517C3E9024542F0020283F8B5
:103C6000642003B030BD0720FBE700BF80090020BF
:103C700037B50D1E144641DD01A91068FEF726FC7C
:103C8000D0BB1F4B019AA3F85C20012D83F85E0086
:103C90002CD06168013911F8012F3AB36E2A16D081
:103CA00005D8622A1DD0632A16D0062024E06F2A88
:103CB00006D0722AF9D193F85E2042F0200203E088
:103CC00093F85E2062F07F0283F85E20E3E793F8CA
:103CD0005E2042F04002F7E793F85E2042F01002C7
:103CE000F2E793F85E2042F00802EDE793F86520D2
:103CF00042F0040283F8652003B030BD0720FBE7E3
:103D000080090020002938B5044616DD15680C49E5
:103D1000284627F0E4FC28B920460A49BDE8384087
:103D200000F0A6BD0849284627F0D9FC28B920464E
:103D30000449BDE8384000F0A2BD072038BD00BFEF
:103D400088D40200800900208FD40200002907B522
:103D5000134619DD082269461868FDF7CBFD0028D7
:103D600010DB0A4A6B4603CB92F86430C2F831008C
:103D700043F01003C2F8351082F86430002003B01D
:103D80005DF804FB0620FAE70720F8E78009002029
:103D900000297FB5134619DD6C46102221461868AC
:103DA000FDF7A8FD10280FD194E80F00084E06F18A
:103DB000100585E80F0096F8643043F0040386F898
:103DC0006430002004B070BD0620FBE70720F9E74F
:103DD0008009002000291FB515DD6946106800F034
:103DE000C4FD044660B9094A6B4603CB92F86430BF
:103DF000C2F8390043F02003C2F83D1082F8643065
:103E0000204604B010BD0724FAE700BF8009002057
:103E10002DE9F04FB1F10009C3B08046154640F3DB
:103E200045816822002108A827F037F8DFF8B0B2F2
:103E300001240027A14540F31E8155F824609C49C8
:103E4000304627F04CFCA8B99DF8843043F00103BC
:103E50008DF88430631CDBB203A955F82300FEF70C
:103E600035FB002837D1039AD317CDE90823023454
:103E7000E4B2DFE78F49304627F031FC90B99DF876
:103E8000843043F002038DF88430631CDBB203A955
:103E900055F82300FEF71AFBE8B9039AD317CDE9CA
:103EA0000A23E4E75946304627F019FCB0B99DF8DB
:103EB00084200190601CC0B242F004028DF884207E
:103EC0000CA9102255F82000FDF714FD1028019BC5
:103ED00000F0CF80062043B0BDE8F08F7649304631
:103EE00027F0FDFB8246D8B99DF8842042F00802F5
:103EF0008DF88420621CD2B255F82260304627F03B
:103F000000FC10280746E5D81122514610A826F0DB
:103F1000C4FF3A46314610A826F09BFF5746A6E755
:103F20006649304627F0DBFB88B99DF8843043F0C2
:103F300010038DF88430631CDBB2082255F823008F
:103F40000DF15101FDF7D6FC002890DAC2E75C497B
:103F5000304627F0C4FBA8B99DF8843043F0200315
:103F60008DF88430631CDBB204A955F8230000F0FF
:103F7000FCFC0028AFD104AB03CBCDF85900CDF841
:103F80005D1074E74F49304627F0A9FB88B99DF8CA
:103F9000843043F040038DF88430631CDBB203A906
:103FA00055F82300FEF792FA002894D1039B199349
:103FB0005DE74549304627F092FB98B99DF884307B
:103FC00043F080038DF88430631CDBB203A955F8FD
:103FD0002300FEF77BFA00287FF47DAF039BADF84A
:103FE000683044E73949304627F079FB98B99DF8A5
:103FF000853043F001038DF88530631CDBB203A9E3
:1040000055F82300FEF762FA00287FF464AF039BA3
:10401000ADF86A302BE72E49304627F060FB90B9A7
:104020009DF8853043F008038DF88530631CDBB2C2
:1040300003A955F82300FEF749FA00287FF44BAF97
:10404000039B209313E72349304627F048FB68BBC6
:10405000631C99452ADDDBB255F82360304627F012
:1040600050FB01304708802F1ED8BAB222A9304633
:1040700068E71F46FBE62C681749204627F02FFB10
:1040800030B9FBB222AA08A9404600F003FC22E79F
:104090001249204627F023FB40B9FBB222AA08A907
:1040A000404600F0FFFB16E7032014E7072012E765
:1040B0009FD40200AFD40200B9D302000FD3020094
:1040C00059D60200C0D4020012D30200A9D20200C5
:1040D000CBD40200D7D4020088D402008FD40200CF
:1040E0007ED302002DE9F04FB1F1000A93B0814672
:1040F000904640F3C4800025DFF8B8B1ADF8145005
:1041000001242E46A24540F394801F2E00F3B38075
:1041100058F824705B49384627F0E1FA40B99DF819
:10412000143043F001038DF814300134E4B2E9E7B0
:104130005549384627F0D3FA20B99DF8143043F09A
:104140000203F0E75946384627F0C9FA20B99DF82E
:10415000143043F00403E6E74C49384627F0BFFA31
:1041600020B99DF8143043F00803DCE7484938468D
:1041700027F0B5FA20B99DF8143043F01003D2E7C8
:104180004449384627F0ABFA20B99DF8143043F083
:104190002003C8E74049384627F0A1FA20B99DF826
:1041A000143043F04003BEE73C49384627F097FA05
:1041B00020B99DF8143043F08003B4E738493846FD
:1041C00027F08DFA30B99DF8153043F001038DF8D2
:1041D0001530AAE73349384627F081FAD0B90134BF
:1041E000A2454CDDE4B258F824300393184627F07A
:1041F00088FA01304710C6F12002BA423BD30AAB1D
:104200009919039BBAB21846FDF774FB002834DBFA
:104210003E448AE72449384627F061FA78BB0134E6
:10422000E4B206A958F8240000F09FFB88B90125E4
:104230007BE7D8F800401D49204627F050FA58B9CE
:10424000F3B205B106AD00950AAA05A9484600F0EB
:104250001DFB13B0BDE8F08F1549204627F03FFA4B
:1042600068B9F3B205B106AD00950AAA05A948469A
:1042700000F014FBEDE70320EBE70620E9E7072059
:10428000E7E700BF9FD40200AFD40200B9D3020019
:104290000FD3020059D60200C0D4020012D302008C
:1042A000A9D20200D7D4020097D4020088D4020019
:1042B0008FD402007ED302002DE9F041084F094E51
:1042C000054688460446631B984507DD386814F8A0
:1042D000012B036831465B689847F4E7BDE8F0813D
:1042E00078090020A1C6020037B590F864309D0718
:1042F000044607D5754B7649186803685D68D4E9AC
:104300000223A84794F86430D80707D56F4B71494A
:10431000186803685D68D4E90023A84794F86530FD
:10432000D90707D5694BB4F84A2018686A49036869
:104330005B68984794F865301A0706D5634B226E80
:104340001868664903685B68984794F864305B06B0
:1043500006D55E4B626C1868614903685B689847D4
:1043600094F86430DD060FD5584D5E49286803681F
:104370005B689847082104F13100FFF79DFF28682A
:10438000594903685B68984794F86430980617D5D4
:104390004E4BB4F83F101868B4F839200568B4F8EB
:1043A0003B3049BA89B20191B4F83D1049BA89B29B
:1043B00000915BBA52BA6D684C499BB292B2A84761
:1043C00094F8643059070ED5404D49492868036870
:1043D0005B68984710216018FFF76EFF2868424914
:1043E00003685B68984794F864301A070DD5374D19
:1043F0004049286803685B68984728683E49036815
:1044000011225D6804F12003A84794F86430DB09A9
:1044100007D02E4BB4F848201868384903685B6809
:10442000984794F865309B070FD5284D3449286884
:1044300003685B689847102104F14C00FFF73CFFCC
:104440002868294903685B68984794F865305D07D8
:1044500039D51E4DB4F85C2028682A4903685B688A
:10446000984794F95E30002B04DA286826490368DF
:104470005B68984794F85E30580604D5286823494D
:1044800003685B68984794F85E30990604D52868FD
:104490001F4903685B68984794F85E30DA0604D5D4
:1044A00028681C4903685B68984794F85E301B07CE
:1044B00004D52868184903685B68984728680A4942
:1044C00003685B689847002003B030BD780900207E
:1044D000DED40200F6D40200ADCA02000DD50200FF
:1044E00029D5020035D502002DC6020042D50200B2
:1044F00066D5020073D502006CCF020082D502009F
:1045000093D502009AD50200A7D2020035DE020040
:1045100027E102008FCF02008FE1020000B59BB0BF
:10452000694600F097F910B96846FFF7DDFE1BB049
:104530005DF804FB00B59BB0694600F092F910B934
:104540006846FFF7D1FE1BB05DF804FB2DE9F0478C
:104550001746124A814613600E4621B91048BDE83D
:10456000F047FFF7C1BED7F800800E4D002455F884
:10457000341040464FEAC40A27F0B1F838B9554420
:104580003A1D6B68711E4846BDE8F0471847013474
:10459000132CECD10620BDE8F08700BF780900207D
:1045A00080090020B0D502002DE9F0410A4E0B4DE4
:1045B000804600240C27D8F80030986807FB04F2E6
:1045C000036892595B68294601349847062CF2D15A
:1045D0000020BDE8F08100BFB0D602008AD2020000
:1045E000043000F022BD000003460068024AD0F803
:1045F000F400191D00F008BD51480000F0B58DB061
:104600000C460746164600212C2201A826F045FC40
:10461000012C35D0032C35D105A9306800F0A5F95F
:10462000044650BB69467068FDF750FF044620BB46
:10463000009BADF8263001238DF8283002243B681A
:104640000021D3F8F40000F0D1FC0546E0B156F8A3
:104650002440204627F055F8214682B2284600F033
:1046600049FA044630B901AA2946381D00F0E3FC96
:10467000044610B1284600F035FA20460DB0F0BDD2
:104680000024DCE70724F8E70324F6E730B5022925
:1046900087B0054614461AD10021142201A826F03D
:1046A000FCFB01A9206800F060F970B969466068F8
:1046B000FDF70CFF48B9009BADF8143001A90123A8
:1046C000281D8DF8163000F0B2FC07B030BD072071
:1046D000FBE730B5022987B0054614461AD1002100
:1046E000142201A826F0D9FB01A9206800F03DF9A9
:1046F00070B969466068FDF7E9FE48B9009BADF8FE
:10470000143001A90123281D8DF8163000F091FC0A
:1047100007B030BD0720FBE710B53822044640F84B
:10472000041B002126F0B9FB204610BD2DE9F14FF6
:10473000B1F100080646174607DC00221146FFF7D4
:1047400033FF072001B0BDE8F08FD2F800A0114D73
:1047500000244FF00C0B0BFB04F9504659F80510E0
:1047600026F0BDFF80B94D44A9686B684A10C9079F
:1047700006EB020044BFB258D35808F1FF313A1D8E
:1047800001B0BDE8F04F18470134062CE3D12046B4
:10479000D8E700BFB0D602002DE9F04303689F6858
:1047A0003B68ADF2046D0646084614460D46D3F844
:1047B000048000F099F98146284600F099F92149D2
:1047C000A9EB00023846C0473368618C9868228A9A
:1047D000638A07680691E18B49BA89B20591A18B7A
:1047E00049BA89B20491618B49BA89B20391218B8C
:1047F00049BA89B20291E18A49BA89B20191A18A82
:1048000049BA89B200915BBA52BA7C680E499BB230
:1048100092B2A047284600F06BF909AC2246014647
:1048200040F2DB53284600F067F900232354336835
:1048300006499868036822465B6898470DF2046D44
:10484000BDE8F08320CE020092D602008AD2020098
:10485000FFF7A2BF19B100F6542003F016BC0720E1
:10486000704719B100F6A82003F00FBC072070476D
:1048700019B100F5256004F013BB0720704719B18A
:1048800000F6A42004F037BC0720704700F525602F
:1048900004F0F4B900F5256004F061B800F6A42036
:1048A00004F0ECB900F6A42004F059B800F5DF508C
:1048B0000C3005F0F5BB00F5DF500C3005F0E6BB21
:1048C00000F67C0005F08FBD00F67C0005F098BD79
:1048D00000F00CBC46F27803C05C704700F016BCD8
:1048E00000F0DEBB203001F055B900F025BC00001F
:1048F0000048704715D7020000F6381009B115F0CE
:104900004FBE15F07ABE00F5DC5000787047D0F845
:104910003C09704700F6381007F0D1BA00F638109D
:1049200007F013BBD0F84009704700F6381007F0C5
:1049300011BA00F6381007F03BBA90F845097047F5
:1049400080F84519704716F0A9B916F03BBA0B4626
:1049500011B14A78022A06D8002200F5015011460A
:10496000203001F08CB8002070470B4601461846F5
:1049700006F082BD10B109B106F06BBD0020704792
:1049800010B5044690B019B900F0E3FB10B010BDAB
:1049900001AA00F6B43001F0A1FB01A92046F3E71B
:1049A00000F0E1BB90F8BC0B704738B590F87B3D48
:1049B00004467BB900F6B43001F039FD054638B93C
:1049C00004F5256003F070FE04F6A42003F0C0FE99
:1049D000284638BD0D25FBE700F6F230704710B5CC
:1049E000044661B190F87B3D5BB900F6EC3003F012
:1049F0009AF804F55760BDE810400BF081B9072024
:104A000010BD0D20FCE71AF07FBAB0F8BA0B704762
:104A100038B590F87B3D044673B900F6B43001F028
:104A200042FC054604F5256003F03EFE04F6A42092
:104A300003F08EFE284638BD0D25FBE700F55560D6
:104A400008F03BBB00F5556008F031BC00F6B4300F
:104A500002F036BA90F8B50B00F00100704710B5BF
:104A600000F5DC531C782CB900F6B43002F02BFAB8
:104A7000204610BD0D20FCE700F5DC531B781BB968
:104A800000F6B43002F038BA0D20704700F634401A
:104A90007047000070B504460D4616461946049A44
:104AA00000F054FB04943246294604F6B430024B1D
:104AB000BDE8704001F046BD8149000070B5044674
:104AC0000D4616461946049A00F04AFB04943246F5
:104AD000294604F6B430024BBDE8704001F055BDE4
:104AE000A149000000F0CCBBC08B704700F0CCBBEC
:104AF000008C704700F0CFBC10B51C461346224610
:104B000000F02EFC10BD73B58023054600F5015062
:104B10000B8020300C4600F091FBA21D6080211D0F
:104B200005F6D84000F0FCFF04F10A0204F1080188
:104B300005F6E84000F061FE05F6381604F11A02A9
:104B400004F1180105F63C5000F057FE304600F025
:104B500013FB04F10E0204F10C01103000F0E0FF31
:104B6000304600F009FB04F1120204F11001E030BC
:104B700000F043FE04F1160204F1140105F6D850CA
:104B800000F03BFE04F11E0204F11C0105F61820A2
:104B900000F033FE0DF1060201A905F6382000F001
:104BA0002CFEA38BBDF804201344A383BDF806207C
:104BB000E38B1344E383002323846384A384E3848B
:104BC00002B070BD10B50446FFF784FE28B104F1B1
:104BD0000800BDE8104001F047B910BDD0F8640EE0
:104BE000704700F557600DF0CDBE00F6C430704739
:104BF00073B590F87B4D05460E46F4B900F6B43017
:104C000001F06AFB02A9FD2301F8083D3368CDF8E5
:104C1000013005F5576033798DF80530ADF8064061
:104C20000BF0E7F805F5256003F03EFD05F6A4203E
:104C300003F08EFD204602B070BD0D20FBE790F81A
:104C4000A43D82B0002218078DF8042044BF012241
:104C50008DF80420590742BF9DF8042042F002025B
:104C60008DF804209A0742BF9DF8042042F0040208
:104C70008DF80420DB0742BF9DF8043043F00803A1
:104C80008DF804309DF8040002B0704711F0010F58
:104C90000CBF002308238A0748BF43F004034A07D8
:104CA00048BF43F002030A0748BF43F00103194617
:104CB00000F557600DF07FBE00F6083008F094BB99
:104CC00038B5044689B190F87B3D83B900F60830C9
:104CD00008F0EEFB054604F5256003F0E5FC04F65C
:104CE000A42003F035FD284638BD0725FBE70D2538
:104CF000F9E700F6CC30704738B590F87B3D0446B4
:104D000073B900F6B43001F0CBFA054604F525601E
:104D100003F0CAFC04F6A42003F01AFD284638BDAF
:104D20000D25FBE7D0F8180B704700F6083008F0A7
:104D30008EBCD0F8740B7047C0F8741B704700F538
:104D400057600CF009BC002100F557600CF0A3BBC4
:104D500022B119B100F557600FF055BB072070471D
:104D600090F87B0D704719B100F557600BF070BBE0
:104D70000720704700F557600BF0DCB938B50C46DA
:104D8000A9B300F557600EF01DFA0368236043686D
:104D90006360038B2381038B9B12A37290F82430F2
:104DA000E37290F82530C3F383032373837F637327
:104DB00090F82530C3F301030546A37319F0D3FE21
:104DC000AB68C01A4FF47A73B0FBF3F0237CE07346
:104DD00043F001032374AB7E03F00703DA1F534251
:104DE0005341227C63F341022274002038BD072026
:104DF000FCE700F5D950183014F048BA00F5D95046
:104E0000183014F047BA00F5D950183014F0A8BD86
:104E100059B1B0F8BA2B4FF6FF739A420AD000226C
:104E2000012100F557600DF020BD012100F557600C
:104E30000AF0EFBE0D20704713B502AA002402F855
:104E4000014D012306214C3000F03EFF08B18DF8E2
:104E500007409DF80700003018BF012002B010BDC8
:104E600007B502AA012302F8011D4C30062100F00B
:104E70007BFF03B05DF804FB00F557600EF01CBC2F
:104E800010B49DF80440019400F557605DF8044BA0
:104E90000BF0CEBF90F8800F704700F5786008F0F7
:104EA000B1B800F557600EF09BBA00F557600EF0F0
:104EB000A2BA41F69713C05C704741F69713C154EC
:104EC000704741F69813C058704741F69813C15087
:104ED000704700F5DC50043004F0C6BB00F5DC5030
:104EE000043004F01FBC00F5CD50103013F073BA3D
:104EF00000F5CD50103013F071BA41F69413C05C38
:104F0000704741F69413C154704741F69513C05C45
:104F1000704741F69513C154704700F5A150143005
:104F200014F0C8BE90F87B3D022B04D008D3042BAC
:104F300006D800207047032100F557600FF014BC1D
:104F40000D20704700F5576010F0E4BE41F696134F
:104F5000C05C704741F69613C154704741F6AA13DE
:104F6000C05C704700F557600EF087BB1AB100F5C2
:104F700057600FF01ABA072070471AB100F5576052
:104F80000FF030BA072070473E20704722B100F57D
:104F9000A150143014F0CEBF072070471AB100F5AD
:104FA000E35007F067BA0720704700F6083008F0B2
:104FB000F4B938B590F87B4D05466CB900F6083069
:104FC00008F0EDF905F5256003F06EFB05F6A42069
:104FD00003F0BEFB204638BD0D20FCE741F6AC13C4
:104FE000C056704700F5576010F014BD0B4611B164
:104FF0004A78022A06D8002200F5015011462030D6
:1050000000F03DBD0020704770B515461E460C46A9
:1050100021B100F68401204606F0DDFF3246294624
:105020002046BDE8704007F003B807F02CB807F041
:105030004CB806F0D9BF07F0A7B838B5002504462C
:10504000C0E90055083000F0D8FE2146C4E90455F7
:10505000C4E9065504F1200000F07CFD04F14D0088
:1050600001F014F804F1500015F086FC214604F517
:10507000056005F04FFB214604F6381015F020FAC4
:1050800004F501502146203000F05CFB46F2780325
:105090002046E55438BD000000487047E80900206C
:1050A00019F0E8BE46F2780370B501250446C554F0
:1050B0004C3000F0BCFD04F557600BF041F8204681
:1050C000FFF7BAFE80B129462046FFF715FC0646D9
:1050D00050B929462046FFF79BFE28B131462046AD
:1050E000BDE87040FFF708BC70BD000010B546F287
:1050F0007803054CE35C2BB92046FFF79EFF204662
:10510000FFF7D0FF004810BDE809002038B546F28F
:1051100078030446C25C72B10025C5542946FFF7E6
:1051200077FE29462046FFF7E7FB29462046BDE8E3
:105130003840FFF7A1BC38BD10B504464C3000F034
:105140007DFD2046BDE8104019F094BEC0E9041270
:1051500070470246084613690BB1516918477047FA
:10516000C0E9061270470246084693690BB1D1693F
:1051700018477047FFF790BF08B5FFF78DFF00F5A0
:10518000056008BD08B5FFF787FF00F6381008BDB9
:1051900008B5FFF781FF203008BD0000014B53F830
:1051A000200070474CD7020010B500F5804304334F
:1051B00041B11A680C680A601960028801320280E5
:1051C0002146F5E710BD4A683AB9CA682AB98A6823
:1051D00022B90B6913B9FFF7E7BFFEE7FEE770B529
:1051E00005460C4616462B88A3420EDA2846FFF7E2
:1051F000C1FF314600F6BC4009F0AFFE0028F2D0F6
:105200002B88A34203DA032070BD002CF8DA0020BB
:10521000FAE710B50A4601210446FFF7E0FF58B946
:1052200044F20402A3582BB11968A15018602288D7
:10523000013A2280184610BD0023FBE70088704722
:10524000F8B506460F4605464C24BC42296810D2E4
:1052500019B17C342D68A4B2F7E796F83310706961
:1052600001F00301FFF7D5FF28600028F1D10320EA
:1052700005E000242C607069FFF796FF2046F8BD1A
:1052800001464069FFF79FBF70B5838BC28BCE1874
:10529000B6B24C2E13440D469BB285BFA6F14D010C
:1052A0007C22002191FBF2F188BF01314C2B044696
:1052B00005D94D3B7C2293FBF2F30133C91A94F8D4
:1052C0003320606902F00302FFF789FF28B93146F5
:1052D0002046FFF7B5FF00B9E58370BD03680120E4
:1052E0001BB10130C0B21B68FAE77047038CC28B58
:1052F0001944914200DDFEE789B29142018400D950
:10530000FEE700207047C38B8B4200D2FEE701848A
:105310000020704790F8320000F03403042B0AD0CC
:1053200000F02C03082B06D000F03800A0F1200379
:1053300058425841704701207047C38B8B4200D2BE
:10534000FEE75B1AC383038C828B8B420A4494BFB3
:105350000023591A82838CBF018403840020704784
:10536000F8B51546C28B9142064642D24819B48B15
:105370009042A8BF551A21448CB2A8BFADB24B2CA5
:1053800016D8C4F14C07BFB2AF4228BF2F4606F172
:105390003401214418463A4625F05BFDED1B0346D7
:1053A000ADB23B44002136687B291ED92EB9FEE7F9
:1053B000A4F14C0189B20027F5E77C39366889B23F
:1053C000F2E7C1F17C04A4B2AC4228BF2C46301DE8
:1053D00001442246184625F03CFD2D1B0346274478
:1053E0003668ADB2BFB2234400211DB1002EE8D112
:1053F000FEE700273846F8BD2DE9F0411E46C38B75
:1054000015468A189A42074600DDFEE7848BA8BF3E
:105410005D1A21448CB2A8BFADB24B2C16D8C4F192
:105420004C081FFA88F8A84528BFA84634303146F2
:1054300042462044A5EB080525F00BFDADB24644DD
:1054400000203F687B281FD937B9FEE7A4F14C0044
:1054500080B24FF00008F4E77C383F6880B2F1E793
:10546000C0F17C04A4B2AC4228BF2C463B1D31469F
:105470002246184425F0EDFC2D1BA0443F68ADB238
:105480001FFA88F82644002015B1002FE8D1FEE766
:105490004046BDE8F0812DE9F041C78B8846D1191F
:1054A00089B206461446FFF7EFFE054640B943466B
:1054B000224639463046FFF79FFF844200D0FEE780
:1054C0002846BDE8F081F8B504460D46164600F1C1
:1054D0003407A38B9E4218D994F83310606901F009
:1054E0000301FFF796FE30B323680360A38B2060AF
:1054F0004B2B06D83430C3F14C02F918184425F070
:10550000A8FCA38B7C33A383E3E79B1BE28BA383E1
:10551000238C3244334492B29BB29A42E28300D24B
:10552000FEE723844DB12B46324600212046FFF78B
:1055300063FF0020F8BD0320FCE72846FAE72DE9C9
:10554000F043814685B0884617461D460026CDB1FA
:10555000102D2C4628BF1024224641466B46484653
:10556000FFF7FEFEA044224639462D1B27446B461A
:105570000C983444FFF740FF1FFA88F8BFB2ADB271
:10558000A6B2E4E7304605B0BDE8F0833F2900D974
:10559000FEE700EBD100802390F8262001F0070100
:1055A00043FA01F10A4214BF0120002070473F294D
:1055B00000D9FEE700EBD100802301F007010B4189
:1055C00090F8261021EA030180F8261070473F2941
:1055D00000D9FEE700EBD10001F00703802119415B
:1055E00090F82630194380F82610704700F1260203
:1055F00000F12E0312F8010B10B99A42FAD170474C
:1056000001207047014489B2884288BF013188B2C5
:10561000704710B50024A2420CDD0B5D14F0010FA1
:1056200008BF1B0203449BB2984288BF013398B263
:105630000134F0E710BDF8B506461D460846D118FE
:10564000F38B994200DDFEE7B48B224494B24B2CDD
:1056500013D8C4F14C07BFB2AF4228BF2F4606F1A2
:10566000340121443A46ED1BFFF7D3FFADB20021D0
:1056700036687B2918D926B9FEE7A4F14C0189B216
:10568000F6E77C39366889B2F3E7C1F17C04A4B24D
:10569000AC4228BF2C46331D19442246FFF7B9FF00
:1056A0002D1B3668ADB2002115B1002EEDD1FEE7FD
:1056B000F8BD002202607047F0B502EB8104656816
:1056C0003DB9E5682DB9066826B96260E2600260FE
:1056D0000EE0FEE78F003E44012B7568656005EB28
:1056E00081050668E660EA60016839444A60EED0E8
:1056F000F0BD02EB810330B55C68C4B1DC68B4B1C5
:105700000568AA4205D1944208BF0022046008BF80
:105710000260DA68586802EB810250605A68D86803
:1057200002EB8102D0600022DA605A6030BDFEE7F1
:10573000006800B1806870470022C0E90022C0E91B
:105740000222704738B5044600F58040251D083018
:10575000FFF7F2FF4FF480420021284625F09DFB21
:1057600044F20403E218E55004F1840343F8803C5A
:1057700080339342FAD143F684730022E2508023AF
:105780002380204638BD0B4650F8232032B9032B26
:105790001ABF0133DBB213469942F5D11046704768
:1057A00008B50021FFF7EFFF00B1806808BD08B51C
:1057B00050F821304BB103291ABF0131C9B2002181
:1057C000FFF7E1FF00B9FEE78368184608BD002136
:1057D000FFF7D9BF10B50446806994F833305B07F2
:1057E00007D528B1FFF7F3FFA04214BFA06800203F
:1057F00010BD0028FCD00068F6E738B500230B8008
:1058000013800D461446FFF793FF024658B12B88CC
:1058100001332B80FFF762FD238818442080104657
:10582000FFF7D8FFF1E738BDF8B592F8335005F02F
:1058300003050F46294606461446FFF7A4FF3BB270
:1058400060B19B00C21823445168596001EB870185
:10585000D860CC60546046F82540F8BD04EB830363
:105860005C60DC60F7E770B58C690D4613469CB947
:10587000A86191F8331064F3820185F833102A4649
:105880000121FFF719FF686900F5804008302146C3
:10589000FFF7CAFF204670BD1820FCE770B592F8EC
:1058A000334004F003048E1C50F824309A420DD18A
:1058B00002EB86035B689A4218D093F8335005F0E8
:1058C0000305A54218BF002340F8243002EB8102F3
:1058D0005368D06803EB86035860D368506803EBC5
:1058E0008103586000235360D36070BD0023EBE751
:1058F00038B591F83340C4F380040D46BCB98B69C8
:10590000984214D10A460121FFF7F3FE686900F5B9
:10591000804008302A462146FFF7C0FF95F8333013
:10592000AC6164F3820385F83330204638BD17201C
:10593000FCE738B58D690C46A5B9A06191F8333004
:1059400043F0040381F833300A460121FFF76CFF6E
:10595000606900F58040083022462946FFF764FF61
:10596000284638BD1820FCE791F833305B0710B5A6
:105970000C4617D58B69984214D10A460121FFF7CE
:105980008DFF606900F58040083022460021FFF756
:1059900085FF94F83330002060F38203A06184F81F
:1059A000333010BD1720FCE70329F8B5044637D87B
:1059B00086693EB990F8333061F3010380F83330E3
:1059C00000202EE090F8330000F003038B42F7D064
:1059D000C0F3800501F0030775B121463046FFF79B
:1059E000C3FF94F8333067F3010384F83330214662
:1059F0003046FFF79EFFE3E7606944F2080622465F
:105A000030442946FFF74AFF94F83330606967F362
:105A1000010384F8333022463044FFF705FFCFE717
:105A20000720F8BD2DE9F04188461946054617467E
:105A30001E46FFF7EEFB0446C0B18022002125F090
:105A40002CFA94F83230656168F3010363F07F0348
:105A50003146A78384F832302046FFF7A5FF014680
:105A600038B121462846FFF7AEFB00242046BDE8AA
:105A7000F0812046FFF708FC0028F7D0F1E710B5C9
:105A80005BB11C785B78FFF7CDFF28B190F832301E
:105A900064F3C71380F8323010BD01231C46F2E7CF
:105AA00073B590F83330828B0E4690F8321005466D
:105AB00003F0030301F003014069FFF7B3FF04465D
:105AC00030B33146FFF7E0FB024620BB33460146C8
:105AD00000942846FFF733FD2B8CE28B9A4200D2CC
:105AE000FEE7238495F92F3084F82F3095F8323073
:105AF00094F83220C3F3830363F3850284F83220E1
:105B000095F83230D2B2DB0963F3C71284F8322041
:105B1000204602B070BD2046FFF7B2FB0024F7E735
:105B200038B500230B8013800D461446FFF738FE6E
:105B3000024658B12B8801332B80FFF7CFFB238817
:105B4000184420801046FFF745FEF1E738BDC0E954
:105B50000010704738B504460025C0E900550346DB
:105B6000064A083000F045F9C4E90455C4E9065571
:105B7000C4E90855A562204638BD00BF1F5C00007F
:105B80004B688B4201BF02695A600361002018BF55
:105B90001820704730B569B100F118050023446939
:105BA00054B90BB900F114030830A842F7D153B12E
:105BB000C3E90012002030BD8C42F5D184699442C3
:105BC000F2D11820F7E70320F5E7026843680A439B
:105BD0000B4302604360083000F032B9436831EA99
:105BE000030301D0FFF7F1BF704770B506680446A4
:105BF000A6B100230569036035B12B6813B13146A6
:105C0000284698476D68F7E704F11805636913B1F2
:105C1000A169304698470834AC42F7D170BD08B549
:105C2000FFF73AFABDE808402030FFF7DEBF08B5BD
:105C3000FFF7A0FABDE8084021F0FEBB08B5FFF76A
:105C400099FABDE8084021F0FFBC10B5437C04463A
:105C50003BB9FFF78FFA227C0521BDE8104021F007
:105C60009DBC0D2010BD30B585B004AD1023044699
:105C700025F8023DFFF77EFA227C00952346052198
:105C800021F01CFC20B9BDF80E300F2B98BF172057
:105C9000003018BF0120607405B030BD00220274CE
:105CA0004274FFF7E0BF10B5002304460374437449
:105CB000FFF7F4FF204610BD427C22B9027C01327E
:105CC0000274FFF7D0BF7047F0B585B004AC17463B
:105CD00024F8023D0E461D46FFF74CFA00943B4661
:105CE0000022314621F0EAFB20B9BDF80E30AB426C
:105CF00038BF172005B0F0BD0A4624230321FFF763
:105D0000E3BF0A4608230421FFF7DEBFF0B585B0E4
:105D100004AC174624F8023D0E461D46FFF72AFA4A
:105D200000943B460022314621F0C8FB30B9BDF853
:105D30000E300A9AAB4228BF2B46138005B0F0BD47
:105D40001FB500290DF10E03009314BF012102219C
:105D50004FF480731446FFF7D9FF18B9BDF80E3021
:105D6000A4F8043104B010BD70B50C4615461E46AB
:105D7000FFF700FA33462A462146BDE8704021F07D
:105D8000F3BB0029B2F8043114BF01210221FFF74F
:105D9000EBBF0A4624230321FFF7E6BF0A46082388
:105DA0000421FFF7E1BF70B50C4615461E46FFF70C
:105DB000E1F933462A462146BDE8704021F0D8BBC0
:105DC0000A4610230521FFF7EEBF10B50C46FFF77A
:105DD000D1F921464FF0FF32BDE8104021F0DEBB83
:105DE000002914BF01210221FFF7EFBF0521FFF7B2
:105DF000ECBF02600022426070470022C0E900222E
:105E00007047F8B543688B4206460D4616D04C687D
:105E1000A4B90846FFF7AEF9083086420CD177687E
:105E200047B9C6E900552846FFF7A4F9FBF742FA3F
:105E30003846F8BD7D6075602046FAE71820F8E71F
:105E400010B50446FFF796F921460830BDE810402A
:105E5000FFF7D7BF03682BB15A68026002B94260EE
:105E600000225A601846704770B5466804462046BE
:105E7000FFF7F0FF054658B103689847AE42F6D1E8
:105E8000206828B1FFF776F9BDE87040FBF712BA39
:105E900070BD43684968981AC00F8A1AB0EBD27F68
:105EA00004BF581AC00F704703682DE9F041064639
:105EB0000F4633B94C68FFF75DF92346BDE8F04162
:105EC00018478B68984733683F685C68031B002B52
:105ED000B8BF241A0546A8BF00243046FFF74AF988
:105EE000224629463B46BDE8F041184770B58D680B
:105EF0008D420C4607D003688B4206D105601146DF
:105F0000FFF7D2FFA46070BD1346002BFAD09A6849
:105F1000A242F9D19D60F5E710B50446FFF72AF9D2
:105F20002146024ABDE81040FFF7E0BF04DD020051
:105F30002DE9F04106460C469046FFF7D7FF35683D
:105F40003DB93460A56041463046BDE8F041FFF7F9
:105F5000ABBF0027D8F808309847294602462046AC
:105F6000FFF797FF40B11FB1A560BC60BDE8F081AD
:105F70003368A3603460E6E7AB682F460BB11D467B
:105F8000E8E7AC60A360F1E7002A10B5044600DA48
:105F9000FEE711444160FFF7EDF82146024ABDE8F3
:105FA0001040FFF7C5BF00BF04DD020070B50468F4
:105FB00005460E467CB18B6898476368C01A002876
:105FC00009DB284632462146FFF790FF236820462A
:105FD000BDE87040184731462846BDE87040FFF7DD
:105FE00063BF401AC00F704710B50446FEF772FC3D
:105FF00028B120460249BDE81040FFF7D7BF10BDC9
:1060000004DD0200002A10B5044600DAFEE7114460
:106010004160FFF7AFF82146024A0430BDE8104066
:10602000FFF786BFF8DC020010B50446FFF7A2F8C0
:106030002146034A0430BDE81040FFF757BF00BFB8
:10604000F8DC020010B50446FEF744FC28B1201D20
:106050000249BDE81040FFF7A9BF10BDF8DC0200FF
:1060600010B50446FFF718F821465030BDE810403F
:1060700014F039BD38B50D460446FFF70DF82A4631
:1060800021465030BDE8384014F0BABC10B5034981
:106090000446034824F0C2F9204610BD61600000A8
:1060A00075600000037A012B06D100884FF6FF735C
:1060B000C31A584258417047002070478378012B1B
:1060C0001ABF0078C0F34000184670478378022B4F
:1060D0001ABF0078C0F3800001207047F0B5144665
:1060E00085B00D463C22002120468DF80C1024F08E
:1060F000D4FE002D64D02B681B785B0703D00626E6
:10610000304605B0F0BD01AF3946284601F02CFA03
:1061100006460028F4D19DF80C30022BEFD197E809
:10612000030084E8030004F13201284601F0E3F99A
:106130006B7984F8363095F90C3084F837306B7B06
:1061400084F83830284601F063FC0746284601F001
:106150003FFC1D2FD4D9028840F6FF739A42CFD15D
:106160008378002BCCD1C378002BC9D10379032BC2
:10617000C6D1427994F83930121162F3030384F8DE
:106180003930427962F3451384F83930437994F811
:106190003920C3F3C00363F3041284F83920831D4C
:1061A00004F10802163053F8041B42F8041B834222
:1061B000F9D11A68C4F819205A68C4F81D209FE75D
:1061C00007269DE70378DB0704D500F129012C3071
:1061D00016F007BA0B2070477F2907B509D090F851
:1061E00029308DF804308DF80510436B006B01A940
:1061F000984703B05DF804FB08B5383001F089FC1E
:10620000002008BD70B506460D4681B1448984B9A9
:1062100019F0E4F94FF6FE7280B290FBF2F302FB44
:10622000130301339BB2738120462B8070BD07207E
:10623000FCE70D20FAE72DE9F041884606461146B5
:10624000404625F078FAC5B2102D27D806F1180778
:10625000384625F056FAA84202460FD14146384644
:1062600024F0E8FD044648B93046FEF791FF4FF4AC
:106270008021FFF7B3FC2046BDE8F0812A46354473
:1062800041463846002424F0E4FD2C763046FEF7E3
:106290007FFF4FF48021FFF798FCECE70720EBE746
:1062A0001122FFF7C8BF10B5C2888A42044607D141
:1062B000FEF76EFF4FF40031FFF790FC002010BD99
:1062C000E180383001F01CFC2046FEF761FF4FF4FE
:1062D0000031FFF77AFCF1E770B500F110040546D4
:1062E000082220460E4624F0A5FD40B92846FEF7B8
:1062F0004FFF4FF40021FFF771FC002070BD3068A4
:106300007168234603C32846FEF742FF4FF400217D
:10631000FFF75BFCF1E70000F7B5037843F00103FA
:1063200003F081036FF3C7130370437800256FF305
:1063300041034370857004460F4619F04FF9E07031
:1063400019F04CF94FF6FF7304F13806E380284A40
:1063500020710B2323726372E26084F82930224695
:106360003946657165816585C4E90B5565633046BD
:1063700001F09EFB394623461E4A04F16800FFF7F0
:1063800038FD1D4BC4F80051C4E91C3504F17003FD
:10639000C4E91E356846A4F8065100F0D1FF8022FA
:1063A0002946A018A4F8045124F077FD11222946AB
:1063B00004F1180024F071FD25616561304601F09B
:1063C000CCFB0E492046FFF787FF0D492046FFF71B
:1063D00067FFE1882046FFF766FF6946304601F017
:1063E000A2FB3046A18F01F094FB204603B0F0BD24
:1063F00000F8FF07336C0000776C000027DD020017
:106400001CDD020003788178DB0904BF4378C3F305
:10641000000302460CBF83F00103002331B938307A
:106420000BB101F0B3BB517A01F0BDBB7047A1F1D4
:106430000B030F2B70B5054623D80123C2688B4090
:1064400013421ED0037A8B424FF0000407D1FEF7AF
:106450009FFE4FF48031FFF7C1FB204610E04689D4
:106460000172A0F80441002EF7D14172FFF7CAFF74
:106470002846FEF78DFE4FF48031FFF7A6FB30462D
:1064800070BD0720FCE738B5A2F10B040F2C0DD826
:106490000124C56894402C4208D0448944B18C4200
:1064A00006D14272FFF7AEFF002038BD0720FCE79F
:1064B0000D20FAE710B542893AB1027A42720024FF
:1064C0004481FFF79FFF204610BD0D20FCE70139F6
:1064D000052908D8DFE801F0030C1014181C037814
:1064E00043F0020303708378B3B96830FFF7A8BCA8
:1064F000037843F00403F5E7037843F00803F1E77A
:10650000037843F01003EDE7037843F04003E9E735
:10651000037843F02003E5E7704700004385FF233D
:1065200030B480F82930064B029D0563002A08BF6D
:106530001A46C3681340C36230BCFFF7C8BF00BF30
:1065400000F8FF0773B51E460378DB07054618D52C
:10655000FFF7B4FDB8B92846FFF7B8FD044690B977
:10656000002A069B0093284618BF13466E630A460E
:1065700008BF4FF496730121FFF7D0FF204602B009
:1065800070BD0D20FBE70520F9E773B51E460378C3
:10659000DB07054613D5FFF791FD90B92846FFF7B5
:1065A00095FD044668B9069B0093284613466E6322
:1065B0000A460221FFF7B2FF204602B070BD0D204F
:1065C000FBE70520F9E710B50478E2070AD5C4F324
:1065D00000144CB98378042B06D00421FFF777FF11
:1065E000204610BD0D20FCE71820FAE770B5441EC8
:1065F0005D1E073014F8016F05F8016F8442F9D170
:10660000080E1872080C5872080A9872D9721A7318
:1066100070BD10B50C46002240F60301204601F083
:10662000E5F84FF6FF71204600F0E4FE4FF6FF71EB
:10663000204600F00EFF20460721BDE8104001F083
:10664000B8B92DE9F3410E46054600224FF440410A
:10665000304601F0CBF8E988304600F05DFF05F1E7
:106660003E01304600F0C4FF304601F0B1F94FF072
:10667000FF3303700F2200238370C37042700446FF
:106680002846FEF77FFD90F874321B0735D50323AB
:106690002371202363712846FEF774FD0DF1070175
:1066A00000F5E67004F0ABFF9DF8072063790AB3AC
:1066B00043F0010305F1180763711021384625F0F6
:1066C0003AF8A31D804610221846002124F0E5FB6D
:1066D0003946424624F0BDFB55F8103FC4F8163049
:1066E0006B68C4F81A301E21304601F09EF902B0E2
:1066F000BDE8F08123F00103DCE70421F4E770B585
:10670000E2B00446002309A80E46049315F029FFC1
:106710000DF10E01204600F0C0FF05AD04A9204692
:1067200000F0DBFF2B4630469DF80E200499FFF762
:106730005DFF1022216909A815F055FD204601F0E2
:1067400036F802388DF80F00204601F04CF9064665
:10675000204601F05DF90D22CDE900529DF80F3081
:106760000246314609A815F045FD00B1FEE7204676
:10677000256801F038F92946024609A815F0F7FD09
:10678000204601F025F90546204601F021F906468C
:10679000204601F03DF90123324629460093034685
:1067A00009A815F029FE204601F04DF90DF10F0260
:1067B000014609A815F0AEFE09A815F0DFFE62B08B
:1067C00070BD0000F7B50C4605461746FEF7DAFC2B
:1067D00023681B781907064623D50DF103012046CF
:1067E00000F06BFF9DF80330082B1CD0102B34D029
:1067F000002B49D106F518732361A37BDA0705F155
:106800003E0509D4D6F87012204600F076FFD6F87F
:1068100070320133C6F870321FB129462046FFF7A7
:106820006EFF03B0F0BD06F5FA732361A37BDB07AF
:1068300005F13E05F0D4D6F82412204600F05DFFA5
:1068400006F5E87006F0A3FED6F8E01101F07F012E
:106850000131204600F098FFDEE70C4B18680C4B26
:106860002361D5F8001101900131C5F800112046CF
:1068700000F043FF01A9204600F05DFFFF21204604
:1068800000F082FF034DC7E7FEE700BF10DD020006
:106890002FDD020014DD020021B9D0F8B030013341
:1068A000C0F8B030037A93420DD1B0F80631B3F599
:1068B000007F3CBF0133A0F80631B0F8062100F597
:1068C000827006F01EBF70472DE9FF410D46044659
:1068D0004FF0000801A9284617461E468DF80C8087
:1068E00000F096FD01A8FFF7DDFB68B16379013385
:1068F000DBB2637133B904F1380001F014FA04B06B
:10690000BDE8F08184F80580A378013B052B04D80D
:10691000DFE803F00403131B035EFEE7D4F8A430A2
:10692000658D0133C4F8A43018F01DF92A460146DC
:1069300004F17000FFF728FBE1E7D4F8A030013341
:10694000C4F8A0300023A37034E0284601F017F803
:10695000002837D096BB2B681B7899062ED57FB3BD
:106960003B681B78C3F300132278D2070CD55BB1C8
:1069700018F0F9F86422014604F17000FFF704FBF7
:1069800005212046FFF7A3FDD4F89C300133C4F85D
:106990009C30AB7BDB075EBF23790133237100237F
:1069A000A3702046FEF7EEFB3246294600F56170E3
:1069B00007F07BFC204600F069F8A0E70023D3E74E
:1069C0003346D1E7D4F898300133C4F89830E0E783
:1069D0000023E367B7E770B50378C56CDA070446B0
:1069E00007D4294620460B230022BDE87040FFF75C
:1069F0006BBF8378013B052B04D8DFE803F0040369
:106A00001D28033AFEE74FF6FF71383001F078F8A1
:106A100094F829306B7129462046FFF7FAFD2B6860
:106A200000229A7020232B7303236B7301222946C3
:106A30002046FFF7C7FE20E0437A6B712946FFF737
:106A400000FEE3785A1CE2702A689370EAE7437A02
:106A50006B71FEF797FB294600F5617007F062FB4A
:106A60000028BED1AB7BDB07E0D42B6822799A707B
:106A7000DCE7C16F284600F0EFFF0023637104F1EB
:106A8000380001F050F90028ABD170BD81780029A1
:106A900058D1037813F0010210D162F3861362F328
:106AA000451362F3410362F3820362F3C30362F3AB
:106AB00004130370C2677030FFF72EBAC3F380125D
:106AC0006AB161F386130370052383708378062B04
:106AD00038D8DFE803F02B2D2F3131333100C3F3E9
