:10100000000004203D63020081630200836302004C
:10101000856302008763020089630200000000000C
:101020000000000000000000000000008B630200D0
:101030008D630200000000008F63020091630200D4
:1010400001320200A199020093630200936302003F
:1010500093630200936302009363020093630200B0
:1010600093630200936302009363020093630200A0
:1010700093630200792802009363020093630200E5
:101080009363020093630200936302009363020080
:101090009363020093630200936302009363020070
:1010A0009363020093630200936302009363020060
:1010B0009363020093630200000000000000000040
:1010C0009363020093630200936302009363020040
:1010D000D51C020093630200936302007541020075
:1010E0009363020093630200936302000000000018
:1010F0000000000093630200000000009363020000
:1011000000000000000000000000000000000000DF
:1011100000000000000000000000000000000000CF
:1011200000000000000000000000000000000000BF
:1011300000000000000000000000000000000000AF
:10114000000000000000000000000000000000009F
:10115000000000000000000000000000000000008F
:10116000000000000000000000000000000000007F
:10117000000000000000000000000000000000006F
:10118000000000000000000000000000000000005F
:10119000000000000000000000000000000000004F
:1011A000000000000000000000000000000000003F
:1011B000000000000000000000000000000000002F
:1011C000000000000000000000000000000000001F
:1011D000000000000000000000000000000000000F
:1011E00000000000000000000000000000000000FF
:1011F00000000000000000000000000000000000EF
:1012000010B5054C237833B9044B13B10448AFF340
:1012100000800123237010BD300100200000000079
:101220001C2F030008B5034B1BB103490348AFF360
:10123000008008BD00000000340100201C2F0300C6
:10124000154B002B08BF134B9D46A3F5803A002198
:101250008B460F461348144A121A2DF0D2FC0F4B3E
:10126000002B00D098470E4B002B00D09847002051
:10127000002104000D000D48002802D00C48AFF3F7
:1012800000802DF05FFC2000290000F015F82DF003
:1012900033FC00BF00000800000004200000000034
:1012A000000000003001002088CE00200000000077
:1012B000000000007047000070B505460E4631463C
:1012C000284621F0F1F904F0A0FF044628B90B4BA1
:1012D0000B4A0C486A212DF0F1FB00F055F821F083
:1012E00015FA18B1204604F096FFE8E7204605F00D
:1012F000BDF9204621F010FAF1E700BFD1FF02004E
:10130000CCFF0200DAFF020038B504460D4600F0BB
:1013100007FE04F5657104F55E7000F04AF9234696
:1013200004F58461154A04F5607000F09CF904F23C
:101330009A33C4F8943304F226428023A4F89833F5
:10134000C4F82024002340F2145284F81C3484F89A
:101350001D34A4F8242484F83C3929462346084A3D
:1013600004F5146006F0CDFA22460649201D00F06F
:1013700060FA21F085FC204638BD00BF95150000BD
:101380008B140000BB13000010B5054C014620462D
:10139000FFF7BAFF00F08CFE844200D0FEE710BDDC
:1013A00050010020D0F8942300F29A339A4203D1DE
:1013B00000F5146006F0BABA7047FFF7F3BF2DE9E5
:1013C000F8430446051D00F55E764FF0020801273C
:1013D000284600F04EFB94F81C3490B1022B18D133
:1013E000012B21D3022BF3D1304600F01DF980B937
:1013F00094F83C3984F81C04002BE9D084F83C09AB
:10140000E5E7012BEDD194F81D14304600F0DEF82D
:10141000F8B1D4F8941304F29A30091A89B291B34E
:1014200021F036FC78B3FEE7204600F05DFE08B1FF
:1014300020F058FD204600F061FE0028E9D130463A
:1014400000F0BBF80028E4D1284600F0A8FB84F89F
:101450001C74284600F0BAFB28B9284600F0BFFBF0
:1014600084F81D04CFE794F8C090284600F0C3FC30
:10147000B9F1000F04D094F8C0300BB984F83C796E
:1014800084F81C84B0E7BDE8F88308B500F010FECE
:10149000BDE80840FFF793BF00F29A33C0F89433D9
:1014A0008023A0F8983300F5146006F03FBA08B521
:1014B00000F0FEFD18B1BDE80840FFF7EDBF08BD24
:1014C00038B504460D4600F0F3FD38B12A462146F2
:1014D00000F56070BDE8384000F0CEB838BD0000BF
:1014E000F0B50C46A1B016461F4600F011FE23468B
:1014F000194A1A4D802168462DF030FF68462DF0BC
:1015000080FF69460246002001F044FD0024BC42F1
:10151000A0B20ED0292C0BD0A4EB840104EB440024
:10152000335D2A46803168442DF018FF0134EEE720
:10153000204600EB4000C0F18001094A68442DF0CC
:101540000DFF68462DF05DFF0DF10101421E0020E8
:1015500001F020FD21B0F0BD190003002D000300B3
:101560003300030038B5D0F8203400F226455B1B69
:1015700004469BB251B91A46294601F08DFB40F250
:101580001453C4F82054A4F8243438BD2A46FFF775
:10159000A7FFF4E7FFF7E6BF838843B103685A1C4F
:1015A000026019708388013B83800020704703200C
:1015B0007047002201608280704708B54FF6FF73C4
:1015C00083807E210068FFF7E7FF08BD7E2938B5DC
:1015D00005460C4600680AD87D2903D2112901D09E
:1015E000132906D18388012B08D8032005E0F829A8
:1015F000F7E72146FFF7D0FF40B138BD7D21FFF767
:10160000CBFF84F020012868FFF7C6FFAA88054BAE
:101610005440E4B2002033F8143083EA1223AB8044
:10162000EBE700BF360003002DE9F0418688036830
:10163000F543ADB2E9B204461F68B3F80480FFF782
:10164000C5FF48B9290A2046FFF7C0FF20B97E210F
:101650002068FFF7A1FF20B123681F60A3F8048072
:10166000A680BDE8F08130B500250570C0E9011203
:10167000C0E9033530BD00002DE9F843374E04467C
:101680000D468F184FF00208AF4265D0237815F849
:10169000011B012B24D01BD3022BF5D16068B0F8BD
:1016A0000490B9F1000F50D0B4F810C081F02001BF
:1016B00081EA0C02D2B236F8123083EA1C2323826C
:1016C000FFF76AFF638A0133638201232370DBE73C
:1016D0007E29D9D1012323704FF6FF732361D3E70D
:1016E0007D2917D07E2918D06068B0F80490B9F130
:1016F000000F2AD0B4F810C081EA0C02D2B236F83A
:10170000123083EA1C232382FFF746FF638A0133EA
:101710006382B9E784F80080B6E7638A002BDBD0E8
:10172000012B10D9228A4FF2B8039A420BD1636879
:101730001A68023A1A609A8802329A800021D4E923
:1017400002309847C8E70621F9E7A368E06803215B
:10175000984784F8009097E7BDE8F88336000300C7
:1017600070B5036803625A1E044611468B4202D9C3
:1017700020890144FAE7616202212177C4E90A3332
:101780000021216384F8341084F835104FF6FF717E
:10179000E186A363934202D921890A44FAE7C4E9A6
:1017A0000F23C4E911330023A365A4F85C3004F1CE
:1017B0005E03236704F14C05284604F0B2FE01469F
:1017C00018B1284604F0ABFEF6E704F15806503491
:1017D000B4420ED0204604F0A4FE054638B10146BE
:1017E000204604F09CFE284604F07AFEF2E704341A
:1017F000EEE770BD70B5016011440446416002819E
:1018000000F1580600F15005B54204D0284604F016
:101810007DFE0435F8E704F14C0004F077FE002368
:101820002046C4E90333C4E90533FFF799FF204696
:1018300070BDC0E903127047C0E905127047012B63
:101840000AD002D3022B0ED1FEE7114442688A422D
:1018500009D80389C91AFAE7891A02688A4202D9A3
:1018600003891944FAE708467047012B0ED002D3CA
:10187000022B15D1FEE78A423FBF43685B1A01681D
:10188000511A2CBF511AC91888B270478A4281BFB9
:10189000436800689A1A091A94BF891A8918F3E7ED
:1018A0000021F1E710B5144612120A700122FFF769
:1018B000C6FF047010BD10B5134601220C78FFF767
:1018C000BEFF00782402204480B210BD2DE9F04113
:1018D000876A90F81C80C26A0E4643463946044621
:1018E000FFF7C3FF0128054614D942463946204672
:1018F000FFF7E1FF023DC5F30D05354340EA050260
:10190000434692B239462046FFF7CCFFE36AA36212
:10191000BDE8F081E762FBE72DE9F047067F022E84
:1019200080460F4691461C4622D04D68836A9D42F0
:1019300021D13346C26A2946FFF797FF3F688246A6
:1019400033463A4629464046FFF78FFF204450452C
:1019500011DC94B119F8013B3B70394698F81C3002
:1019600001224046FFF76BFF013CA4B20746F0E7B7
:101970000D20BDE8F0870720FBE72046F9E72DE9B9
:10198000F047057F022D04460F461CD04E68836A3F
:101990009E4218D1D0F82C802B4642463146FFF7A4
:1019A00064FF3F6881462B463A4631462046FFF7A2
:1019B0005CFF814507D92B46424639462046BDE8A3
:1019C000F047FFF752BF0020BDE8F0872DE9F04156
:1019D000067F022E04460F4616D04D68836A9D424C
:1019E00014D13346C26A2946FFF73FFF3F6880465D
:1019F00033463A4629462046FFF737FF804505D94A
:101A0000E7620020BDE8F0810D20FBE70720F9E741
:101A100070B5037F022B044627D00021FFF756FF45
:101A2000237F04EB830304F14C061A6A2263A26A43
:101A30001A62304604F075FD054658B1014630463D
:101A400004F06DFD207F1430294604EB800004F083
:101A500060FDEEE7E56825B12346227F216B206912
:101A6000A84702232377002070BD0D20FCE7006B00
:101A70007047C26B436A9A4205D1836B006A1B1A96
:101A80005842584170470020704790F8353033B9BC
:101A9000C36B426A9B1A18BF012380F83430704729
:101AA00038B50446806D08B9172038BDB4F85C50CD
:101AB00004F018FD8542F7D204F15E0510232A4692
:101AC000B4F85C10A06D04F01FFD0028ECD0B4F851
:101AD0005C30A564034428442067A4F85C300020EF
:101AE000E3E738B590F83450016C2A460446FFF716
:101AF000E2FE430401D4172038BDA16D05F11400A6
:101B000004EB800081B904F00CFDA0650028F2D040
:101B10000023A4F85C302046FFF7C2FF0028EBD179
:101B2000022384F83530E7E704F0FDFCEDE7F8B573
:101B3000044694F83460656C256404EB86073B6AC0
:101B40009D4227D0324629462046FFF7B4FE0304C3
:101B500002D5BB6B9D421DD1C0F30D02334602324C
:101B600029462046FFF76BFE334607466064022293
:101B700029462046FFF763FE8742A06404D0012374
:101B800084F835300020F8BD2046FFF7AAFF002872
:101B9000CFD1F8E7032384F835301720F3E710B5E9
:101BA0000146FFF766FF044670B90846FFF76DFF70
:101BB00091F834300E3351F823308C65C1E910337D
:101BC000BDE81040FFF7B3BF172010BD90F83500F7
:101BD00003281ABFB0FA80F040090120704738B5D9
:101BE00090F83520012A044603D0022A14D000259B
:101BF00010E0816C90F834300D78FFF720FE636CB4
:101C0000A064984206D12046FFF76BFF10B1204632
:101C1000FFF78DFF284638BD836C026F13F8015B18
:101C200083649342F6D1FFF73BFFEFE7D0E90E2341
:101C3000416A99420CD1017F012909D00168531EE4
:101C4000994202D902891344FAE74362C363704799
:101C5000016A91420AD1027F42B14168013399423F
:101C600002D802899B1AFAE703628363704738B58A
:101C7000037F022B044611D0083300F14C0550F8C5
:101C80002330C0E90A33284604F04BFC014618B162
:101C9000284604F044FCF6E7022323772046BDE8FB
:101CA0003840FFF7C3BFF8B5047F022C05460F4646
:101CB00000D1FEE72346C66AB4FA84F4640901221F
:101CC00031460834FFF7BBFD55F82430834203D07A
:101CD0003770E8620020F8BD2846FFF7C8FF0320F0
:101CE000F9E770B5D0E90A32934204461BD1027F6E
:101CF0000832002150F82260B3420CBF4FF4004676
:101D00000026FFF7D0FF054658B901462046FFF7E9
:101D1000CAFF054628B9237FA16A32462046FFF74D
:101D2000C1FD284670BD0025FBE770B505460E468F
:101D300091B1037F022B11D0FFF7D3FF044648B9BE
:101D4000314605F14C0004F0E4FB4FF48041284695
:101D5000FFF7BCFD204670BD0724FBE70D24F9E723
:101D600038B5037F022B04460D4607D0FFF7B9FFB5
:101D700018B9E36A2B60A36A6B6038BD0D20FCE7DD
:101D800038B5037F022B04460D4608D0FFF7A9FFA4
:101D900030B929462046BDE83840FFF784BF0D2002
:101DA00038BDF8B5037F022B07460D46164610D006
:101DB000FFF797FF044650B92E44B54207D015F8F7
:101DC000011B3846FFF76FFF0028F6D00446204677
:101DD000F8BD0D24FBE738B50D460446FFF747FF75
:101DE0000DB1012D00D12577237F083354F823301E
:101DF000C4E90A3338BD2DE9F0470446FFF739FE40
:101E000000285BD12046FFF740FE94F834300E33B3
:101E10000B2754F82380464694F8345004EB850A87
:101E2000DAF82030B34232D02A4631462046FFF756
:101E300042FD10F4004F814603D0DAF83830B34247
:101E400024D119F4804F12D005F1140004EB800066
:101E500004F067FB054650B194F83400143004EBED
:101E60008000294604F05BFB284604F039FBC9F3E7
:101E70000D02314694F8343002322046FFF7DFFC81
:101E8000013F17F0FF070646C6D1FEE733460E3581
:101E9000204644F82530FFF7C9FE656900264FF655
:101EA000FF7384F83560E38655B1A06994F8342057
:101EB00023464146A8473046BDE8F0871720FBE798
:101EC0002846F9E7182826D8DFE800F0280D0F117A
:101ED0002513151725252525191B1D1F2525252506
:101EE000252525232100012070470E2070470B2057
:101EF00070470C207047092070470320704702206C
:101F0000704704207047112070471220704713203B
:101F100070471420704700F58040704700207047DC
:101F20002DE9F0410646044646F8041B4FF40072C2
:101F3000884600F1F9013046FFF75CFC0025A667F2
:101F400004F17C0304F19C02C3E9005508339A4272
:101F5000FAD1A4F89C50C4E9285504F1A80003F074
:101F600031FD4A4BC4F8C830C823A4F8CC3004F182
:101F7000D4074FF6FF73A4F8D030454A84F8C05018
:101F800023464146C4F8C45084F8CE5084F8CF505C
:101F9000384605F0B6FC042184F8F0103D49C4F839
:101FA000DC500968C4F8F4100023002204F55C71C9
:101FB000C4E93823C4E93A2384F8F85084F8F95284
:101FC00084F8FA5284F8FB5284F8385384F8395371
:101FD00084F83A5384F83B5384F83C5384F83D53D7
:101FE00084F83E53C4F84453C4F84853C4F84C53DF
:101FF000C4F85053C4F85453C4F85853C4F85C534D
:10200000C4F86053C4F86453C4F8685384F86C533C
:10201000C1E90023236803B9FEE71F4B1F491C6079
:1020200022463046FFF708FC3C22002104F53F70B1
:102030002CF0E7FD04F5507004F068FA22461849C8
:10204000206804F0ECF822462068164904F01EF9D6
:102050002068012104F023F925462068002104F0BE
:10206000D0F82068104904F096FD55F8E00B0F49B0
:10207000224604F0ABFC77220021284603F06AFFD9
:10208000384605F053FC2046BDE8F08100F8FF0714
:102090006D24000038020300980A0020DB240000B1
:1020A000255800004157000075310000C530000080
:1020B000014B1868704700BF980A00200023C0F841
:1020C0005C33C0F86033C0F86433C0F86833C0F8DC
:1020D0004433C0F84833C0F84C33C0F85033C0F82C
:1020E0005433C0F85833704790F8F030042B1ABFBF
:1020F00090F8C00080F001000020704790F8F030A8
:10210000012B06BF90F8C00080F00100002070474E
:10211000D0F85C330133C0F85C3370472DE9F843E5
:10212000994690F83C3304469046002914BF0F4668
:10213000702713B10D20BDE8F88300F1E0053946A2
:10214000284603F09DFF0028F4D194F8FA2294F871
:10215000FB329A420AD00B220021284603F0FAFEF5
:1021600004F1D40005F0E2FB0320E4E704F1780673
:102170003B4606228021304603F0B9FE48B91FFADB
:1021800089F24146A06FFFF70CFE10B9304603F00C
:1021900091FE0328CFD1DEE7013804289ABF024B15
:1021A000185C0020704700BF45020300F8B511F02D
:1021B0000F0508D1022A04D11A462946E03003F05F
:1021C000C9FE28460CE090F8FB6290F8FA72F41B06
:1021D0000E2C06DDE0300E22002103F0BBFE0320B2
:1021E000F8BD90F8F942AC4217D0BE4215D93C4632
:1021F0000E2C02D90F3CE4B2FAE7BE3400EB8404A3
:1022000094F804C01CF0100F0DD00CF00F0EAE456A
:1022100009D16FF3041C84F804C034460E2C05D990
:102220000F3CE4B2FAE70137FFB2DEE7BE3400EB61
:1022300084040136257961F30305E9B241F0100108
:1022400062F346112171626863F3DE12626080F806
:10225000FB620020C4E713460222FFF7A7BF38B590
:1022600011F0300F00F1780408BFC0F8C420154603
:1022700000230622204603F03AFE48B929462046AC
:1022800003F07DFD20B92046BDE8384003F012BEC2
:1022900038BD2DE9F74304460E466846114691467F
:1022A000984603F05FFBDDE900570DB9F90717D534
:1022B00004F178084B4606223146404603F017FEEB
:1022C000D8B97B10FA0704EB030044BFE3585D590B
:1022D000A84790B9404603B0BDE8F04303F0EABD1B
:1022E000B8F1000F07D00D223146204603B0BDE8FB
:1022F000F043FFF7B4BF4246F6E703B0BDE8F08312
:1023000070B50446002694F8FA5294F8FB32AB42BA
:1023100037D0BE3504EB85021379D90616D404EB09
:1023200085052B796FF304132B7194F8FA3201337E
:10233000DBB20F2B84F8FA32E5D194F8FB3284F843
:10234000FA620E2B1AD90F3BDBB2FAE7C3F3030193
:10235000526803F06003402B41F08001C2F3D712B2
:1023600005D12046FFF77BFF0028D8D070BDB3FA17
:1023700083F35B092046FFF78CFFF5E784F8FB3217
:10238000C1E70020F2E700002DE9F04F044685B0D8
:1023900003F052FAD4E93823134352D004F1E00099
:1023A00003F0D5FD2F4F01900025019AEBB2934227
:1023B00047D2D4E93803C5F1200103FA01F1A5F1B0
:1023C000200220FA05FA23FA02F24AEA010A4AEA4E
:1023D000020A00230AF001021343A5F12003C5F10C
:1023E0002006029301D10135DFE70C236B43D91995
:1023F000DA5962BB4A68772A09D1206803921FF034
:1024000057FD082898BF184B039A98BF1A5C802183
:102410002046FFF724FFA0B9029A012303FA02F92C
:1024200023FA06F603FA05F8D4E9382349EA06093F
:1024300022EA080023EA090150EA0103C4E938014D
:10244000D1D1012384F86C3305B0BDE8F08F94F846
:102450006C33002BE0D0012380212046FFF719FFC9
:10246000D9E700BF480D03003C020300014B186888
:10247000FFF78ABF980A002010B590F8C0300446D4
:1024800033B1D0F8F4308B4204BF002380F8C03061
:102490002046FFF735FFF8B994F8F81099B10123F9
:1024A0000C222046FFF7F5FEB0B994F8F03084F81E
:1024B000F800042B07D0201DFFF7D9FA0123C4F838
:1024C000F40084F8C030204603F0FEF820B920461E
:1024D000BDE81040FFF758BF10BDFFF7CDBFF8B5FE
:1024E00000F1780405462046069EBDF81C7003F0F6
:1024F000FEFC50B93A463146A86FFFF752FC20B9AE
:102500002046BDE8F84003F0D5BCF8BD2DE9F04FFA
:10251000042B87B004460F46904602D0052B16D0F8
:10252000FEE7114604A803F035FADDE904654FF033
:10253000070A05F0010B9EB9BBF1000F10D10D2267
:1025400039462046FFF787FE07B0BDE8F08F1146F9
:1025500004A803F02BFA4FF0080ADDE90465E8E768
:1025600004F1A809484603F09AFB0DF10A0203A9F9
:10257000484603F03DFB484603F098FB6D100023EE
:1025800084F83C336019BBF1000F01D063599E59A8
:10259000B047012384F83C33054618B1FFF792FC9D
:1025A0000246CDE7BDF80A300193039B00935246E3
:1025B000434639462046FFF792FF0028C4D02A46FA
:1025C000BEE708B50022FFF746FE08BD38B5044651
:1025D000006803F022FE0021206804F0AFF900211A
:1025E000206803F027FE722280212046FFF737FE85
:1025F000054648B104F1E0007722002103F0AAFC6F
:1026000004F1D40005F092F9024B00221A6028462A
:1026100038BD00BF980A00200021806FFFF7B0BBD3
:1026200010B50446006803F07AFE0146A06FBDE8CD
:102630001040FFF7A5BB13B502A90023044641F8DB
:10264000043DA83003F07EFA20B99DF804102068FC
:1026500003F069FE02B010BD10B50446006803F037
:10266000F2FE002818BF0221A06F08BF0021BDE8BC
:102670001040FFF785BB13B502A90023044601F8FB
:10268000013DA83003F0B6F950B99DF807301BB1F1
:10269000022B07D8012100E00146206803F0D9FE93
:1026A00002B010BD0720FBE710B5044654F8780BC4
:1026B00003F08AFE01462046BDE8104003F003BB4C
:1026C00013B504460DF10601A83003F0C1F920B995
:1026D000BDF80610206803F07BFE02B010BD10B5F7
:1026E0000446006803F04FFE08220146A06FBDE8D3
:1026F0001040FFF756BB13B50822044601A9A830C5
:1027000003F037FA18B90199206803F040FE02B0CF
:1027100010BD10B5044654F8780B03F07BFE01465B
:102720002046BDE8104003F0CEBA90F83A13806F0F
:10273000FFF726BB13B502A90023044601F8013DAB
:10274000A83003F067F918B99DF8073084F83A33D8
:1027500002B010BDF8B505460E460024012707FA61
:1027600004F33342E1B204D10134202CF7D100202C
:1027700004E0A86FFFF704FB0028F5D0F8BD0023A4
:10278000F7B505460C460B6000F1A8070126B5F821
:10279000AE20B5F8B0309A420FD00DF1070138469F
:1027A00003F028F950B99DF807301F2B08D822688C
:1027B00006FA03F313432360E9E7002003B0F0BDFA
:1027C0000720FBE7D0F8C810FFF7C4BF13B502A974
:1027D000002341F8043D0446FFF7D1FF10B9019BE7
:1027E000C4F8C83002B010BDB0F8CC10783003F097
:1027F0006ABA00F1CC01A83003F02AB910B504463A
:10280000006803F050FE78B9206803F059FE68B9FB
:10281000206804F0BEF8002814BF03210021A06F37
:10282000BDE81040FFF7ACBA0121F8E70221F6E756
:1028300010B586B006A90023044601F8013DA83072
:1028400003F0D8F840B99DF81730032B03D8DFE820
:1028500003F029050F190C2006B010BDB4F8CC20E8
:102860000094114BD4F8C810206803F018FEF3E769
:10287000B4F8CC2000940D4BD4F8C810206803F0B5
:102880001BFEE9E70849019194F8CF10009194F8F4
:10289000CE30B4F8D0200294D4F8C810206804F0E8
:1028A00062F8D9E70020D7E7F75500005D56000031
:1028B0002DE9F84F0546E03003F049FBDFF858906A
:1028C000834600244FF00C0A05F17808E3B29B45DB
:1028D0001FD9D5E93A23C4F1200022FA04F603FAFD
:1028E00000F0A4F1200123FA01F106430E4306F0A3
:1028F00001020023134301D10134E7E70AFB04F38B
:10290000404653F8091003F03AFA0028F4D0BDE825
:10291000F88F0020FBE700BF480D0300F7B5002348
:102920000022C0E93A23044600F1A80700F1E006BE
:10293000B4F8AE20B4F8B0309A420BD001A93846B2
:1029400003F000F9054648B901220199304603F029
:1029500043FBEDE70025284603B0F0BD012341F21B
:10296000080280212046FFF794FCF4E713B50446E3
:1029700001A9A83003F0E6F828B90122019904F171
:10298000E00003F029FB02B010BD13B5044601A915
:10299000A83003F0D7F828B90246019904F1E00005
:1029A00003F01AFB02B010BDD0F8C410783003F069
:1029B000E6B910B500F178040421204603F0DFF9F0
:1029C00028B920460321BDE8104003F0D8B910BD56
:1029D0000321783003F0D3B90021783003F0CFB968
:1029E00010B500F178040521204603F0C8F978BB42
:1029F0000C21204603F0C3F950BB1821204603F0F8
:102A0000BEF928BB2021204603F0B9F900BB3521CF
:102A1000204603F0B4F9D8B90E21204603F0AFF9EF
:102A2000B0B94FF40171204603F0A9F980B940F222
:102A30000A21204603F0A3F950B93021204603F0C3
:102A40009EF928B920463121BDE8104003F097B91E
:102A500010BD10B5044603F0E9FB014604F178000F
:102A6000BDE8104003F0C6B90121806FFFF788B9B7
:102A7000FFF7D2BD0421806FFFF782B90C207047A9
:102A800013B504466946006803F098FC08226946BD
:102A9000A06FFFF786F902B010BD0221783003F075
:102AA00044BA90F8F010806FFFF76AB973B5044626
:102AB0000E46A8300DF1070102F09CFFA0BB9DF867
:102AC0000730042B07D8012202FA03F111F01B0F83
:102AD00002D14B0703D4032384F8F03001E084F8DB
:102AE000F020002384F8F8300C22012331462046E0
:102AF000FFF7CFFB94F8F030042B054608D070B9EF
:102B0000201DFEF7B4FFC4F8F400012384F8C030A0
:102B100015B184F8F8600025284602B070BD074B57
:102B20001B68C4F8F430F0E7FFF7CCF931460246F1
:102B30002046FFF794FB0546EEE700BF380203008E
:102B40000C2A10B51C4604D1FFF7B0FF20700120FD
:102B500010BD0020FCE7F0B585B004460D46002608
:102B6000114602A817468DF8076002F007FFDDE95D
:102B7000021303F0010201B9C2B15B1084F83C6397
:102B8000E0180AB1E3585958884701228DF8070028
:102B900084F83C23C8B93B4629462046FFF706FB8C
:102BA0008DF807009DF8070005B0F0BD0DF1070393
:102BB0003A4629462046FFF7C3FF0028F2D10D22EE
:102BC00029462046FFF747FBEAE7FFF77BF9024675
:102BD000F6E773B50D4602A9002341F8043D04460B
:102BE000A830164602F0AEFF014650B1FFF76AF971
:102BF000294602462046FFF72EFB0146084602B052
:102C000070BDB31E032BF9D8DFE803F002090F0FE4
:102C1000019B002229462046FFF7C8FAEDE7019AFA
:102C200029462046FFF797FFE7E73346019A2946F2
:102C30002046FFF76BFCE0E737B504460D46A830A9
:102C400001A902F07FFF70B9019A0B2A1CD8DFE8B6
:102C500002F0060C111111111B1B1B211621294614
:102C60002046FFF7AEFC03B030BD29462046FFF7F3
:102C7000ADFCF8E729462046FFF7ABFFF3E729460E
:102C8000204600F00BFEEEE7052229462046FFF71E
:102C9000E2FAE8E70C20E6E7F7B502AD01230027EA
:102CA00000F1A806044680F83C3305F8017D304663
:102CB00002F095FE042384F8F03084F8C0702946B1
:102CC000304602F097FE80B99DF807100B060CD530
:102CD000D4F8603311F0300F03F10103C4F860330E
:102CE00008D006222046FFF7BAFA002384F83C33C6
:102CF00003B0F0BD2046FFF79FFF38B19DF80710E5
:102D0000FFF7E0F802462046FFF7A5FA94F8FA220A
:102D100094F8FB329A4202D02046FFF7F1FA9DF870
:102D2000073094F8F92203F00F0332B19A421EBF24
:102D3000D4F864230132C4F864230F2B14BF013389
:102D4000012384F8F932D0E72DE9F0410446E03060
:102D500003F0FDF80C4E074600254FF00C087834C0
:102D6000EBB29F420ED908FB05F39A19127A0AB901
:102D70000135F5E79959204603F001F80028F7D00E
:102D8000BDE8F0810020FBE7480D030010B50446C4
:102D900000681FF0E5F9C1B2A06FBDE81040FEF772
:102DA000EFBF10B5044600681FF05AFCC1B2A06F17
:102DB000BDE81040FEF7E4BF10B50446006803F01C
:102DC000AEFAB0B10A280CD84FF4FA61414301F5CC
:102DD0005C2101F5346104F17800BDE8104002F097
:102DE00081BF192807D8054941F2883303FB001138
:102DF000F1E70349EFE70021EDE700BFB0DB230077
:102E0000CC3F0D0013B504460DF1070100681FF01B
:102E10002FFA30B99DF80710A06FFEF7B1FF02B08E
:102E200010BDFFF74FF8014604F1780003F07DF87C
:102E3000F5E713B502A90023044601F8013DA830C7
:102E400002F0FAFD20B99DF9071020681FF024FA5E
:102E500002B010BD13B504460DF1070100681FF064
:102E6000F3F930B99DF80710A06FFEF789FF02B0A3
:102E700010BDFFF727F8014604F1780003F055F87C
:102E8000F5E713B502A90023044601F8013DA83077
:102E900002F0D2FD20B99DF9071020681FF0DEF97D
:102EA00002B010BD13B504460DF1070100681FF014
:102EB0000BFA30B99DF80710A06FFEF761FF02B062
:102EC00010BDFEF7FFFF014604F1780003F02DF876
:102ED000F5E713B502A90023044601F8013DA83027
:102EE00002F0AAFD20B99DF9071020681FF0F6F93D
:102EF00002B010BDFEE7FEE710B5044603F0EEFA9F
:102F0000FFF74AF90146A06FBDE81040FEF738BF51
:102F10002DE9F348002202AD0023044665E90223AF
:102F20001EF0F7FD2946064604F1A80002F0BCFD9C
:102F300070B9DDE900BC0027BC4508BFB3450AD322
:102F4000BBEB060204F55C746CEB0703C4E90023D9
:102F500002B0BDE8F0880720FAE700F55C73D3E91A
:102F60000023783002F0D9BE10B50446006803F0A3
:102F7000F4F901462046BDE81040FFF7EBBB10B561
:102F8000044600680BF01CFE01462046BDE81040D8
:102F9000FFF7E0BB1346074A10B40446106828B197
:102FA0000A4621465DF8044BFFF7B8B80D205DF8DE
:102FB000044B7047980A0020FEF7E2BE0822006822
:102FC000FEF7EFBEF8B50546087F0C46C0F3800259
:102FD000C0F3400100F0010000F0BFFB05F17807ED
:102FE000064621463846FFF7E9FF40BB218A3846AE
:102FF00002F069FE18BBA168384602F073FEF0B912
:10300000E168384602F06EFEC8B9217DA86FFEF770
:10301000B7FEA0B9617DA86FFEF7B2FE78B9A17DB9
:10302000A86FFEF7ADFE50B93146A86FFEF7A8FEB7
:1030300028B9E17DA86FBDE8F840FEF7A1BEF8BD54
:1030400070B504460D46E03041F60D1103F018F856
:10305000002836D104F1780641F60D1306228021AE
:10306000304602F044FF60BB29463046FFF7A6FF1A
:1030700038BB2989304602F026FE10BBA97AA06F22
:10308000FEF77EFEE8B9E97AA06FFEF779FEC0B9D7
:10309000297BA06FFEF774FE98B9697BA06FFEF7DD
:1030A0006FFE70B9A97BA06FFEF76AFE48B9E97B95
:1030B000A06FFFF781FF20B93046BDE8704002F0F5
:1030C000F9BE70BD0B46014618B113B11846FFF7A3
:1030D000B7BF70472DE9F8430446164603292BD89D
:1030E000DFE801F02C252E0241F20B55082704F1F0
:1030F000E0082946404602F0C3FFE8B904F1780928
:103100002B463A468021484602F0F1FEF0B1522D9E
:1031100002D1012384F83D3340460B22002102F006
:1031200019FF04F1D400BDE8F84304F0FFBB082701
:1031300096F820301B0707D5BDE8F8830727F7E787
:1031400041F20B550727D2E75225D0E7522D06F161
:103150000401204609D1FFF735FF0028D9D14846A0
:1031600002F0A8FE0028E7D0D1E700F001FB00281C
:10317000F5D0D1E738B50D460446FEF799FF2A464B
:103180002146BDE83840FFF7A5BF10B504460068EA
:1031900003F039FC0146A06FBDE81040FEF7F0BD1A
:1031A00010B50446006803F053FB0146A06FBDE86C
:1031B0001040FEF7E5BDF0B5044689B0064654F868
:1031C000780B03F008FC00250746A9B2B9421AD2D1
:1031D0006A46306803F06BFC08B10135F5E79DF8ED
:1031E0001C301B07F9D4204602F01CFE48B9694682
:1031F0003046FFF7E7FE20B9204602F032FE0028F5
:10320000EBD009B0F0BD0020FBE7F0B5054687B074
:10321000044655F8780B03F091FC0026074601AAF6
:10322000F1B2206803F08CFC28B10136F3B29F4262
:10323000F5D2002044E09DF81430DB07F5D5284690
:1032400002F0F0FD00283BD101A92846FFF7B6FEA9
:10325000B0BBBDF80C10284602F035FD80BB9DF8D0
:103260000E10A06FFEF78CFD50BB9DF80F10A06FE5
:10327000FEF786FD20BB9DF81010A06FFEF780FDC5
:10328000F0B99DF81110A06FFEF77AFDC0B99DF856
:103290001210A06FFEF774FD90B99DF81310A06F87
:1032A000FEF76EFD60B99DF81410A06FC1F34001E8
:1032B000FFF782FE20B9284602F0D3FD0028B4D0E3
:1032C00007B0F0BD2DE9F04304468FB00746002556
:1032D00054F8780BADF8065003F07DFB80461FFADA
:1032E00085F9C14534D206AA4946386803F0DFFBA8
:1032F00008B10135F3E79DF834301B07F9D42046B7
:1033000002F090FDD8B906A92046FFF757FEB0B9E4
:10331000BDF82810204602F0D6FC80B90EAE26F883
:10332000320D02AB32464946386803F0C7FB48B954
:10333000102202A9B86FFEF734FD0028F1D00FB0BB
:10334000BDE8F083204602F08CFD0028D1D0F6E7DE
:103350000020F4E710B50446006803F045FB014681
:10336000A06FBDE81040FFF727BE13B504460DF16E
:103370000701A83002F04EFB20B99DF80710206825
:1033800003F037FB02B010BD10B50446006803F02F
:103390004DF80146A06FBDE81040FEF7F1BC37B50F
:1033A00005460DF10701A83002F024FB044620B9C0
:1033B0009DF80710286803F03DF8204603B030BDA3
:1033C00010B50446006803F0C9FB10220146A06F47
:1033D000BDE81040FEF7E5BC13B5002304460DF12F
:1033E000020201A9A830019302F002FC38B9BDF82D
:1033F0000230102B05D10199206803F0B3FB02B015
:1034000010BD0620FBE737B502A90023054641F8A9
:10341000043DA83002F030FB044618B90199286831
:1034200003F0F9FA204603B030BD10B50446006839
:1034300003F0D1FAC1B2A06FBDE81040FEF7A0BC06
:1034400013B502A90023044601F8013DA83002F09B
:10345000D1FA20B99DF80710206803F0C0FA02B035
:1034600010BD10B50446006803F0E9FA0146A06FEC
:10347000BDE81040FEF784BC37B502A9002305461D
:1034800001F8013DA83002F0B5FA044620B99DF8D4
:103490000710286803F0D7FA204603B030BD10B5F6
:1034A0000446006803F0F2FA0146A06FBDE8104040
:1034B000FEF766BC37B502A90023054601F8013DB9
:1034C000A83002F097FA044620B99DF80710286842
:1034D00003F0E0FA204603B030BD10B504460068A2
:1034E00003F0DCFA0146A06FBDE81040FEF748BCCF
:1034F00037B502A90023054601F8013DA83002F0C6
:1035000079FA044620B99DF80710286803F0CAFA32
:10351000204603B030BD10B5044654F8780B03F0D4
:103520007EFA01462046BDE8104002F0DBBB37B50D
:1035300002A90023054641F8043DA83002F09CFA98
:10354000044618B90199286803F06DFA204603B0C3
:1035500030BD10B50446006803F069FA0146A06F5B
:10356000BDE81040FEF70CBC37B502A900230546A4
:1035700001F8013DA83002F03DFA044620B99DF85B
:103580000710286803F057FA204603B030BD10B585
:103590009AB004466946006802F02AFE28B96946D6
:1035A000204600F0CCFC1AB010BDFEF78BFC0146A3
:1035B00004F1780002F0B9FCF5E737B505460DF1E6
:1035C0000701A83002F016FA044620B99DF807104A
:1035D000286803F01CFA204603B030BD90F83E1373
:1035E000806FFEF7CDBB10B500F23E310446A83027
:1035F00002F000FA30B994F83E132068BDE810409C
:1036000003F0FCB910BD37B504460DF10701A83031
:1036100002F0F0F9054638B99DF80710206803F06C
:1036200016FA0D2808BF284603B030BDF0B50026B5
:103630008FB0CDE90166044600F1780501AA03A91F
:103640002068F7B203F082FA002877D1284602F00A
:10365000E9FB40BB102203A9A06FFEF7A2FB10BB41
:10366000BDF81C10284602F02EFBE0B93946A06FC9
:10367000FEF786FBB8B99DF81E30032B08D8DFE8AB
:1036800003F0021416180021A06FFEF779FB50B961
:10369000284602F0C7FB30B99DF81E305BB12846C2
:1036A00002F0DFFBF0B10FB0F0BD0121ECE7022129
:1036B000EAE70321E8E79DF81F10A06FC1F340017E
:1036C000FFF77AFC0028EED10899284602F00AFBA1
:1036D0000028E8D1102209A9A06FFEF762FB00289C
:1036E000DDD0E0E7284602F09DFB0028DBD19DF805
:1036F0001E305BB9284602F0B4FB0028D3D128461F
:1037000002F0AFFB0136002898D0CCE79DF81F10DF
:10371000A06F01F00101FFF74FFC0028C3D1BDF8F5
:103720003410284602F0CFFA0028BCD1BDF836107C
:10373000284602F0C8FA0028DCD0B4E70020B2E73F
:10374000FEF71EBB002202F005BCC9B20068FEF7FE
:1037500017BB10220068FEF724BB00280CBF002016
:10376000082009B140F002000AB140F001007047A2
:10377000F8B5064691F820000C46C0F38002C0F36D
:10378000400100F00100FFF7E8FF06F17805074669
:10379000284602F047FB00283BD121462846FFF788
:1037A0000DFCB0BBA189284602F08DFA88BBA16848
:1037B000284602F097FA60BB217EB06FFEF7E0FA70
:1037C00038BB94F919102846FFF7BFFF08BB3946EC
:1037D000B06FFEF7D5FAE0B994F82010B06FC1F3DE
:1037E000C001FFF7ADFFA0B92169284602F07AFABF
:1037F00078B96169284602F075FA50B994F91A103F
:103800002846FFF7A2FF20B92846BDE8F84002F09D
:1038100028BBF8BD10B5044654F8780B02F0F0FD53
:1038200001462046BDE8104002F05CBA13B50446DC
:1038300001A9A83002F020F918B90199206802F016
:10384000E4FD02B010BD10B50446006802F0E6FDCC
:103850000146A06FBDE81040FEF792BA37B50546A5
:103860000DF10701A83002F0C5F8044620B99DF813
:103870000710286802F0D6FD204603B030BD13B50E
:1038800002A9002341F8043D0446FEF778FF18B969
:103890000199206802F065FD02B010BD70B50446C4
:1038A00000680D4602F0BFFCFEF70CFB29460346FC
:1038B00002222046BDE87040FEF778BC10B50446F1
:1038C000006802F046FC0146A06FBDE81040FFF71B
:1038D00037BF10B50446006802F0B8FC0146A06F7F
:1038E000BDE81040FFF72CBF13B502A90023044622
:1038F00001F8013DA83002F08DF820B99DF80710BD
:10390000206802F097FC02B010BD10B504460068B4
:1039100002F096FF011C18BF0121A06FBDE8104006
:10392000FFF70EBF73B502A90023054601F8013D5C
:10393000A83002F06FF8044688B928689DF807603F
:1039400002F07EFF003018BF0120B04207D09DF882
:103950000730286833B1012102F0F0FF0446204609
:1039600002B070BD2146F7E710B50446006802F0CA
:1039700067FF0238C0B2022896BF044B0021195CD1
:10398000A06FBDE81040FEF7FBB900BF4A0203007C
:1039900013B502A90023044641F8043DA83002F003
:1039A000D1F848B9019B032B06D8DFE803F0020FDA
:1039B000070B206802F031FF02B010BD206803F051
:1039C0004EF8F9E7206803F05CF8F5E7206802F0AC
:1039D00029FFF1E710B5044654F8780B02F0EFFE2A
:1039E00001462046BDE8104002F004BA37B502A9EE
:1039F0000024054641F8044DA83002F0DBF828B950
:103A00000199286802F0DFFE03B030BD2046FBE7D5
:103A100010B50446006802F03DFE08220146A06F82
:103A2000BDE81040FEF7BDB913B5002304460DF103
:103A3000020201A9A830019302F0DAF838B9BDF802
:103A40000230082B05D10199206802F027FE02B050
:103A500010BD0620FBE710B50446006802F06AFEC0
:103A600010220146A06FBDE81040FEF79AB913B5C9
:103A7000002304460DF1020201A9A830019302F0CF
:103A8000B7F838B9BDF80230102B05D1019920687C
:103A900002F054FE02B010BD0620FBE710B504464C
:103AA00054F8780B02F0A8FE01462046BDE810400D
:103AB00002F018B937B5054601A9A83001F0DCFFBE
:103AC000044618B90199286802F09AFE204603B00E
:103AD00030BD10B5044654F8780B02F0C1FE014623
:103AE0002046BDE8104002F0FDB810B5044654F879
:103AF000780B02F08AFE01462046BDE8104002F035
:103B0000F1B837B5054601A9A83001F0B5FF044664
:103B100018B90199286802F07CFE204603B030BD38
:103B200010B50446006802F091FD0146A06FBDE8A3
:103B30001040FEF725B910B50446006802F08EFD6E
:103B40000146A06FBDE81040FEF71AB910B5C2B02B
:103B50000446FF238DF8073002AA0DF10703002168
:103B6000006802F04DFD9DF80720A06F02A9FEF746
:103B700018F942B010BD10B5C2B00446FF238DF84D
:103B8000073002AA0DF107030121006802F038FD99
:103B90009DF80720A06F02A9FEF703F942B010BDFF
:103BA00010B50446006802F04FFE0146A06FBDE864
:103BB0001040FEF7E5B81FB50446694654F8780B87
:103BC00002F090FD28B969462046FFF7C2FD04B017
:103BD00010BDFEF777F90146204602F0A6F9F6E798
:103BE00030B5044687B0054601A954F8780B02F0B9
:103BF00044FE00283CD19DF814309B0733D50DF1CD
:103C00000201286802F080FE0DF10301286802F02D
:103C10008AFE01A92046FFF7D1F910BBBDF80C10B0
:103C2000204602F050F8E0B99DF81310204602F04B
:103C300059F8B0B99DF902102046FFF786FD80B90A
:103C40009DF903102046FFF780FD50B99DF8111033
:103C5000A86FFEF795F820B99DF81210A86FFEF72F
:103C60008FF807B030BD1421204602F05EF9F8E766
:103C7000FEF728F90146F7E710B58AB0002304469D
:103C8000ADF8023001AA0DF10201206802F0D0FD6A
:103C900038B901A92046FFF76BFD0028F2D00AB021
:103CA00010BD0020FBE730B58BB000230546ADF812
:103CB000023000F1780401AA0DF10201286802F037
:103CC000B7FD68BB204602F0ADF838BB01A920461D
:103CD000FFF774F910BBBDF81010204601F0F3FF98
:103CE000E0B9BDF82010204601F0EDFFB0B9BDF8F5
:103CF0002210204601F0E7FF80B99DF91D102046F3
:103D0000FFF723FD50B99DF91E102046FFF71DFD5A
:103D100020B9204602F0A5F80028CCD00BB030BD69
:103D20000020FBE737B5044602A9002301F8013D56
:103D300054F8780B02F0E2FA851E9DF8070058B19E
:103D400035F8021F204601F0BEFF28B99DF8073064
:103D5000013B8DF80730F0E703B030BD73B5064680
:103D6000044656F8A80B02F0C4FAB4F8B030B4F820
:103D7000AE209B1A9BB2012B16D90DF106013046DD
:103D800001F066FE80B9BDF80610206802F0A7FABF
:103D900005460028E9D001235C2280212046FEF759
:103DA00078FA284602B070BD0025FAE790F838137B
:103DB000806FFFF7C5BC30B589B00023044601937E
:103DC00000F1780502AA01A9206802F024FC00286D
:103DD00051D1284602F026F800284AD102A92846E7
:103DE000FFF7B7FC002844D19DF81810A06FFDF72D
:103DF000C7FF00283DD19DF81A10A06F01F0010106
:103E0000FFF79EFC002834D19DF8193013F0040F01
:103E100014BF20210021180748BF41F01001DA0625
:103E200048BF41F00801580648BF41F002019A0618
:103E300048BF41F00401DA0943F3010318BF41F020
:103E40000101DBB241EA8311C9B2A06FFDF798FF0F
:103E500078B90146A06FFDF793FF50B9BDF81C106B
:103E6000284601F030FF20B9284601F0FAFF00286B
:103E7000A8D009B030BD0020FBE730B5ADF5037D1B
:103E800000230546009300F1780401AA69462868DA
:103E900002F0D3FB98BB204601F0C4FF60BB9DF845
:103EA0000410A86FFDF76CFF30BB0299204601F0AB
:103EB00019FF08BB9DF80C200DF10D01204601F003
:103EC00089FFC8B99DF80A11A86F01F00101FFF739
:103ED00037FC88B99DF80B2143A9204601F07AFFF1
:103EE00050B9BDF80412204601F0EDFE20B920467D
:103EF00001F0B7FF0028C8D00DF5037D30BD0020CC
:103F0000FAE790F8CE10806FFFF71ABC00F1CE01EF
:103F1000A83001F07FBD90F8CF10806FFFF710BC84
:103F200000F1CF01A83001F075BDB0F8D0107830A5
:103F300001F0C9BE00F1D001A83001F089BD7FB504
:103F400091F86430DB0705460C4600F14F8194F888
:103F500064309E071DD505F17806304601F062FFFA
:103F6000002840F0498141F21D51304601F007FF21
:103F7000002840F04181D4E90223304601F0CDFE13
:103F8000002840F03981304601F06BFF002840F0F6
:103F9000338194F8643058071CD505F17806304613
:103FA00001F040FF002840F027814621304601F013
:103FB000E6FE002840F020811022A118A86FFDF72E
:103FC000F0FE002840F01881304601F04AFF00283A
:103FD00040F0128194F8643019071CD505F1780679
:103FE000304601F01FFF002840F006814421304692
:103FF00001F0C5FE002840F0FF8004F120013046AA
:1040000001F0F8FE002840F0F780304601F029FF6B
:10401000002840F0F18094F86430DA061DD505F1EF
:104020007806304601F0FEFE002840F0E58045218C
:10403000304601F0A4FE002840F0DE80082204F1A2
:104040003101A86FFDF7ADFE002840F0D580304665
:1040500001F007FF002840F0CF8094F864309B0601
:104060002BD522466B4652F8390F516805F1780678
:1040700003C300233046CDE9023301F0D3FE00280C
:1040800040F0BA806221304601F079FE002840F00D
:10409000B38069463046FFF75CFB002840F0AD80F6
:1040A0004021A86FFDF76CFE002840F0A680304646
:1040B00001F0D7FE002840F09F8094F864305E063F
:1040C00000F1B28094F86430DB091AD005F178066B
:1040D000304601F0A7FE002840F08E8036213046A1
:1040E00001F04DFE002840F08780B4F848103046BB
:1040F00001F0E9FD00287FD1304601F0B2FE002832
:104100007AD194F86530D80718D505F1780630468D
:1041100001F088FE00286FD12121304601F02FFEEA
:10412000002869D194F84A10A86FFDF729FE0028ED
:1041300062D1304601F095FE00285DD194F86530DB
:10414000990719D505F17806304601F06BFE002875
:1041500052D14B21304601F012FE00284CD11022E2
:1041600004F14C01A86FFDF71CFE002844D1304635
:1041700001F077FE00283FD194F865305A071BD52F
:1041800005F17806304601F04DFEA8BB41F21F5103
:10419000304601F0F4FD78BBB4F85C10304601F015
:1041A00092FD48BB94F85E10A86FFDF7E9FD18BBBF
:1041B000304601F056FEF8B994F865301B071BD560
:1041C00005F17806304601F02DFEA8B922213046CF
:1041D00001F0D5FD80B9216E2846FEF7BBFA0446F2
:1041E00050B9304601F03DFE204606E000F1780669
:1041F000304601F017FE10B1002004B070BD41F24E
:104200001C51304601F0BBFD0028F5D1D4E9002354
:10421000304601F082FD0028EED1304601F021FE4B
:1042200000283FF494AEE7E705F17806304601F048
:10423000F9FD0028E0D141F21E51304601F09FFD0A
:104240000028D9D1616C304601F04CFD0028D3D153
:10425000304601F006FE00283FF434AFCCE710B53D
:104260009AB004466946006801F092FF694620460C
:10427000FFF765FE1AB010BD10B59AB00446694646
:10428000006801F093FF69462046FFF758FE1AB018
:1042900010BD2DE9F04F0C4687B0904605466822C8
:1042A000002120469946DDF840A09DF844702AF090
:1042B000A8FCB8F1000F02D00023C8F80030B9F113
:1042C000000F02D0002389F80030BAF1000F02D0AD
:1042D0000023CAF8003005F1A8064FF0010BB5F82D
:1042E000AE20B5F8B0309A4200F0D381304601F0EC
:1042F0009FFC002840F0A98004A9304601F022FC70
:10430000002840F0A280049B4B2B00F03A8137D864
:10431000362B00F009810BD8212B00F01981222BBC
:1043200000F06F81304601F0A3FC0028D7D08CE06C
:10433000452B00F0C580462B00F09E80442BF1D128
:104340002FB1B5F8AE20B5F8B0309A4213D005A918
:10435000304601F02FFC002877D1059901910846DD
:104360002BF04FF8102800F29281421C019904F1C1
:1043700020002AF022FC94F8643043F008035BE04C
:1043800041F21E52934200F0BB802CD841F21C52E5
:10439000934246D05CD8622BC4D12FB1B5F8AE2081
:1043A000B5F8B0309A4219D0102205A9304601F074
:1043B000E0FB002849D10DF10E01304601F01AFB57
:1043C000002842D19DF80E30402B40F06081059AC4
:1043D0001368C4F839305368C4F83D3094F8643039
:1043E00043F0200328E0B3F5A95F00F02E81C0F070
:1043F000EC8041F22752934294D12FB1B5F8AE2010
:10440000B5F8B0309A428DD0102205A9304601F09F
:10441000B0FBD0B9BAF1000F84D0059BCAF80030C8
:1044200080E767B1B5F8AE20B5F8B0309A4206D152
:1044300094F8643043F0010384F8643072E7214655
:10444000304601F031FB0028F2D007B0BDE8F08F14
:1044500057B1B5F8AE20B5F8B0309A4204D194F80F
:10446000643043F00203E7E704F10801304601F04D
:104470001BFB0028F3D0E8E72FB1B5F8AE20B5F864
:10448000B0309A4217D00DF10E0205A9304601F066
:10449000AFFB0028D9D1BDF80E30102B40F0F780CB
:1044A000059B04F1100203F1100153F8040B42F8CC
:1044B000040B8B42F9D194F8643043F00403BBE75A
:1044C0002FB1B5F8AE20B5F8B0309A4213D00DF147
:1044D0000E0205A9304601F08BFB0028B5D1BDF8CE
:1044E0000E30082B40F0D380059A1368C4F83130A1
:1044F0005368C4F8353094F8643043F010039BE7F8
:1045000057B1B5F8AE20B5F8B0309A4204D194F85E
:10451000643043F040038FE704F14401304601F07A
:10452000ABFA0028F3D090E757B1B5F8AE20B5F854
:10453000B0309A4204D194F8643043F080037BE7B2
:1045400004F14801304601F083FA0028F3D07CE7FB
:104550002FB1B5F8AE20B5F8B0309A420AD005A90F
:10456000304601F047FA00287FF46FAF9DF8143011
:10457000A4F84A3094F8653043F0010384F86530BC
:10458000D0E62FB1B5F8AE20B5F8B0309A4217D0CA
:104590000DF10E0205A9304601F02AFB00287FF438
:1045A00054AFBDF80E30102B71D1059B04F14C02B5
:1045B00003F1100153F8040B42F8040B8B42F9D1BC
:1045C00094F8653043F00203D8E757B1B5F8AE2050
:1045D000B5F8B0309A4204D194F8653043F0040342
:1045E000CCE704F15C01304601F032FA00287FF498
:1045F0002CAF04F15E01304601F0FCF90028EBD04D
:1046000023E72FB1B5F8AE20B5F8B0309A4217D0F5
:1046100000232366B5F8AE20B5F8B0309A420FD02B
:1046200005A9304601F0E6F900287FF40EAF9DF8A9
:1046300014301F2B2BD8226E0BFA03F31343E8E739
:1046400094F8653043F0080398E737B1B5F8AE2029
:10465000B5F8B0309A423FF465AE0DF10E0205A9EF
:10466000304601F0C5FA00287FF4EFAEBDF80E30F9
:10467000FF2B0CD8B8F1000F02D0059AC8F8002023
:10468000B9F1000F3FF44EAE89F800304AE607203A
:10469000DBE60020D9E610B500239CB0CDE900335D
:1046A0001A4602A90446FFF7F4FD18B902A92068CA
:1046B00001F075FD1CB010BD10B500239CB0CDE914
:1046C00000331A4602A90446FFF7E3FD18B902A910
:1046D000206801F072FD1CB010BD10B500239EB023
:1046E000CDE9003303AA0DF10B0304A90446FFF73B
:1046F000D0FD30B99DF80B30039A206804A901F071
:1047000068FD1EB010BD10B500239EB0CDE900338A
:1047100003AA0DF10B0304A90446FFF7BAFD30B953
:104720009DF80B30039A206804A901F05CFD1EB0CF
:1047300010BD10B5A0B00123019305AB009304AAEE
:104740000DF10F0306A90446FFF7A3FD40B9059A32
:1047500000929DF80F30049A20681FA901F034FDE3
:1047600020B010BD10B5A0B00123019305AB00939C
:1047700004AA0DF10F0306A90446FFF78AFD40B90C
:10478000059A00929DF80F30049A20681FA901F045
:1047900025FD20B010BD1FB50446006801F0EEFFF6
:1047A000034680B1596800686A4603C2002369461F
:1047B00004F17800CDE90233FEF7CBFF18B94021B0
:1047C000A06FFDF7DDFA04B010BD37B500F1A80504
:1047D0000446102201A9284601F0CBF968B90DF171
:1047E0000301284601F006F938B99DF80330402B43
:1047F00005D10199206801F0C5FF03B030BD072045
:10480000FBE710B50446006801F0B4FF20B1014693
:1048100004F17800FEF79DFF10BD10B50446006856
:1048200001F0C9FF20B1014604F17800FEF791FFC5
:1048300010BD70B50546064655F8780B01F00AFD27
:1048400004460CB3284601F0EDFAF0B9214628469B
:10485000FEF77FFFC8B9217CB06FFDF791FAA0B9D0
:10486000A17C284641F3000101F03CFA68B9A17C23
:10487000284641F3400101F035FA30B9284601F0ED
:10488000F0FA10B96469DCE7204670BD30B500F17C
:10489000A80489B0054602A9204601F078F928BB92
:1048A00006A9204601F0A6F800BB6946204601F0A3
:1048B000E3F8D8B901A9204601F0DEF8B0B9032326
:1048C0008DF81930009B28681A1C9DF81A3018BF03
:1048D000012262F30003019A003218BF012262F341
:1048E000410302A98DF81A3001F0B8FC09B030BDBF
:1048F00037B50446102201A9A83001F03AF905465F
:1049000030B90199206801F0AEFC172808BF28468D
:1049100003B030BD0221783001F007BB10B504466A
:10492000006801F06AFC011C18BF0121A06FBDE8FE
:104930001040FEF705BF37B502A90023054601F870
:10494000013DA83001F066F8044640B99DF80730F3
:104950002868002B14BF0321002101F052FC2046DF
:1049600003B030BD38B5054655F8780B01F080FC32
:10497000044674B1284601F055FA58B92146284634
:10498000FEF7E7FE30B9284601F06BFA10B924694A
:10499000EFE7204638BD37B50446102201A9A830FC
:1049A00001F0E7F8054630B90199206801F064FC90
:1049B000182808BF284603B030BD37B5044610227A
:1049C00001A9A83001F0D5F8054630B90199206851
:1049D00001F057FC172808BF284603B030BD00007F
:1049E00010B50446006801F008FC0138C0B2022886
:1049F00096BF044B0021195CA06FBDE81040FDF785
:104A0000BFB900BF4D02030037B505460DF10701E0
:104A1000A83000F0EFFF044658B99DF80730013B7D
:104A2000DBB2022B96BF044A0146D15C286801F034
:104A3000E8FB204603B030BD5002030010B5044629
:104A4000006801F028FC80F00101C9B2A06FBDE848
:104A50001040FEF775BE37B502A90023054601F8E0
:104A6000013DA83000F0D6FF044630B99DF807108C
:104A7000286881F0010101F012FC204603B030BD2E
:104A800030B589B000230446019300F1780502AAED
:104A900001A9206801F0C8FD002843D1284601F093
:104AA000C1F900283AD102A92846FEF752FE002893
:104AB00034D19DF81810A06FFDF762F970BB9DF816
:104AC0001C10A06FC1F38001FEF73AFE30BB9DF8C9
:104AD0001C3043F301035BB25A1C21D0012B0CBFE5
:104AE00040210021A06FFDF74BF9B8B90146A06F36
:104AF000FDF746F990B99DF81C10A06FC1F3C001F5
:104B0000FEF71EFE50B9BDF81A10284601F0DBF87A
:104B100020B9284601F0A5F90028B8D009B030BD69
:104B2000C021DFE70020F9E730B500F1A80585B026
:104B30000023044601AA02A928460293ADF80430D6
:104B40000393ADF8063001F05EF8D8B90DF1060216
:104B500003A9284601F04CF8A0B903460299BDF814
:104B60000420206801F0A4FB014650B1206801F048
:104B70009AFB38B9D4F844330133C4F8443305B050
:104B800030BD0320D4F858330133C4F85833F6E766
:104B900010B5044654F8780B01F09CFC0146204601
:104BA000BDE8104001F08FB810B5044654F8780BFA
:104BB00001F06AFC01682046BDE8104001F092B89F
:104BC00010B5044654F8780B01F05EFCC16820462D
:104BD000BDE8104001F086B810B5044654F8780BD3
:104BE00001F052FC01692046BDE8104001F07AB89E
:104BF00010B5044654F8780B01F046FC4169204694
:104C0000BDE8104001F06EB810B5044654F8780BBA
:104C100001F03AFC81692046BDE8104001F062B81D
:104C200010B5044654F8780B01F02EFCC1692046FB
:104C3000BDE8104001F056B810B5044654F8780BA2
:104C400001F022FC016A2046BDE8104001F04AB89C
:104C500010B5044654F8780B01F016FC416A204662
:104C6000BDE8104001F03EB810B5044654F8780B8A
:104C700001F00AFC816A2046BDE8104001F032B81C
:104C800010B5044654F8780B01F0FEFBC16A2046CB
:104C9000BDE8104001F026B810B5044654F8780B72
:104CA00001F0F2FB816B2046BDE8104001F01AB81C
:104CB00010B5044654F8780B01F0E6FB4168204635
:104CC000BDE8104001F00EB810B5044654F8780B5A
:104CD00001F0DAFB81682046BDE8104001F002B81F
:104CE00010B5044654F8780B01F0CEFBC16B20469A
:104CF000BDE8104000F0F6BF10B5044654F8780B3C
:104D000001F0C2FB416C2046BDE8104000F0EABF54
:104D100010B5044654F8780B01F0B6FB016D20463F
:104D2000BDE8104000F0DEBF10B5044654F8780B23
:104D300001F0AAFB416D2046BDE8104000F0D2BF53
:104D400010B5044654F8780B01F09EFB816D2046A7
:104D5000BDE8104000F0C6BF10B5044654F8780B0B
:104D600001F092FBC16D2046BDE8104000F0BABFD3
:104D700010B5044654F8780B01F086FB016E20460E
:104D8000BDE8104000F0AEBF10B5044654F8780BF3
:104D900001F07AFB416E2046BDE8104000F0A2BF52
:104DA00010B5044654F8780B01F06EFB816E204676
:104DB000BDE8104000F096BF10B5044654F8780BDB
:104DC00001F062FBC16E2046BDE8104000F08ABFD2
:104DD00010B5044654F8780B01F056FB816C204660
:104DE000BDE8104000F07EBF10B5044654F8780BC3
:104DF00001F04AFBC16C2046BDE8104000F072BFD4
:104E000010B5044654F8780B01F03EFB016F2046C4
:104E1000BDE8104000F066BF10B5044654F8780BAA
:104E200001F032FB416F2046BDE8104000F05ABF50
:104E300010B5044654F8780B01F026FB816F20462C
:104E4000BDE8104000F04EBF10B5044654F8780B92
:104E500001F01AFBC16F2046BDE8104000F042BFD0
:104E600010B5044654F8780B01F00EFBD0F8801012
:104E70002046BDE8104000F035BF10B5044654F898
:104E8000780B01F001FBD0F884102046BDE81040FB
:104E900000F028BFD0F84413783000F023BFD0F8DA
:104EA0004813783000F01EBFD0F85813783000F067
:104EB00019BFD0F84C13783000F014BFD0F850135D
:104EC000783000F00FBFD0F85413783000F00ABFEC
:104ED000D0F86813783000F005BFD0F86013783050
:104EE00000F000BFD0F85C13783000F0FBBE10B5C6
:104EF000044654F8780B01F053FD01682046BDE8E4
:104F0000104000F0EFBE10B5044654F8780B01F0E5
:104F100047FD41682046BDE8104000F0E3BE10B5F3
:104F2000044654F8780B01F03BFD81682046BDE84B
:104F3000104000F0D7BE10B5044654F8780B01F0CD
:104F40002FFDC1682046BDE8104000F0CBBE10B573
:104F500004468AB054F8780B694601F0F2FABDF8BD
:104F60000010204600F0AFFE00285CD1BDF8021012
:104F7000204600F0A8FE002855D1BDF804102046B8
:104F800000F0A1FE00284ED1BDF80610204600F02A
:104F90009AFE002847D1BDF80810204600F093FE85
:104FA000002840D1BDF80A10204600F08CFED0BB8E
:104FB000BDF80C10204600F086FEA0BBBDF80E1018
:104FC000204600F080FE70BBBDF81010204600F0B7
:104FD0007AFE40BBBDF81210204600F074FE10BBF4
:104FE000BDF81410204600F06EFEE0B9BDF81610B2
:104FF000204600F068FEB0B9BDF81810204600F059
:1050000062FE80B9BDF81A10204600F05CFE50B96F
:10501000BDF81C10204600F056FE20B9BDF81E1049
:10502000204600F050FE00200AB010BD38B50446FE
:1050300054F8780B01F028FA0546204600F0F2FEFD
:10504000002840F0E0802968204600F04BFE002850
:1050500040F0D9806968204600F044FE002840F006
:10506000D280A968204600F03DFE002840F0CB80A9
:10507000E968204600F036FE002840F0C480296927
:10508000204600F02FFE002840F0BD8069692046D0
:1050900000F028FE002840F0B680A969204600F004
:1050A00021FE002840F0AF80E969204600F01AFE9A
:1050B000002840F0A880296A204600F013FE00284E
:1050C00040F0A180696A204600F00CFE002840F004
:1050D0009A80A96A204600F005FE002840F09380DF
:1050E000E96A204600F0FEFD002840F08C80A96BA4
:1050F000204600F0F7FD002840F08580E96B20464F
:1051000000F0F0FD00287ED1296C204600F0EAFD79
:10511000002878D1296B204600F0E4FD002872D1E8
:10512000696B204600F0DEFD00286CD1204600F0BF
:1051300098FE002867D1204600F074FE002862D156
:10514000696C204600F0CEFD00285CD1A96C204699
:1051500000F0C8FD002856D1E96C204600F0C2FDE1
:10516000002850D1296D204600F0BCFD00284AD10E
:10517000696D204600F0B6FD002844D1A96D204697
:1051800000F0B0FD00283ED1E96D204600F0AAFDF8
:10519000002838D1296E204600F0A4FD98BB696E26
:1051A000204600F09FFD70BBA96E204600F09AFDDE
:1051B00048BBE96E204600F095FD20BB296F2046D4
:1051C00000F090FDF8B9696F204600F08BFDD0B972
:1051D000A96F204600F086FDA8B9E96F204600F0CF
:1051E00081FD80B9D5F88010204600F07BFD50B9D4
:1051F000D5F88410204600F075FD20B92046BDE8A2
:10520000384000F02EBE38BD08B5006801F040F906
:10521000002008BD38B50446006801F0CCFB054607
:1052200000B9FEE778340188204600F04CFD40BB11
:105230006988204600F047FD18BBA988204600F089
:1052400042FDF0B9E988204600F03DFDC8B9298942
:10525000204600F038FDA0B96989204600F033FDF2
:1052600078B9A989204600F02EFD50B9E989204679
:1052700000F029FD28B9298A2046BDE8384000F011
:1052800022BD38BD08B5006801F099FB002008BDBB
:1052900038B50446006801F083FB054600B9FEE717
:1052A0007834204600F0BEFD00BB2968204600F09F
:1052B00019FDD8B9A968204600F014FDB0B9204600
:1052C00000F0CFFD90B9204600F0ACFD70B96968E0
:1052D000204600F007FD48B9E968204600F002FDCD
:1052E00020B92046BDE8384000F0BBBD38BD08B548
:1052F000006801F059FB002008BD10B504460068A5
:1053000001F0F7F9C0F34001C0F3800200F00100A2
:10531000FEF723FA0146A06FBDE81040FCF730BD50
:1053200037B502A90024054601F8014DA83000F068
:1053300061FB90B99DF807302868C3F3C0024FF0B5
:10534000000162F30001C3F3400262F3410163F321
:10535000820101F0DDF903B030BD2046FBE710B556
:10536000044654F8780B01F08CF901462046BDE85C
:10537000104000F0B7BC37B502A90023054641F83C
:10538000043DA83000F078FB044618B9019928685C
:1053900001F07BF9204603B030BD10B5044654F847
:1053A000780B01F065FA01462046BDE8104000F098
:1053B0008ABC90F83913806FFEF7C2B900F2393118
:1053C000A83000F027BB7FB500F1A80600230446F3
:1053D000012501AA02A930460293ADF804300393D7
:1053E000ADF806308DF800308DF8015000F00BFC60
:1053F00038B1D4F848330133C4F84833002004B03E
:1054000070BD0DF1060203A9304600F0F1FB002843
:10541000EFD16B46BDF804200299206800F048FFE8
:10542000064670B1294601F064F83146206800F064
:105430003AFF0028DDD0D4F858330133C4F858338C
:10544000DDE70320F7E710B50446006801F020F817
:10545000206801F0A9FA206801F0B1FA2046FCF7B3
:105460002DFE002010BD13B504460DF10601A83035
:1054700000F0EEFA20B9BDF80610206800F02FFF0A
:1054800002B010BD37B504460DF10601A83000F09A
:10549000DFFA054638B9BDF80610206800F024FF91
:1054A000172808BF284603B030BD10B50446006871
:1054B00000F029FF0146A06FBDE81040FEF740B99B
:1054C00037B505460DF10701A83000F0A3FA0446F0
:1054D00020B99DF80710286800F019FF204603B096
:1054E00030BDF8B506460D46002979D091F839301F
:1054F000C3F303079A064FEA071700F1780448BF81
:1055000047F001070722DB064FF080014FF033031D
:10551000204648BF47F0080700F0E9FC002858D1B2
:1055200095F83610B06FFCF72BFC002851D195F997
:1055300037102046FEF709F900284AD1204600F02E
:1055400071FC002845D129462046FDF737FD00288B
:105550003FD14FF6FF71204600F0B5FBC8BB698E06
:10556000204600F0B0FBA0BB95F83810B06FFCF7F8
:1055700007FC70BB204600F074FC50BB204600F0D6
:1055800051FC30BB0321204600F0F9FB08BB394633
:10559000B06FFCF7F5FBE0B905F10801204600F01B
:1055A00029FCB0B9082205F11901204600F012FCCF
:1055B00078B995F8212005F12201204600F00AFC77
:1055C00038B9204600F04DFC18B9204600F072FCB6
:1055D00080B10B22002106F1E00000F0BBFC03E0EB
:1055E0003021E030FEF7AEF806F1D400BDE8F84017
:1055F00002F09CB9F8BD0B4601461846FFF771BF93
:1056000070B504460E46F1B100F178053923072242
:105610008021284600F06BFC70B93178A06FFCF750
:10562000AFFB48B996F901102846FEF78EF818B975
:10563000284600F03FFC80B10B22002104F1E0007D
:1056400000F088FC03E03021E030FEF77BF804F145
:10565000D400BDE8704002F069B970BD0B46014648
:105660001846FFF7CDBFF8B5044608460E4600F0D1
:105670003BFF04F178050746002814BF722373230B
:1056800006228021284600F032FCB0B9304600F0F6
:1056900029FF0146284600F016FB70B93146A06F7D
:1056A000FCF743FB48B9284600F004FC28B92FB1A9
:1056B000D4F84C330133C4F84C33F8BDD4F850332C
:1056C0000133C4F85033F8E7F8B5074600F55076D3
:1056D000304600F026FF044680B10146304600F017
:1056E0001EFF21463846FFF7BEFF05460028EFD0D3
:1056F0002146304600F010FF2846F8BD0546FBE77E
:1057000038B504460D46D1B1084600F0EBFEB0F5C1
:10571000A26F04D92846BDE8384000F0E1BE294612
:1057200004F5507000F0F5FE94F8FA2294F8FB327C
:105730009A4204D12046BDE83840FFF7C5BF38BDC6
:105740000B4601461846FFF7DBBFF8B590F83B3330
:1057500006460D461746CBB300F1780471230622A6
:105760008021204600F0C3FB80BBA988204600F0C2
:10577000AAFA58BBAA882968B06FFCF712FB28BBAD
:1057800095F915102046FDF7E0FFF8B96FF07F019D
:105790002046FDF7DAFFC8B93946204600F093FAF3
:1057A000A0B9204600F03EFB80B9204600F059FB2E
:1057B00060B9204600F036FB40B9204600F051FBAE
:1057C00020B92046BDE8F84000F074BBF8BD134690
:1057D0000A4601461846FFF7B8BF90F83B13806FA2
:1057E000FDF7AEBF37B504460DF10701A83000F054
:1057F00011F9054668B99DF8073094F83B239A42A1
:1058000007D084F83B33206833B10549224600F0C5
:1058100015FE284603B030BD2A462946F7E700BFEB
:10582000CF570000D1F8DC301843C1F8DC0001F19B
:10583000D40002F07BB800002DE9F041D0F8DC3054
:105840000446002B5CD05B072DD590F8393353B359
:10585000006800F0F5FF012807D9002384F83933E8
:10586000492104F1E000FDF76DFF206800F0E8FF3A
:10587000042818D1206801F071F8A0B1D4F8DC3008
:10588000254623F08003C4F8DC3055F8E00B0021F6
:1058900001F054F842212846FDF754FF6822002108
:1058A000284600F057FBDFF86C80002504F1E00784
:1058B00055F80860D4F8DC301E4206D10835B02D0A
:1058C000F6D10023C4F8DC301AE008EB0503596870
:1058D000522917D03846FDF735FFB6F5007F07D1BE
:1058E0005A213846FDF72EFF5B213846FDF72AFF87
:1058F000D4F8DC3023EA0603C4F8DC30002BDDD119
:10590000BDE8F08194F83D33002284F83D23002B5C
:10591000E0D1E2E754020300F0B5044602B9FEE725
:10592000013A00260C2096420AD2B5186D0800FBF9
:1059300005F7CF599F4201D26E1CF4E72A46F2E7E1
:1059400000FB06F288188A589A4205BF031DD3E966
:1059500000010023C4E9000118BFC4E90033204658
:10596000F0BD000010B50B46044694220249FFF733
:10597000D3FF204610BD00BF0403030010B50B4643
:1059800004463E220249FFF7C7FF204610BD00BF74
:10599000F409030010B50B46044604220249FFF740
:1059A000BBFF204610BD00BFDC0C030010B50B464A
:1059B000044605220249FFF7AFFF204610BD00BF95
:1059C0000C0D03000022C0E90022C0E9022270474A
:1059D00000228388C28003818272838170470029FC
:1059E00008BF002210B501608280FFF7F1FF8388B5
:1059F000838110BDC388028910B55C1C94429FBF8F
:105A00000268D35C0B70C3889BBF0133C380062040
:105A1000002010BD13B50C460DF10701FFF7EAFF9A
:105A200018B99DF8073013B9207002B010BD012BD2
:105A30000CBF23700620F8E713B50C460DF10701E3
:105A4000FFF7D8FF10B99DF80730237002B010BDE2
:105A5000C288038930B5941C9C420BD80468A318F3
:105A60005D78A35C43EA05230B80C3880233C380BF
:105A7000002030BD0620FCE7F0B5C4880389251D51
:105A80009D420FD806683219345D93785778D278E2
:105A90001B0443EA0723234343EA02630B60C580E8
:105AA0000020F0BD0620FCE7B0F806C003890CF129
:105AB00008029A422DE9F04F42D8D0F800E00EEBF0
:105AC0000C035E7893F802804FEA166B4FEA062AC1
:105AD0004FEA08464AEA06041EF80C604FEA1847E7
:105AE00046EA0408DE784BEA0705340600274FF043
:105AF000000A47EA0509350A48EA040646EA0A08A0
:105B00005E7993F804B049EA0507350248EA0A06C7
:105B1000B0469E7947EA0B0949EA05073504DE7964
:105B2000B94648EA0A0849EA050933064AEA080478
:105B300043EA0905C1E90045C2805046BDE8F08F3F
:105B40000620FBE737B5C38804460D460189006887
:105B5000C91A184401AA00F0B7FA0028C1BFE388A7
:105B6000C018019BE080D2BF062000202B6003B04C
:105B700030BD10B5C488038922449A42DDBF036852
:105B80001B190B600620DCBFC280002010BD13B5BE
:105B900010220C4601A9FFF7ECFF48B9019B2146F2
:105BA00003F1100253F8044B41F8044B9342F9D12E
:105BB00002B010BD38B5C3880D4601895A1C8A420F
:105BC000044601D9062038BD0068C91A184489B2B4
:105BD00001F08BFEE3882289D21A92B29042F1D270
:105BE00022681A44013303442A600020E380EAE774
:105BF00010B40389C4881B1B9BB213805DF8044B4F
:105C00001A46FFF7B6BF73B50E460DF106010546FD
:105C10001446FFF71DFF48B9BDF806203146284657
:105C2000FFF7A7FF10B9BDF80630238002B070BDA2
:105C300073B5837A032B044616D80DF10601FFF7DE
:105C400007FF78B92589E188BDF806206B1A9A42CA
:105C50000CDCA37A03F108060A44013324F8165039
:105C60002281A37202B070BD0D20FBE70620F9E788
:105C7000837A93B182888189914203D2C17A994211
:105C800008BF8281013BDBB283720833028930F89E
:105C90001330C2800381002070470D207047C388F5
:105CA00083810389C381837AC37270478389828821
:105CB0009A4281BFC380C3890381C37A86BF83723E
:105CC00000200D20704738B504460D460068C9B263
:105CD000FCF756F828B9290A2068BDE83840FCF7D7
:105CE0004FB838BD38B504460D460068C9B2FCF758
:105CF00047F888B9C5F307212068FCF741F858B97F
:105D0000C5F307412068FCF73BF828B9290E206845
:105D1000BDE83840FCF734B838BD70B5D1B20446A0
:105D2000006816461D46FCF72BF838BBC6F3072162
:105D30002068FCF725F808BBC6F307412068FCF78C
:105D40001FF8D8B9310E2068FCF71AF8B0B9E9B2DB
:105D50002068FCF715F888B9C5F307212068FCF71F
:105D60000FF858B9C5F307412068FCF709F828B9BE
:105D7000290E2068BDE87040FCF702B870BD13B56D
:105D80000A4604460621684600F0CBF9694682B20D
:105D90002068FCF706F802B010BD70B504460D4649
:105DA00011F00F0118BF002300680EBF84F8241003
:105DB000012184F824301646FCF70DF829462068A6
:105DC000FBF7DEFF28B931462046BDE87040FFF7FB
:105DD000D6BF70BD70B50E46114605461446FFF796
:105DE00072FF30B9224631462868BDE87040FBF7A3
:105DF000D8BF70BD38B5044608460D4629F001FBF2
:105E00004FF6FF72824228BF0246294692B22068AE
:105E1000FBF7C7FF014620B92068BDE83840FBF713
:105E2000AFBF38BD10B590F824100329044616D82A
:105E300000EBC10104310068FBF792FF70B9014625
:105E40002068FBF79DFF48B901462068FBF798FFE3
:105E500020B994F82430013384F8243010BD0D208B
:105E6000FCE773B590F82410044611B90D2002B078
:105E700070BD0139C9B20825042680F8241015FB2D
:105E8000016101440068FBF77AFD0128EED994F81E
:105E90002410023880B28DF8040015FB0161E8403F
:105EA0008DF8050002230DEB060221442068FBF764
:105EB00033FDDCE710B5044694F824302BB12046BE
:105EC000FFF7CFFF0028F7D010BD2068BDE81040D5
:105ED000FBF79EBD10B500F1280104460068FBF7F2
:105EE0003FFF18B994F8243084F8253010BD38B538
:105EF00004461D46FFF751FF48B92046FFF7EAFF69
:105F000028B929462046BDE83840FFF738BF38BDDC
:105F100010B500F1280104460068FBF757FD18B9D9
:105F200094F8253084F8243010BD38B504460D4669
:105F3000FFF7EEFF50B901462046FFF720FF28B9D2
:105F400029462046BDE83840FFF719BF38BD1B2061
:105F5000704700002DE9F0481E4D00230C2606FB7B
:105F600003F467598F4230D12C44646894422CD199
:105F7000D0E90272C3F1200602FA06F6A3F120016D
:105F800027FA03FB22FA01F14BEA060B4BEA010B5D
:105F90000BF00104002554EA0502C3F12001A3F12E
:105FA000200610D1012202FA06FC22FA01F102FABF
:105FB00003FBD0E900234CEA010C4BEA02044CEA53
:105FC0000305C0E90045BDE8F08801331B2BC6D1AD
:105FD000F9E700BF480D03002DE9F74F0023274FD5
:105FE00094468E461C4601220C2101FB03F57919CB
:105FF000097A00293AD0EE59764537D1A3F1200528
:10600000C3F1200402FA05FB22FA04F44BEA040B64
:1060100002FA03FA6FEA0A046FEA0B05CDE90045BC
:10602000D0E90289BCF1000F16D048EA0A0449EA17
:106030000B05C0E90245DDE90089D0E9004508EA21
:10604000040809EA050944464D46C0E9004566B121
:10605000002003B0BDE8F08FDDE9004504EA080444
:1060600005EA0905C0E90245F1E70C4601331B2B9F
:10607000BAD1002CECD10720EBE700BF480D03009C
:10608000104B70B500220C2505FB02F41E19367A60
:106090009EB1E4588C4210D1D0E90235C2F12004FF
:1060A000A2F1200123FA02F005FA04F4204325FAB4
:1060B00001F1084300F0010070BD01321B2AE3D159
:1060C0000020F9E7480D0300F0B5002423468B4279
:1060D000C3EBC3070ED0052B0CD0C65C06F07F05C2
:1060E000BD402C43350603F10103F0D402B1146026
:1060F0001846F0BD4FF0FF33FAE77F280BD9B0F513
:10610000804F0AD3B0F5001F09D3B0F1805F34BFD0
:1061100004200520704701207047022070470320AB
:10612000704770B504461046FFF7E7FF81420DDA6D
:1061300070BD63F07F0301F8013BD2090E1BB5422D
:10614000D3B2F6D103F07F036355F1E72146451E34
:10615000F4E700B500F5B5409BB06946503004F057
:1061600007FA98B99DF86430C3F3800058B1C3F3BF
:10617000C00040B1C3F3001028B1D80903D09DF886
:10618000650000F001001BB05DF804FB0020FAE799
:1061900001B9FEE700F5B540503004F0E9B901B9A6
:1061A000FEE700F5B5404C3004F014BC01B9FEE741
:1061B00000F5B6401C3004F0DBB901B9FEE700F58C
:1061C000B640183005F00FB800F5B5404C3004F07B
:1061D0005BBE00F5B5404C3004F0E4BC00F5B640C1
:1061E000183004F051BE00F5B640183004F0DABCA7
:1061F00000F5B5404C3005F0B9B845F69203C05CE7
:10620000704745F69203C154704700F019BD48F23B
:10621000D013C05C704700F023BD00F0FDBC00F659
:10622000140001F077B900F03EBD0000004870474F
:106230008C0E030000F5B24008B5483019B116F0D5
:10624000DDF8002008BD16F001F9FAE747F6D03373
:10625000C05C704745F64813C058704700F5B2401F
:10626000483008F067B800F5B240483008F060B92F
:1062700045F64C13C058704700F5B240483007F05F
:10628000FBBF00F5B240483008F0DCB800F5B04084
:10629000683006F041BC45F66903C05C704745F6BE
:1062A0006903C154704700F5B040683007F0D8B9B1
:1062B00073B500F5B0440D46164668345BB1194617
:1062C00001A800F059FD01AB32462946204606F0F0
:1062D000C3FB02B070BD204606F003FCF9E700F5F1
:1062E000B640703007F084BC00F5B640703007F05F
:1062F0009ABC00F5B640703007F0A5BC00F5B6407A
:10630000703007F0A3BC45F66423C05C704700F50D
:10631000B440643009B117F067B817F06CB845F6AF
:106320000843C05C704738B545F629630446C35C32
:106330008BB900F5B84002F063F9054648B904F599
:10634000B5404C3004F00CFA04F5B640183004F0B7
:1063500009FF284638BD0D25FBE745F60C43C0581C
:10636000704713B545F62963C45C54B902AB00F518
:10637000B84043F8041D194601F0E2FF204602B080
:1063800010BD0D20FBE700F5B8404230704738B52E
:10639000054601B9FEE745F62963C45C5CB900F522
:1063A000B8403C3003F052FD05F5BC4008300CF01D
:1063B0006DFE204638BD0D20FCE7000001481BF0B3
:1063C000D1BD00BFA00A002045F60643C05A704761
:1063D00038B545F629630546C45C7CB900F5B8407C
:1063E00001F0F2FF05F5B5404C3004F0B9F905F5C0
:1063F000B640183004F0B6FE204638BD0D20FCE74C
:1064000000F5BB40683001F03FBD00F5BB4068308F
:1064100001F0A0BD45F64043C05A704745F63043F1
:10642000C05C704745F63043C154704745F6314370
:10643000C05C704745F63143C154704700F5B84021
:106440003C3003F017BD00F5B8404078C0F3C00001
:10645000704710B547F6D033C45C2CB900F5B8408E
:1064600002F0D6FF204610BD0D20FCE747F6D033E2
:10647000C35C3BB900F5B840027861F300020270DA
:10648000184670470D20704700F5B9403C30704702
:1064900000F5B940882200213C3028F0B2BB00F55D
:1064A000B84002F016B900F5B843987801281CBF2F
:1064B0001878C0F34000704700F5B84002F02AB9E0
:1064C00000F5B8408378022B1ABF0078C0F3800033
:1064D0000120704745F64853C05A70470120704765
:1064E00000F074BC408B704790F82B0000F0010066
:1064F000704790F82A3021B143F0800380F82A30A9
:10650000704761F3C713F9E700F01DBD0023036076
:106510007047012200F033BE002200F030BE00F0D0
:106520004EBE00F028BE51B191F82B301B0754BF6E
:106530000B690023984202D1084600F098BE002063
:106540007047A02373B50B80054600F506600C4626
:1065500000F007FC05F5BA464C366080A21D211DEF
:10656000304600F09FFF04F10A0204F1080106F131
:10657000100000F08FFE04F11A0204F1180106F178
:10658000800000F08FFF05F5B04004F10E0204F129
:106590000C01743000F086FF05F5B24004F11202E0
:1065A00004F11001343000F075FE05F5BD4004F132
:1065B000160204F11401303000F06CFE05F5B34012
:1065C00004F11E0204F11C016C3000F063FE05F5BD
:1065D000B4400DF1060201A9103000F05BFEA38B60
:1065E000BDF804201344A383BDF80620E38B1344B5
:1065F000E383002323846384A384E38402B070BD17
:1066000010B402B103B9FEE700F5F34070305DF855
:10661000044B13F01ABD29B122B100F5F3407030DC
:1066200013F059BB0720704729B122B100F5F340A0
:10663000703013F05FBB0720704729B122B100F51D
:10664000F340703013F065BB0720704708B500F5C4
:10665000BC4008300CF050FE407908BD08B500F58C
:10666000BC4008300CF048FE807908BD10B50446E7
:10667000FFF7CDFD20B1201DBDE8104001F060B94D
:1066800010BD45F61873C058704700F5BC4008307F
:106690000EF0B8BF00F5B8401030704773B545F63E
:1066A00029630546C45C0E46D4B900F5B84001F034
:1066B000A7FE3146684612F0D1FF05F5BC40694699
:1066C00008300EF0B7FA05F5B5404C3004F048F844
:1066D00005F5B640183004F045FD204602B070BD07
:1066E0000D20FBE701B9FEE700F5BC4008300CF0D7
:1066F000CBBD07B500F5BD40694603788DF8043081
:1067000001A812F08DFF9DF8000003B05DF804FBB6
:1067100013B502AB044603F8041D6846194612F08F
:106720008DFF04F5BC409DF8001008300EF084FF8A
:1067300002B010BD00F5B6407830704738B5044659
:1067400001B9FEE745F62963C35C8BB900F5B64095
:1067500078300AF01DFA054604F5B5404C3003F0D8
:10676000FFFF04F5B640183004F0FCFC284638BDA5
:106770000D25FBE700F5BE405430704700F5BE40E4
:106780006C30704738B545F629630546C45C84B95A
:1067900000F5BC4008300EF04DFA05F5B5404C3020
:1067A00003F0DEFF05F5B640183004F0DBFC2046B0
:1067B00038BD0D20FCE700F5BE403C30704700F5C9
:1067C000B8401830704738B545F629630446C35CB5
:1067D00083B900F5B84001F0EBFD054604F5B5407E
:1067E0004C3003F0BDFF04F5B640183004F0BAFC9D
:1067F000284638BD0D25FBE745F68833C05870475D
:1068000000F5B64078300AF081BA45F6C033C0587A
:10681000704745F6C033C150704700F5BC400830A2
:106820000CF0E6BC00F5BC40002108300CF092BA38
:1068300002B101B9FEE700F5BC407C3012F0FEBFAA
:1068400045F62963C05C704745F62763C05C704716
:1068500008B500F5BC4008300CF04EFD007908BDCD
:1068600008B500F5BC4008300CF046FD006808BDD6
:1068700000F5BC4008300CF079BC70B506460C46FB
:1068800001B9FEE745F62963C35C022B3AD100F556
:10689000BC45EB6A0B602B6B4B6045F64463C25AF8
:1068A0000A81C35A9B128B7245F65263C35CCB724A
:1068B00095F85330C3F383030B7345F64C63C35C05
:1068C0004B7395F85330C3F301038B731BF021F91D
:1068D00045F63463F358C01A4FF47A73B0FBF3F003
:1068E000237CE07343F00103237495F8463003F0F2
:1068F0000F03DA1F53425341227C63F34102227497
:10690000002070BD0D20FCE710B50C4601B9FEE774
:1069100000F5BC404A300AF087FAA0F17F032070EE
:106920005842584110BD01B9FEE745F64D63C056C7
:106930000870A0F17F0358425841704700F5BC40F1
:1069400010B508300C4621B10021BDE810400EF012
:106950002DBD01210CF026FB204610BD00F5BC40EA
:1069600008300FF00EBC10B586B006AC00F5F34051
:1069700044F8041D0A99039109990291002101919B
:106980009DF8201000910830214609F091F906B0D9
:1069900010BD47F6A413C05C003018BF012070473B
:1069A00000F5BB400C30704700F5BB4010220021C1
:1069B0000C3028F026B900F5BE402830704700F5AD
:1069C000BE4012220021283028F01BB900F5BC403F
:1069D00008300DF0BBBB45F6FC73C05A704700F59C
:1069E000BF407C3009F058B800F5BC4008300FF0CB
:1069F00067BA00F5BC4008300FF06EBA00F5BC4035
:106A0000083010F01BBB47F66313C05C704747F6B5
:106A10006313C154704747F66413C150704747F67B
:106A20003033C058704747F63033C150704747F68F
:106A30006013C05C704747F66013C154704747F657
:106A40006113C05C704747F66113C15470473E291B
:106A500003D800F5E84015F013B90720704745F654
:106A60002963C35C022B04D009D3042B07D8002070
:106A7000704700F5BC400321083010F0BBBB0D206F
:106A8000704700F5BC40083010F0F0B947F66213CB
:106A9000C05C704747F66213C154704747F67613DF
:106AA000C05C704700F5BC4008300FF045BB02B930
:106AB000FEE700F5BF407C3008F0FEBF30B51C4655
:106AC00087B0154602B103B9FEE700F5BF407C3040
:106AD00008F05DFF80B3837E03F00F03012B02D02B
