:1010000000000420B5120000DD120000DF12000015
:10101000E1120000E3120000E512000000000000F1
:10102000000000000000000000000000E7120000C7
:10103000E912000000000000EB120000ED120000B9
:10104000A9770000553E0400EF120000EF120000E7
:10105000EF120000EF120000B5710000EF12000067
:10106000EF120000EF120000EF120000EF1200007C
:10107000EF12000099240400EF120000EF120000AC
:10108000EF120000E55B0000EF120000EF1200001D
:10109000EF120000EF120000EF120000EF1200004C
:1010A000EF120000EF120000EF120000EF1200003C
:1010B000EF120000EF12000000000000000000002E
:1010C000EF120000EF120000EF120000EF1200001C
:1010D00091100400EF120000EF120000A590000034
:1010E000EF120000EF120000EF12000000000000FD
:1010F00000000000EF12000000000000EF120000EE
:1011000000000000000000000000000000000000DF
:1011100000000000000000000000000000000000CF
:1011200000000000000000000000000000000000BF
:1011300000000000000000000000000000000000AF
:10114000000000000000000000000000000000009F
:10115000000000000000000000000000000000008F
:10116000000000000000000000000000000000007F
:10117000000000000000000000000000000000006F
:10118000000000000000000000000000000000005F
:10119000000000000000000000000000000000004F
:1011A000000000000000000000000000000000003F
:1011B000000000000000000000000000000000002F
:1011C000000000000000000000000000000000001F
:1011D000000000000000000000000000000000000F
:1011E00000000000000000000000000000000000FF
:1011F00000000000000000000000000000000000EF
:1012000010B5054C237833B9044B13B10448AFF340
:1012100000800123237010BDF802002000000000B0
:1012200008C0050008B5034B1BB103490348AFF3E1
:10123000008008BD00000000FC02002008C005007E
:10124000154B002B08BF134B9D46A3F5803A002198
:101250008B460F461348144A121A50F0C0FF0F4B2A
:10126000002B00D098470E4B002B00D09847002051
:10127000002104000D000D48002802D00C48AFF3F7
:10128000008050F029FF2000290009F0FFFA50F0FB
:10129000FDFE00BF00000800000004200000000068
:1012A00000000000F80200207096012000000000FD
:1012B000000000000649074A074B9B1A03DD043B68
:1012C000C858D050FBDC09F097FCFFF7B9FF0000CD
:1012D000A0C0050008000020F8020020FEE7FEE79D
:1012E000FEE7FEE7FEE7FEE7FEE7FEE7FEE7FEE7D6
:1012F000074B1B5C1F2B8ABF064A4FF0A04203F02E
:101300001F03D2F80405D840C04300F00100704725
:101310008C3C050000030050074B1B5C1F2B86BF55
:1013200003F01F0305494FF0A041012202FA03F325
:10133000C1F80C35704700BF8C3C0500000300501D
:10134000074B1B5C1F2B86BF03F01F0305494FF0A3
:10135000A041012202FA03F3C1F80835704700BF2B
:101360008C3C05000003005030B44FF0A043094905
:1013700040254FF480744FF400704FF48052C3F84E
:101380000855C3F80845C1F80805C3F8082530BC5E
:10139000704700BF0003005030B44FF0A04309492C
:1013A00040254FF480744FF400704FF48052C3F81E
:1013B0000C55C3F80C45C1F80C05C3F80C2530BC1E
:1013C000704700BF000300500A4B195C1F298ABFF9
:1013D00009484FF0A04001F01F01D0F80435012268
:1013E0008A4022EA03011340C0F80815C0F80C3502
:1013F000704700BF8C3C050000030050263818BF22
:101400004FF0FF30704700BFC30706D4830742BFC9
:101410002E4B0C22C3F81827704770B44FF080434E
:10142000D3F84036DA0722D44FF0A04327490322ED
:1014300040264FF480754FF40074C3F81827C3F8A2
:101440002027C1F82427C3F83027C3F808654FF4D4
:101450008052C3F80855C1F808458107C3F808252C
:1014600003D51A4B0C22C3F8182770BC70474FF0F5
:101470001023D3F8043303F00703072BD4D1144B04
:101480000122C3F80425D3F80024002AFBD04FF032
:1014900010210020D1F804230D4C22F0070242F065
:1014A0000402C1F80423C3F80405D4F80034002B67
:1014B000FBD0BFF34F8F0749074BCA6802F4E062C5
:1014C0001343CB60BFF34F8F00BFFDE70003005015
:1014D00000E0014000ED00E00400FA05704700BFA5
:1014E00000B583B0044B0093044A402300F036F863
:1014F00003B05DF804FB00BF0115000018030020D5
:1015000002B32DE9F843114B114E8846144643F0BF
:10151000010903270025224608EB0501002009F0F8
:1015200021FA03461D444FF47A40E41A23B9337874
:1015300033B1C847013F06D001233370002CEAD1F4
:10154000BDE8F88370473770BDE8F883903C05002C
:1015500014030020704700BF09F01EBBF0B595B022
:10156000002415460F4608461E4605F097F93846F2
:1015700023460895082205A91A9D09960D950A94F7
:101580008DF82C400C9405F0E3F99DF814308DF89B
:101590001140DDE9061003F00302012ACDE9020142
:1015A00027D0022A04D0384605F07CF915B0F0BDEA
:1015B000BDF81650C3F3C2038DF81030AD090826EC
:1015C000082D2C4628BF0824334622460EA938464B
:1015D00005F0BEF92D1B214608AB02AA0EA8264431
:1015E00000F094FC002DEBD1384605F05BF915B006
:1015F000F0BDBDF81460059DC6F38316C3F3C204A5
:10160000B2000EA9384608238DF81040C5F3952581
:1016100005F09EF908AB324628460EA9009302ABAE
:1016200000F0CEFB384605F03DF915B0F0BD00BF27
:1016300008B5FFF791FF0421034800F077FB034B47
:1016400001225A7108BD00BF74C0050008000020C7
:10165000F0B5324C85B004F5836004F03DFC04F233
:10166000144004F039FCD4E9013703EA0702D01C26
:1016700004EB800114F8200010F0040044D003F1C2
:10168000020C0E7806F00306012E654635D0022EB8
:1016900002F1030621D004EB86010028F1D104EB0E
:1016A00082020133D26801923B4004EB830302F0D3
:1016B0000302012ADE6829D0022A23D1BDF80630B0
:1016C0009B090333360C05EB9305154804F010FC19
:1016D00000B16560304605B0F0BD4B880CEB93134C
:1016E00007EA0302D11C03F1020C14F8210065463D
:1016F00004EB810100F00400CFE70B88C3F38313F0
:101700006344EDE70026E0E79D1CC8E7BDF8043020
:10171000C3F38313360C1D44D7E700BF2804002011
:101720003C0800200B4B0C4810B50022FF21C3F8E9
:1017300018249960C3E90022C3F8142483F82024F4
:1017400005F068F8044610B9044805F035F920465C
:1017500010BD00BF2804002084C00500B43C050073
:1017600021B9124B03EBC00000687047104A0F49C3
:10177000521AD20815D030B40E4D2B88834212D0A5
:10178000002303E035F82340844205D001339A4218
:10179000F8D1002030BC704701EBC300006830BCBA
:1017A0007047104670470846F8E700BF0CC00500B8
:1017B00074C00500F4020020094B013903EBC0009E
:1017C00003290BD8DFE801F0020806040220704765
:1017D00040797047007970470420704700207047B7
:1017E0000CC005002DE9F843DFF8D890074600202B
:1017F0008846D9F8084004F099F8D9E90132D9F8B7
:101800000060134401339B1B012B56D809F21C4581
:101810000121284604F03AFBFFF71AFF014628464B
:1018200004F034FBD9E90132D9F800101344013334
:101830005B1A012BECD90A40033205230231002048
:1018400049F82230C9F8001004F078F800211C484B
:1018500004F012FB80F31000731C234009EB830398
:1018600000043440033440EA1740D86019F82430AB
:1018700067F3C50309F8243039F824306FF389136E
:1018800029F8243059F8242068F39F2213460121B7
:1018900061F301036FF3820349F8242009F824302F
:1018A00099F820341BB906E000F00EF818B1D9E918
:1018B00000329A42F8D1BDE8F8833146BBE700BF59
:1018C00044080020280400202DE9F047914C002313
:1018D00084B0C4F81834BFF34F8FD4E9015605EA39
:1018E0000602D31C04EB830114F82330580719D5E2
:1018F00027680B7803F00303012B43D0022B03D19D
:101900004B88023505EB931506EA0502D4F8180456
:10191000D31C04EB830128B9AF4239D914F8233022
:101920005B07E6D404EB82026B1CD2680192334061
:1019300004EB830302F00302DB680293022A05F141
:10194000020700F08980012A26D0D4F810543DB156
:101950002B6828469B689847EB681D68002DF7D1D7
:101960006D486E4B6E49C01AC008000440F002007A
:10197000FFF738FFD4E90030C01A18BF012004B0C7
:10198000BDE8F0870B880235C3F383131D44BBE722
:10199000676004B0BDE8F087BDF804206148C2F379
:1019A0008313062B28BF062363F3891202339900A1
:1019B000ADF8042004F030FF80460028C5D004F0C4
:1019C0006DFF0023082201A9404604F08DFFBDF8F9
:1019D000043013F4707F00F09B806FF0010AAAEBD3
:1019E000050A082506EA070103312B46042204EB09
:1019F0008101404604F078FFBDF8043007F1010989
:101A00000AEB0902C3F3831393424F4605F1040521
:101A1000E8D8D4F81834002B64D1D4F8105465B148
:101A2000EB685A7928464146002A57D02B681B6834
:101A30009847EB681D68002DF2D1404604F032FF54
:101A4000002003F073FFD4F818340BB9C4F80490E5
:101A5000002003F073FF8DE7BDF8063031484FEAF0
:101A600093194D46502D28BF502565F38F1305F16E
:101A70000801ADF8063004F0CFFE804600283FF4A0
:101A800064AF26EA070A0AF1010A04F007FF4FEAE9
:101A90008A0A0023082201A9404604F025FF554583
:101AA0002BD9EBB2BAF1000F20D006EA0701A3EB65
:101AB0000A03033104EB8101DDB25246082340469C
:101AC00004F012FF2A460AF108031749404604F0C1
:101AD0000BFF09F1030907EB99099AE71D68002D2F
:101AE0009ED1AAE7404604F0DDFE43E72A460823DC
:101AF0000D49404604F0F8FEEBE706EA0701033122
:101B000004EB81012A460823404604F0EDFEE0E79D
:101B1000B9467EE72804002024C005000CC005005B
:101B2000C03C050084C00500340400202DE9F047C6
:101B3000DFF8E4A00746002091468846DAF808401E
:101B400003F0F4FEDAE90132DAF8006013440133FD
:101B50009B1B022B5CD80AF21C450121284604F08D
:101B600095F9FFF775FD0146284604F08FF9DAE98B
:101B70000132DAF80010134401335B1A022BECD95E
:101B80000A4003320331452300204AF82230CAF8C4
:101B9000001003F0D3FEB31C23400AEB83030021A3
:101BA0001C48C3F80C9004F067F980F31000731C14
:101BB00023400AEB830300043440033440EA174017
:101BC000D8601AF8243067F3C5030AF824303AF8CD
:101BD0002430012161F389132AF824305AF8242093
:101BE00068F39F22134661F301036FF382034AF8FF
:101BF00024200AF824309AF820341BB906E0FFF7B5
:101C000063FE18B1DAE900329A42F8D1BDE8F087F4
:101C10003146B5E744080020280400202DE9F84F9C
:101C20003A4C8046002093469A468946A56803F0C0
:101C30007DFED4E90132276813440133DB1B032BFB
:101C400061D804F21C460121304604F01FF9FFF769
:101C5000FFFC0146304604F019F9D4E9013221684D
:101C6000134401335B1A032BEDD90A4003320431CC
:101C70008523002044F82230216003F05FFEBA1C67
:101C8000FB1C2A402B4004EB820204EB830300215F
:101C90001F48C2F80CB0C3F80CA004F0EDF880F3B4
:101CA00010007B1C2B4004EB830300043D400335F4
:101CB00040EA1840D86014F8253068F3C50304F8EA
:101CC000253034F82530022262F3891324F82530B8
:101CD00054F8252069F39F221346012161F3010383
:101CE0006FF3820344F8252004F8253094F820345B
:101CF0001BB906E0FFF7E8FD18B1D4E900329A42BB
:101D0000F8D1BDE8F88F3946AFE700BF28040020BE
:101D100044080020044BD3E900239A4201D0FFF786
:101D2000D3BD0020704700BF2804002030B4184DF8
:101D3000D5F8104400215CB1E3681A798A4204D1D5
:101D400016E0DB681A798A4212D01B68002BF8D1A2
:101D5000C3681971D5F8103493B1DA68C368126892
:101D60001A60D5F81034DB68186030BC084670473C
:101D700001310A29DFD14FF0FF31084630BC7047EE
:101D8000C5F81004C2681360084630BC704700BF35
:101D90002804002038B5094BD3F81044012583F8F6
:101DA00020544CB1E3685D71236820465B68984716
:101DB000E3681C68002CF5D138BD00BF2804002062
:101DC0002DE9F04784B01D460C9C002394F80C804C
:101DD0002373EB8881460E461746002B40D1297AA3
:101DE00005290ED06B7AA88873BB404B53F821A00D
:101DF0000021FFF7B5FC524603463D49204604F05A
:101E0000E3F8062F09D8DFE807F0046A4249525D7B
:101E100033004946204604F0D7F82B7A052B05D02D
:101E20006B7A5BB93349204604F0CEF8204604F0C3
:101E3000BFF884F80C8004B0BDE8F0872E4A2F4923
:101E4000204604F0C1F8EDE7FFF7B6FC2C4B2B4918
:101E500053F82020204604F0B7F8297AA888C4E770
:101E6000254A00922749284A204604F0ADF8B6E7F3
:101E7000D6E90410D6E900230390D6E902070291BF
:101E8000CDE900074946204604F09EF8C5E74946DB
:101E9000D6E90023204604F097F8BEE7B168D6E9FA
:101EA000002320460091494604F08EF8B5E7D6E9B4
:101EB0000201D6E90023019100904946204604F032
:101EC00083F8AAE7D6E90371B068D6E90023029146
:101ED000CDE900074946204604F076F89DE73268D0
:101EE0004946204604F070F897E700BF483D0500DA
:101EF0003C3D050024850500303D0500383D0500CA
:101F0000D83C0500183D0500103D0500082900D902
:101F100070472DE9F04F1D46904600232A7B2B7316
:101F200085B0B8F80630039207460E46002B7BD1E9
:101F300098F80810052911D098F80930B8F804006D
:101F4000002B63D13C4B53F821400021FFF708FCE4
:101F5000224603463949284604F036F8DFF8FCB03B
:101F6000DFF8FC90002405E03A5D013404F02CF821
:101F7000082C09D0A64249462846F5D859460134CE
:101F800004F022F8082CF5D12D49DFF8D8B0DFF89D
:101F9000D890284604F018F800240CE017F804A0A4
:101FA000BAF17E0F23D92E2249462846013404F087
:101FB0000BF8082C08D0A642F0D859462846013420
:101FC00004F002F8082CF6D198F80830052B02D05E
:101FD00098F80930A3B91B49284603F0F5FF2846B5
:101FE00003F0E6FF039B2B7305B0BDE8F08F50F0C4
:101FF0009BF850445246437813F0970FD3D0D3E761
:10200000114A1249284603F0DFFFE4E7FFF7D4FB4B
:102010000F4B0E4953F82020284603F0D5FF98F8BF
:102020000810B8F804008DE7074A009209490A4AE7
:10203000284603F0C9FF7BE7483D05003C3D05000D
:10204000083D050024850500303D0500383D0500AC
:10205000D83C0500183D0500103D0500043D050075
:10206000FC3C0500443D05000C3D050070B51A4BD5
:102070001D789DB1194B1C682378C0B2984210D0CE
:1020800004F10802002306E014F8331081421646DA
:1020900002F1080206D001339D42F5D100231B78DE
:1020A000FFDE264605F076F87378A3F10103B3FA54
:1020B00083F35B09834200D070BD094BD3E9002351
:1020C0001343F9D1074B0848196800224908BDE8B5
:1020D000704000F0F5BC00BFE40800203809002083
:1020E00010090020E8080020F00800202DE9F04F3A
:1020F000974E337885B0002B00F02581954F964D93
:10210000DFF8608200244FF00109D7F800B01BF817
:10211000340005F03FF80BEBC4031BF834B05B78D8
:102120004FEA5B0C1BF0010E15F80C10A3F1010334
:10213000B3FA83F314BF0A0901F00F025B09042A02
:1021400000F2BB80DFE802F08ABB5B400300834201
:1021500000F0D680BEF1000F0CBFF0230F233078C3
:10216000194005F80C10A8B1D7F800C09CF8003051
:102170005B4500F0DE800CF10802002304E01CF84F
:102180003310594500F0D68001338342964602F160
:102190000802F4D10020039003F0C8FBABF1200249
:1021A000CBF1200329FA03F309FA02F21A4309FAE0
:1021B0000BF103920291D8E90023DDE9020122EA42
:1021C000000023EA010171E0834232780CD0BEF1B5
:1021D000000F0CBFF0230F2303EA01030CBF0421FF
:1021E0004021194305F80C10013494428DDBD8E9E5
:1021F0000023134340F0938005B0BDE8F08F834285
:102200006FD1BEF1000F14BF0F23F02303EA0103C7
:10221000327814BF30210321194305F80C10002A2D
:10222000E5D0D7F800C09CF800305B4500F08E8008
:102230000CF108010023013393428E4601F108019D
:10224000D2D01CF833005845F5D1DEF80430002B0D
:10225000CAD05846012198473278C5E783422CD12D
:10226000BEF1000F0CBFF0230F2303EA01030CBFE4
:102270000121102119430020019005F80C1003F0F2
:1022800055FBABF1200309FA03F301930198CBF15D
:10229000200129FA01F1084309FA0BF1019000919C
:1022A000D8E90023DDE900011043194302460B463B
:1022B0000020C8E9002303F041FB327894E7834211
:1022C00013BF0023202302221A46BEF1000F12BFC3
:1022D0000F20F020134601400B4305F80C303278F4
:1022E00082E7BEF1000F0CBFF0230F2303EA0103C6
:1022F0000CBF01211021194305F80C10327873E747
:10230000BEF1000F14BF0F23F02303EA010314BF33
:1023100030210321194305F80C10327864E70F4B84
:102320000F4819680022490805B0BDE8F04F00F0D9
:10233000C7BBE646DEF80430002B3FF42BAF00218C
:102340005846984726E7DFF81C8050E7E6467CE7CA
:10235000E40800203809002018090020E8080020BF
:10236000F008002010090020092A40D9F0B583B0F8
:102370000E460546144604F097FD002831D0204A49
:102380002049214B15600E70202200211F481C603F
:102390004FF025FF1E4B00200021741EC3E90001F1
:1023A000E4B236B305EBC4041A4E083D032701E03E
:1023B000A5421ED09DF8063020788DF8047003F0F9
:1023C000FC036FF382038DF80630A3788DF8053097
:1023D000324601A904F072FD083C0028E8D003B0A1
:1023E000F0BD04F017FD0028C9D003B0F0BD0720F0
:1023F0007047094A0948002100F054FB03B0F0BDC2
:1024000038090020E4080020E8080020180900200E
:10241000100900206D200000ED200000B43D0500F3
:1024200070B5084D2B785BB1074E0024336801214D
:1024300013F8340004F032FE2B780134A342F5D8AF
:10244000002070BDE40800203809002000B585B0E8
:1024500000230390194601AA44F20100CDE901339B
:1024600000F004F805B05DF804FB00BF10B572B6CB
:10247000FFF790FCFFF74EFC0028FBD1104B114CEE
:102480001149E41AE408240444F00100FFF7AAF912
:102490000E4B1B68DB0700D500BE44F002000C4960
:1024A000FFF7A0F9BFF34F8F0A490B4BCA6802F43C
:1024B000E0621343CB60BFF34F8F00BFFDE700BF67
:1024C0000CC0050024C00500C43D0500F0ED00E08F
:1024D000D03D050000ED00E00400FA05F0B412F074
:1024E000030412D14B1CDB000A4D0B4E0B4F347012
:1024F0009BB213442B600A4E0A4D0B4B28803A6066
:10250000347019802046F0BC704707242046F0BC88
:10251000704700BF400900203C090020440900200A
:102520004C090020480900204A0900202DE9F04705
:10253000294F3B888B4235D30546002016460C4672
:1025400003F0F4F9254B264A2648197813780088B9
:10255000DBB2834238BF0133C9B234BFDBB20023E0
:10256000994222D092F800801378DFF88090DBB295
:10257000984286BF0133DBB200235FFA88F800205F
:10258000137003F0DBF9D9F800300FFA88F24FEA44
:10259000C20A43F83260534405B164B90020988000
:1025A000BDE8F0870920BDE8F087002003F0C6F9F8
:1025B0000420BDE8F0870C4B38881B68294608FBCF
:1025C000003022464FF0E7FDD9F800309A44002051
:1025D000AAF80440E4E700BF480900204C090020A5
:1025E0003C0900204A09002040090020440900203D
:1025F0002DE9F84F1B4C1C4D22782B789A4226D09F
:10260000DFF86CA0DFF86C90184FDFF86CB04FF07B
:1026100000082378DAF800203888D9F80060DBB2A7
:102620000FFA83FE02EBCE0103FB0060898852F8AB
:102630003E3098472378BBF80010DBB25A1C994211
:10264000D2B206D9227023782A789A42E1D1BDE825
:10265000F88F84F8008022782B789A42D9D1BDE88F
:10266000F88F00BF4C0900203C09002048090020D9
:1026700044090020400900204A090020D0E9022333
:10268000D1E90201994208BF90422CBF01200020ED
:10269000704700BFD0E90030184700BF2DE9F04F68
:1026A00087B0029003F05CFA40B1B049D1E9002351
:1026B00012F1807443F10005C1E900450021029840
:1026C000AB4E03F069FA002800F0D6803368002B87
:1026D00000F0D280A74B34681B7823B11CB1237F54
:1026E000002B40F0588104AB039300230121029892
:1026F000336003F051FA002800F0C7809E489F4FD6
:1027000003F05CFA994BD3E90045D7E9002314EBB9
:10271000000845F10009994508BF904540464946E3
:1027200003D218F1807049F10001DDF80C80C7E98F
:1027300000014146924803F061FB002840F0AE8062
:10274000DFF84882DFF830A2DFF82092404604F03C
:102750005BF93368002800F0FB8073B13368D0E97F
:102760000201D3E90223994208BF904280F0CA8057
:1027700033681B7F002B40F0C880404604F03EF9D0
:102780000746D7E902235046CDE9002303F016FAA5
:10279000D9E90023794C12EB000B43F1000CD4E98A
:1027A00000239C4508BF93455846614603D21BF160
:1027B00080704CF10001DDE90023121A63EB010384
:1027C0001946012A71F10003C0F2A9806D4DAA4299
:1027D00000F2A080BA684FF496030021504603F03F
:1027E0003DF9002800F08B800D28AFD1614B1B789C
:1027F000002BABD03B7F002BA8D0504603F0DEF976
:10280000D4E90023D9E90045241845F100059D428B
:1028100008BF94422046294603D214F1807045F146
:102820000001D7E90223994208BF9042C0F0988086
:102830003B69002B00F092807B690493BB69524A8C
:10284000039805930821FFF771FE002840F0A0804F
:10285000396900293FF47AAF3B7F002B3FF476AF14
:10286000D7E90223541843F10005C7E90245394668
:10287000404604F0AFF869E704AB012102980393E6
:1028800003F08AF900287FF439AFDDF80C803C486A
:10289000414603F0B3FA00283FF452AF03783B4DB2
:1028A000344F374C012B1FD043D3022B0ED1284677
:1028B0004FF0000904F0A2F830B180F81C902846CF
:1028C00004F09CF80028F8D101233B7041462046D3
:1028D00003F0C2FA4146204603F090FA00283FF484
:1028E0002FAF0378012BDFD133684168994208BFCD
:1028F0000023284608BF336004F08AF8E6E733680F
:1029000013B3376007B0BDE8F08F3168404604F07C
:1029100061F832E7504603F051F942195BE70021B4
:10292000504603F02DF9134B1B78002B3FF40EAFEC
:1029300060E743681A7F002AC8D101221A774168EC
:10294000284604F047F8C1E7029803F059F8D8E7A1
:10295000002BD7D1029803F057F8D3E73B776BE70A
:102960003946404604F036F8F0E600BF580900202A
:10297000D80900206009002010000020D0090020A4
:10298000BC090020FFFFB40095260000E43D0500CF
:10299000FFF75CFD5CE7234803F010F9224A234B64
:1029A000D2E90089D3E9002318EB000A49F1000BB2
:1029B0009B4508BF92455046594603D21AF1807094
:1029C0004BF10001D4E90223994208BF904223D37E
:1029D000236903B923776369049304A8A369144A9C
:1029E000039008210593FFF7A1FD08B1FFF72EFD25
:1029F000216900293FF479AE237F002B3FF475AEA7
:102A0000D4E90223571843F10008C4E902782146AB
:102A1000084803F0DFFF68E62146064803F0DAFFC6
:102A200061E600BF1000002058090020D0090020F6
:102A300095260000E43D050010B5134B13491B68B3
:102A4000134882B058220193082303F083F9044607
:102A500010B1204602B010BD0E4A0F4801A902F085
:102A600077FF04460028F4D101210B4803F06EF8EB
:102A700001231946094A084802F0CAFF084B0122FF
:102A800020461A7002B010BDE03D05006409002028
:102A9000BC0900209D26000010000020FFFF7F00E1
:102AA000600900204AB1A1F101010368B1FA81F186
:102AB0004909C3E90412002070470720704700BF8E
:102AC000037F0BB1002070472DE9F048826182B08E
:102AD00004461F480D4603F071F81E4B1E49D3E90A
:102AE0000023D1E9006712EB000B43F1000CBC4559
:102AF00008BFB34503D21BF1807B4CF1000C1BEBEC
:102B0000050221694CF10003C4E9022379B901A946
:102B1000124803F037F988B100254460057001A917
:102B20000E4803F05BF968B902B0BDE8F088256192
:102B300001A90A4803F026F90028EDD1042002B0CB
:102B4000BDE8F088024803F03DF82846ECE700BFF6
:102B50001000002058090020D0090020BC090020E6
:102B600030B5002583B00446057701A90B4803F072
:102B700009F978B101234460037001A9074803F003
:102B80002DF908B903B030BD054803F01BF82846FD
:102B900003B030BD042003B030BD00BFBC0900202D
:102BA0001000002030B583B001A9124803F0EAF804
:102BB000F0B1114D044628682060002002F0B6FEF6
:102BC0000E4B0F481B88026801339B1AE3800021DB
:102BD00003F052F9A080002002F0B0FE01A90548E0
:102BE00003F0FCF8074B1B6813B1014628469847D1
:102BF00003B030BD880B0020183E05007C0A002081
:102C0000A80B0020E009002030B50378052B83B025
:102C1000054626D0002B31D12C4B1C683CB12368D3
:102C200068889B68984723685C68002CF7D1284C1B
:102C3000002002F07BFE23687BB10121244803F0D1
:102C400025F9002002F07AFE224B1B6813B12846BA
:102C500001219847236803B030BD1F4B6A881A8052
:102C6000EBE71E4BD3F88424D3F8803413F0FF0F26
:102C700004D11B4BD2B2052A08BF1D4601A9194831
:102C800003F080F804460028E5D02B68036000209C
:102C900002F04CFE104B0E481B88026801339B1A51
:102CA000E380002103F0E8F8A080002002F046FE57
:102CB00001A90C4803F092F8064B1B68002BCAD000
:102CC00001462846984703B030BD00BFA00B002046
:102CD000A80B0020E00900207C0A002000700240C0
:102CE000143E0500880B002030B5012883B030D099
:102CF00009D302282BD101A91A4803F043F804464E
:102D000028B3194D06E001A9164803F03BF8044624
:102D1000E8B1164D28682060002002F007FE144B31
:102D200014481B88026801339B1AE380002103F0DA
:102D3000A3F8A080002002F001FE01A9094803F0D9
:102D40004DF80D4B1B6813B101462846984703B058
:102D500030BD01A9034803F015F804460028F6D059
:102D6000064DD7E7880B0020103E0500083E050001
:102D70007C0A0020A80B0020E00900200C3E050082
:102D80002DE9F04F87B006AF0026044689469246EB
:102D90009B4647F8106D00E00136626801235568D4
:102DA000214600223846A8470028F5D18DF80600B4
:102DB000049066B3804605460AE09DF806306768D1
:102DC000023B7F68B8479DF806301D44AE421ED9CD
:102DD00062680123576821460DF1060204A8B8472E
:102DE00062680123576821460DF1070204A8B8471D
:102DF0009DF807304B454FF00002214604A8DCD176
:102E0000C24508D008F101085FFA88F8D5E7052027
:102E100007B0BDE8F08F109A9DF8063013608BF86C
:102E200000308BF801906168023B4D680BF10202A3
:102E30002146A8470020EBE72DE9F041082382B0A6
:102E400005464FF484723949394802F083FF40B98E
:102E5000384805F0A3FC044640B1204602B0BDE866
:102E6000F0810324204602B0BDE8F081324A3349A4
:102E7000334B14700C604822214632481C604FF0DE
:102E8000AEF92146482230484FF0A9F9002D45D02F
:102E900095E807002D4B83E80700002003F094FE1F
:102EA00008B185283FD12A4D274F2B7A6E68DFF86D
:102EB00094C005F109044FF0030E1EFB034E744548
:102EC0001FD0F4B16378CBB1A278A21816D003F169
:102ED000FF38114652FA88F8013A01E001310DD06D
:102EE00012F8010F00F00F03DB0000064CBF634433
:102EF000DB1990451D6030685860EFD1033474458C
:102F0000DFD102A90B2301F8043D1148336898472B
:102F100004460028A1D005F0D5FC9EE70B4BC3E981
:102F200000551D72B9E7FFF791FABCE7800A00204F
:102F3000880B0020092C0000AC0B0020980B00200F
:102F40009C0B0020EC090020340A0020E00900203E
:102F5000583E050008B503F059FE05F0B3FC1849CA
:102F60000B6833B100201A68086013681146002B03
:102F7000F9D1144B1A683AB100211268196013464E
:102F800053F8042F002AF8D10F4B1A683AB10021E8
:102F900012681960134653F8042F002AF8D148220A
:102FA00000210A484FF01BF94822002108484FF041
:102FB00016F90C22002107484FF011F9002008BD36
:102FC000980B00209C0B0020A00B0020EC09002097
:102FD000340A0020E009002010B505F08FFD40B153
:102FE00005F094FD044620B9054803F001FE10B930
:102FF00010BD082010BDFFF729FA204610BD00BF04
:10300000043E050005F068BC06F068BD4FF0804343
:1030100003E0D3F83824D1072BD5D3F8382492070E
:10302000F7D530B583B001A9124802F0ABFE0446D3
:10303000E8B1114D28682060002002F077FC0F4BAA
:103040000F481B88026801339B1AE380002102F0BD
:1030500013FFA080002002F071FC01A9054802F0D6
:10306000BDFE084B1B6813B101462846984703B0C4
:1030700030BD7047880B00201C3E05007C0A0020F4
:10308000A80B0020E009002010B582B0822301A91E
:1030900012488DF8003002F075FEE8B10446009841
:1030A0002060002002F042FC0D4B0E481B88026895
:1030B00001339B1AE380002102F0DEFEA080002095
:1030C00002F03CFC01A9054802F088FE064B1B6893
:1030D00013B101466846984702B010BD880B002026
:1030E0007C0A0020A80B0020E00900202DE9F04F09
:1030F000037881B08246852B00F2B980DFE813F0B7
:103100003A028B01BA00ED015602D800E000B70088
:10311000FB000E012101B700B700B700B700340172
:10312000B700B700B700B700B700B700B700B700E7
:10313000B700B700B700B700B700B700B700B700D7
:10314000B700B700B700B700B700B700B700B700C7
:10315000B700B700B700B700B700B700B700B700B7
:10316000B700B700B700B700B700B700B700B700A7
:10317000B700B700B700B700B700B700B700B70097
:10318000B700B700B700B700B700B700B700B70087
:10319000B700B700B700B700B700B700B700B70077
:1031A000B700B700B700B700B700B700B700B70067
:1031B000B700B700B700B700B700B700B700B70057
:1031C000B700B700B700B700B700B700B700B70047
:1031D000B700B700B700B700B700B700B700B70037
:1031E000B700B700B700B700B700B700B700B70027
:1031F000B700B700B700B700B700B700B700B70017
:103200004801860057011C02D001D8009C4BDFF812
:1032100088929C49D3E900029047D9F80040002CDD
:1032200040F09A82DFF86CA2DAF80430002B40F00C
:10323000A28201F0E7FF944B1B68002B00F00B8388
:103240000120924D05F024FC2A78931EDBB2062B58
:103250000BD88F49CB5C13B103F0A2FC2A78022A69
:1032600000F0F382082A00F0F08201232B7001B0F5
:10327000BDE8F08F854D2A78931EDBB2062B0BD864
:103280008349CB5C13B103F08BFC2A78022A01D06E
:10329000082A01D105F08CFC7E4B5B6803222A7062
:1032A0000BB1022098477C4B1C68002C40F0AE818B
:1032B000734BD3E90002514601B0BDE8F04F10470F
:1032C000827802F00F0312064CBF744A6C4ADB008E
:1032D0001344D3E90002514690470028C7D09AF81A
:1032E000020000F00F03013B062BC0D801B0BDE87F
:1032F000F04F05F07BBD674B5B680BB1082098472A
:10330000654B1C68002CB2D0636820461B68514690
:10331000984723681C68002CF6D1A8E75D4B5B68D2
:103320000BB1092098475C4B1C68002C9FD0636848
:1033300020461B685146984723681C68002CF6D12C
:1033400095E7544B5B680BB10A209847524B1C68B9
:10335000002C8CD0636820461B6851469847236830
:103360001C68002CF6D182E74A4B5B680BB10F203A
:103370009847494B1C68002C3FF479AF636820469E
:103380001B685146984723681C68002CF6D16EE7ED
:103390003E4D2B78062B00F02B82072B02D0052BFD
:1033A0007FF465AF05F00EFC02232B705FE7DFF8BA
:1033B000E890D9F80070002F00F0408197F808A03D
:1033C000BAF1000F00F035814FF00008444607F1D4
:1033D00009057B68DB6813B12146384698473B7A7C
:1033E000A34240F2A3816E78002E00F019810024E0
:1033F000234632460AE0AB782A190134D05C06F045
:1034000007F9E3B29E4240F20B816A789A42F2D801
:1034100000231B78FFDEDFF88090D9F80070002FC2
:1034200000F0578197F808B0BBF1000F00F04C8115
:103430004FF00008444607F109057B68DB6813B1CB
:103440002146384698473B7AA34240F26F816E7816
:10345000002E00F030810024234632460AE0AB788B
:103460002A190134D05C06F0D3F8E3B29E4240F250
:1034700022816A789A42F2D800231B78FFDE00BFCF
:10348000340A0020203E05009C0B0020AC0B0020DD
:10349000FC3D0500E0090020980B0020EC0900200D
:1034A000A44D2B78032B00F0A88105F047FB0028E2
:1034B0003FF4DDAE2B789A1ED2B2062A40F2DD81AF
:1034C0009D4803F03FFB2B78022B00F0CD81082BA9
:1034D00000F0CA8106232B70C9E6964D2B78082B85
:1034E00000F07E819A1ED2B2062A40F2B78192483D
:1034F00003F028FB2B78022B00F0AA81082B00F0A8
:10350000A78105232B708D4B5B680BB10320984777
:103510008B4B5146D3E9000290478A4B1C68002C24
:103520003FF4A5AE636820461B6851469847236860
:103530001C68002CF6D19AE67E4D2B78032B7FF485
:1035400096AE06F0EFF900283FF491AE2B789A1E64
:10355000D2B2062A0BD87C498A5C12B103F020FB58
:103560002B78022B00F09281082B00F08F8104232E
:103570002B707CE66F4B1B78032B00F05581082BDA
:1035800000F052816D4B5B680BB1002098476F4B88
:103590001C68002C3FF46BAE636820461B685146E4
:1035A000984723685C68002CF6D160E6634B5B6843
:1035B0000BB103209847624B6549D3E9000290475D
:1035C000604B1C684CB1624D636820461B682946FD
:1035D000984723681C68002CF6D1564D2B78062B93
:1035E00000F00381082B0ED09A1ED2B2062A40F2B8
:1035F0003E81514803F0A6FA2B78022B03D0082B0A
:1036000001D005F0DFFA02232B7030E66368204614
:103610001B685146984723681C68002CF6D147E682
:1036200008F101085FFA88F4A24505F103053FF6A9
:10363000D0AE3B681F68002F7FF4C0AE3D4D06F052
:10364000A1F82A78931EDBB2062B0BD83E49CB5C3F
:1036500013B103F0A5FA2A78022A01D0082A01D171
:1036600005F0A6FAD9F8004000232B704CB1394E72
:10367000636820461B683146984723681C68002C05
:10368000F6D12F4B3349D3E9000290472B4B5B68AF
:103690000BB10E2098472B78023BDBB2062B3FF68E
:1036A000E6AD294AD35C002B3FF4E1AD01B0BDE8A3
:1036B000F04F03F075BA08F101085FFA88F45C4531
:1036C00005F10305FFF4B9AE3B681F68002F7FF4D6
:1036D000A9AE184D01F08CFD2A78931EDBB2062BA3
:1036E00079D81949CB5C002B75D0022A03D0082A5F
:1036F00001D005F067FA114B5B6802222A700BB10A
:10370000012098470E4B5146D3E900029047D9F863
:103710000040002C3FF4ABAD636820461B68514667
:10372000984723681C68002CF6D1A0E500235B783D
:10373000FFDE00BFAC0B002018000020E0090020D5
:10374000340A0020980B0020FC3D05009C0B002053
:103750002C3E0500243E05004E4D636820461B6844
:103760002946984723681C68002CF6D1DFF834A15D
:10377000DAF804300BB10D209847D9F80070002F0B
:103780003FF457AD97F80890B9F1000F58D04FF0BB
:103790000008444607F109057B68DB6813B1214640
:1037A000384698473B7AA342C0D96E78002E3FD066
:1037B00000242346324609E0AB782A190134D05C54
:1037C00005F026FFE3B29E4232D96A789A42F3D8D6
:1037D00000231B78FFDE304803F0B4F92A7884E731
:1037E00002232B7005F0F8F98DE607232B703EE5D8
:1037F00005F0E8F908232B7039E506F093F8002866
:103800003FF453AE2B789A1ED2B2062A09D8234928
:103810008A5C12B103F0C4F92B78022B33D0082B49
:1038200031D004232B7040E61D48FFF75FFCA9E66A
:1038300008F101085FFA88F4A14505F10305ABD84A
:103840003B681F68002F9DD1F3E405F0B1F90CE54A
:1038500005F0AEF955E69AF80800F2E40F498A5CE3
:10386000002A7FF448AE42E605F0A2F932E60B49A1
:103870008A5C002A7FF4C1AEBBE608498A5C002A54
:103880007FF422AE1CE605F093F9CAE705F090F943
:103890006DE600BF203E050018000020FC3D05003D
:1038A000283E0500E009002070B5284E82B034683B
:1038B000002301930CB3A588A5B1E388B3F5006F8D
:1038C0003ABF5A1C92B2012205F1FF3528BF0023EE
:1038D00001A8A580E280ADF80630FFF707FC0120C3
:1038E00002B070BD2046FFF701FC1949194802F0EB
:1038F000B3FA0120356002B070BD1549154802F0D9
:103900007DFA044630600028D5D1134B1B6813B9EB
:10391000184602B070BD114D02F008F82B880E4811
:10392000B3F5006F39BF5A1C92B223460122012120
:103930002A80ADF8063002F0C1FA002001F0FEFF47
:1039400001A8FFF7D3FB012002B070BDB00B00202F
:10395000DC090020880B0020A80B00207C0A002036
:103960002DE9F041067A374FDFF8E0C000F1090495
:103970004FF0030E1EFB064E21468E4582B01AD034
:10398000D1B14D78002211E08B781344D9420FD089
:1039900011F8038008F00F03DB0018F0800F14BF4C
:1039A0006344DB1901321B68002B46D19542EBD1F1
:1039B00003318E45E4D10021CDB2B542214FDFF86D
:1039C0008CC028D205EB4505651924D06B78F3B17E
:1039D000AB78EB1818BF4FF0010E05D117E0AB78AC
:1039E0007344EB1812D096461B7803F00F02D200F6
:1039F0001B064CBF6244D219106043681E685660B3
:103A00006E780EF101037645DAB2E8D8067A013114
:103A1000CDB2B542D6D30C4A13681BB11A681368ED
:103A2000002BFBD102A910600B2201F8042D436882
:103A30001B68984702B0BDE8F081112002B0BDE8D4
:103A4000F08100BF340A0020980B0020EC09002010
:103A50002DE9F041444F454E3C68454D82B04FF052
:103A60000C08002C7BD002A9636801F8048D204665
:103A70001B689847002873D123681B683B60236844
:103A8000186033689C42B36808BFC6E900009C42D6
:103A900004BF0023C6E9023333699C4204BF0023FC
:103AA000C6E90433B3699C4204BF0023C6E9063368
:103AB000336A9C4204BF0023C6E90833B36A9C42C0
:103AC00004BF0023C6E90A33336B9C4204BF0023C2
:103AD000C6E90C33B36B9C4204BF0023C6E90E3326
:103AE000336C9C4204BF0023C6E910332B689C4210
:103AF00004BF0023C5E90033AB689C4204BF002328
:103B0000C5E902332B699C4204BF0023C5E9043395
:103B1000AB699C4204BF0023C5E906332B6A9C4273
:103B200004BF0023C5E90833AB6A9C4204BF0023ED
:103B3000C5E90A332B6B9C4204BF0023C5E90C3353
:103B4000AB6B9C4204BF0023C5E90E332B6C9C4237
:103B50003C6804BF0023C5E91033002C83D1204604
:103B600002B0BDE8F08100BF980B0020EC090020F6
:103B7000340A0020024B1878003018BF012070472B
:103B8000A40B002000F00F03072B10B5044604D847
:103B900005F0B6F9204605F035F92046BDE810409D
:103BA00005F058BC05F034BD014B1868704700BFE4
:103BB000980B002070B4114B1E68A6B1357A75B110
:103BC000737A834206F1090210D0002303E012F851
:103BD000034F84420BD00133DBB29D42F7D13368EF
:103BE0001E68002EEAD1304670BC704700230029C1
:103BF000F9D030460B7070BC704700BF980B0020A6
:103C0000436811461B68184700F00F03082B0AD8B9
:103C100002064CBF054A064ADB001344186810B17F
:103C200043681B6818471020704700BFEC0900204C
:103C3000340A002038B5094B1C6864B1054602E01F
:103C400023681C683CB1636829461B682046984776
:103C50000628F5D038BD062038BD00BF980B0020DF
:103C600038B50D46044604F0CDFF18B1054B1B785E
:103C7000022B01D0082038BD29462046BDE8384037
:103C800004F0D0BFAC0B002038B50D46044604F05C
:103C9000B9FF18B1054B1B78022B01D0082038BDA5
:103CA00029462046BDE8384005F048B8AC0B002056
:103CB000F8B543689B6805460C4616461BB1984705
:103CC000062800D0F8BD86BB2B7AA3421DD9093542
:103CD00004EB44042C4467782FB3354633463A4608
:103CE0000EE0A3786219D65C06F00F03072B30466E
:103CF0000DD9013505F0AEFBEBB29F4213D96278C6
:103D00009342EED300231B78FFDE7378FFDE05F0CD
:103D1000F7F8304605F076F80135304605F09AFBA5
:103D2000EBB2BB42EBD30020F8BD0720F8BD00BFCB
:103D300043681B6903B11847184670472DE9F047DF
:103D4000304BD3F80090B9F1000F59D099F808A082
:103D5000BAF1000F4DD04FF00008444609F10905B3
:103D600007E008F101085FFA88F4A24505F10305B0
:103D70003FD9D9F804309B682BB100222146484630
:103D800098470628EDD199F80830A34202D80023BD
:103D90005B78FFDE6F78002FE3D0002423463A469D
:103DA0000EE0AB782A19D65C06F00F03072B3046DD
:103DB0000BD9013405F04EFBE3B29F42D1D96A78AA
:103DC0009342EED300231B78FFDE05F099F83046CE
:103DD00005F018F80134304605F03CFBE3B29F4291
:103DE000EDD808F101085FFA88F4A24505F1030552
:103DF000BFD8D9F80030D3F80090B9F1000FA5D1A1
:103E0000BDE8F087980B00202DE9F8431E4B1F6892
:103E1000002F33D097F80890B9F1000F2AD04FF057
:103E20000008444607F109057B68DB6813B12146A9
:103E3000384698473B7AA34222D96E7896B100243F
:103E40002346324609E0AB782A190134D05C05F0EC
:103E5000DFFBE3B29E4205D96A789342F3D3002395
:103E60001B78FFDE08F101085FFA88F4A14505F12F
:103E70000305D9D83B681F68002FCBD1BDE8F88374
:103E800000235B78FFDE00BF980B00204360CA6907
:103E90009A4205D201F1280202608B670020704728
:103EA0008A6902600B67CB61002070472DE9F04101
:103EB0000468D04E0D7A3570B4F5487F00F08983E0
:103EC0002ED940F23235AC4200F0858400F2C98030
:103ED000B4F54A7F00F0688440F2458140F22D3508
:103EE000AC4200F0258400F26E8240F22B35AC42E9
:103EF00000F05683B4F54B7F40F0E88201240025A2
:103F0000002A00F0318507795755A3424FF002058A
:103F1000057100F28B8540F22D3303600120C7E16B
:103F200040F20237BC4200F0228448D840F2F22727
:103F3000BC4200F0458340F2678140F2F527BC4265
:103F400000F0188400F2FE8140F2F327BC4200F03A
:103F5000D583B4F53D7F40F0B982002A00F0208679
:103F600090F804E001244FF0000C0027A34202F86F
:103F70000CE0077140F23F8402EB040C01348CF832
:103F80000070DFF87CC200278CF80070AF4280F030
:103F9000B0830925A342057140F24085671C002AC1
:103FA00000F06D8505791555BB424FF0040404718E
:103FB00000F2BF8540F2FD230360012078E140F26A
:103FC0000F35AC4200F0C383B4F5447FC0F081806C
:103FD000B4F5467F00F0D38340F2998240F21E355B
:103FE000AC4200F06B8200F24B8340F21D35AC42D4
:103FF00040F06C8201250024002A00F079840779C2
:1040000017559D424FF02404047180F056842746D2
:1040100005F1010E002473455755047140F24384A5
:1040200025460EF1010C1024634502F80E50047170
:1040300040F2208425460CF101070124BB4202F81E
:104040000C50047140F20784254607EB040C05244C
:104050006345D555047140F2F98325460CF10107FB
:1040600098E040F24E35AC4200F0A68340F2018168
:1040700040F25F35AC4200F01F83B4F5587FC0F0CA
:10408000568240F26535AC4200F0108240F26A354B
:10409000AC4200F00B82B4F5587F40F01782002A42
:1040A00040F090850124544D0F7D2D682D78AF424E
:1040B00000F0F0838F7DAF4200F09D84DFF844C1B3
:1040C0004E4F9CF800503F780135EDB28CF800500F
:1040D0003CE0B4F5427F00F08B8200F2988140F220
:1040E0000335AC4200F05282B4F5417F40F0EE81DE
:1040F000414C2768002A00F0718504799646012515
:104100008EF800403C780F7DA74200F0E3838F7D5E
:10411000A74200F0BC840024AB42047140F2F2815B
:104120006C1C0AB107795755334D91F814C02D68AE
:104130002F78BC4500F01982DFF8C0E0DFF8C4C07A
:104140006F788EF8007000258CF80050BD42C0F0EA
:10415000C181DFF8ACC035789CF800700137FFB240
:104160008CF8007012E740F22535AC4200F04D8328
:1041700000F25E8140F22135AC4200F00383B4F5D9
:10418000497F40F0A381002A00F0028505790127CC
:104190004FF0000C2424BB4202F80C50047140F292
:1041A0004B8307F1010E01257345D455057140F28B
:1041B00034830EEB050C0324634502F80E500471A2
:1041C00040F230830CF1010702F80C40BB4291F839
:1041D00016C080F804C040F2DD827D1C0424AB428E
:1041E00002F807C0047100F2268440F22B3303600A
:1041F00001205DE0B60B0020B80B0020B40B0020BE
:10420000B50B0020B70B002040F2EF27BC4200F0B6
:104210000882B4F53C7F80F01C81002C00F077828E
:1042200040F2EE27BC4240F05181002A00F0368473
:1042300004791470012B4FF00B04047140F20A84CE
:104240004FF0030C02274FF0010E02F80E40BB4264
:1042500091F814E080F804E040F2078302246345FB
:1042600002F807E0047140F2FB8227460CF10108D6
:10427000FDE040F23535AC4200F00B821AD840F236
:104280003335AC4200F0DA81B4F54D7F40F01E8149
:1042900001240025002A00F08B8307795755A3429B
:1042A0008D7D057100F2BF8340F23533036001203C
:1042B000BDE8F08140F24935AC4200F0178240F28F
:1042C0004A35AC4240F00281002A00F08E84057924
:1042D000944601248CF80050C24FC34D3F682D789E
:1042E00097F801C0AC4540F20A8197F802C03D44FE
:1042F000A34215F80C50057140F24381651C1AB1B8
:1043000090F804C002F804C03C780F7DA74200F08A
:10431000D9828F7DA74200F0A8834024AB4204716C
:1043200040F219816C1C002A00F0AE8207795755C3
:10433000A3424FF00005057140F2128117190134B4
:104340003D70B0E6B4F53F7F00F0758140F2FD2787
:10435000BC4240F0BB80002A00F03D840479154641
:1043600001272C700D7AA14C2478AC4280F0EE80AD
:1043700004EB440501F10904DFF868C214F805E014
:1043800080F804E02C44BB42CCF8004040F290821C
:104390007C1C002A00F01B830579D555A3424FF001
:1043A0000005057140F26B828E4F3F6804F1010CED
:1043B000155563457C78047100F251834FF44173C5
:1043C0000360012074E740F22E35AC4200F07C819E
:1043D00040F23135AC4279D1002A00F004840779EB
:1043E000944601252424AB428CF80070047140F2FD
:1043F000668127466C1C5755A3424FF00605057190
:1044000000F2238340F233330360012050E740F28F
:104410000935AC4200F0858140F20A35AC4255D1F5
:10442000002A00F0D583174604793C70012572E616
:1044300040F22635AC4200F0D58140F22735AC423F
:1044400044D1002A00F09983047901274FF0000C31
:10445000BAE600F0288140F2F127BC4236D1002AAA
:1044600000F0A08307794FF001084FF0000C022400
:10447000434502F80C70047140F2E381274608F1CD
:10448000010E0224734502F80870047140F2CF81D6
:104490000EF1010C02F80E40634591F819E080F826
:1044A00004E040F2AD810CF101045EE50124002539
:1044B000002A3FF403AE07795755FFE5002A00F0C4
:1044C0005A8307794FF0010E0025A3E5002303600E
:1044D0001846EDE60725A34205714DD9671C002A51
:1044E00000F0FF8105791555BB424FF005050571B8
:1044F00000F2908240F24A3303600120D8E60023A4
:104500001B78FFDE4FF4467303600120D0E6B4F55C
:10451000447F00F0A28040F21135AC42D6D1002A8F
:1045200000F056831446077927700125F3E540F221
:104530005335AC4202D0B4F5567FC7D101250024D3
:10454000002A3FF4EAAE07791755E6E6254A00232C
:1045500013601B78FFDE40F25F3303600120A7E6A3
:104560004FF4587303600120A2E605259C420571B3
:1045700080F04B82651C3FE540F249330360012027
:1045800096E640F24E330360012091E6154C276811
:10459000002A00F0EE8205794FF0010C002407E7B5
:1045A000002A00F027830779944601252424AB4292
:1045B0008CF80070047140F2048127466C1CA3E45F
:1045C000002A00F0D48207794FF0010E4FF0000866
:1045D00057E7002A00F0E882057901274FF0000C28
:1045E0002BE500BFB80B0020B70B0020B50B002057
:1045F00001240025002A00F0838207795755A34241
:104600004FF00207077140F2DD81651C1755AB4280
:104610004C7E047100F26F8240F20A330360012085
:1046200046E6002A00F0B18204794FF0020C01271F
:104630004FF0000E09E601270024B0E4002A00F044
:10464000D7820779944601258CF800700F7D077199
:10465000AB4240F2A4806C1C20E6002A00F093825A
:1046600090F804C0012500240027AB4202F804C0E2
:10467000077100F2538240F211330360012017E604
:10468000002A00F08B8205794FF0010C4FF0000EEC
:10469000C9E4002A00F0A5820579174601243D707F
:1046A000C74D2D6848E5002A00F0698290F804E0C3
:1046B0004FF0010C0027D1E50124002533E640F23C
:1046C000323303600120F3E501240025002A00F0C5
:1046D000578107795755A3424FF00505057100F240
:1046E000AF8140F2313303600120E1E5012700246E
:1046F000F5E640F2753303600120D9E5002A00F0A9
:10470000558204794FF0010C4FF0000EC2E60824E8
:104710000471002B7FF489AD40F2EE230360012089
:10472000C6E5002A00F038820779012500246DE7EC
:10473000002A00F061820779944601250224AB42E9
:104740008CF80070047141D927466C1CC2E7012423
:104750000025002A00F0F081077957554FF0000C32
:104760009C4280F804C080F04181651C7CE70124F4
:1047700000270EE6002A40F0E981012401E401242B
:104780000025CEE4002A00F0058205794FF0010CE7
:1047900000275CE44FF44A730360012088E54FF47E
:1047A0004D730360012083E5002A00F0018290F838
:1047B00004C00125002711E5814C0125276800244C
:1047C0009DE54FF44B730360012071E540F22E33F9
:1047D000036001206CE501240025002A00F0DC8044
:1047E000077908E6002A00F0CC8105794FF0010C2A
:1047F0004FF0000EDFE440F2F5230360012057E59F
:104800004FF43D730360012052E5002A00F0D2818D
:1048100004794FF0010E0027C5E440F2263303600F
:10482000012045E540F227330360012040E540F2D6
:10483000F323036001203BE540F2253303600120B0
:1048400036E540F2F2230360012031E54FF449736D
:10485000036001202CE540F221330360012027E5AD
:1048600040F2F1230360012022E54FF43C73036022
:1048700001201DE54FF448730360012018E540F264
:1048800003330360012013E5A34202717FF668AE93
:10489000013408E40D6AA3422D78057140F243818A
:1048A0002546013404E640F21F3303600120FFE493
:1048B00040F2023303600120FAE440F21E33036049
:1048C0000120F5E40324AB42047140F244812C46FC
:1048D000013535E60224AB42047140F242816C1C82
:1048E00088E60524BB4204717FF604AE7C1CF3E429
:1048F00024249D420471E0D26C1C0025A342057162
:10490000D1D901341025A3420571B3D90134012551
:10491000A34205719FD92C440525A342057195D961
:1049200001342425A342057186D901340125A3420F
:1049300005717FF672AF2C440325A34205717FF603
:1049400071AF01348D7D0571A3427FF623AF013431
:104950000425A34205717FF648AC651C24279D42BF
:104960000771BFF42EAF023402259C420571BFF4DB
:10497000D2AA651C02279D420771BFF427AF3C44B1
:104980000525A34205717FF6ACAE651C24279D4228
:104990000771BFF494AE02340625A34205717FF679
:1049A00031AD0D7D0571651C9D42BFF4F8AE02343A
:1049B0008D7D0571A3427FF677AC013470E600BFB0
:1049C000B80B002040F209330360012070E4A342D9
:1049D00002717FF654AF894D2F6801347D780571DF
:1049E000A3427FF6EBAC651CFFF78CBB4FF444731E
:1049F000036001205CE40025A34205713FF650AF3F
:104A000040F26A330360012052E440F21D33036038
:104A100001204DE402EB070C7C1C5BE44FF43F7378
:104A20000360012044E41719013438E62F4602EBF5
:104A3000040C651C82E602EB050C27460135B5E542
:104A40002F4602EB040C651CCCE42F4602EB040C51
:104A5000651CF9E540F2EF230360012028E402EB36
:104A60000C0E0CF10105FFF74BBB0224AB420471A5
:104A70003FF62DAF4FF456730360012018E4042471
:104A8000BB4204717FF696AA01370D7A6BE40A24C3
:104A9000AB42047140F290806C1C5AE60B24012B4F
:104AA0000471D7D90324022791F814C080F804C0F8
:104AB000BB427FF6DAAE0227A34207717FF6D0AE83
:104AC00001340227A34207717FF6BBAE01340227EF
:104AD000A34207717FF6ABAE01344F7E0771A3424C
:104AE0007FF68EAE01340027A34207717FF683AEB6
:104AF0000134FFF746BA571901353C70FFF70BBB7D
:104B00000225A34205717FF65DAF01344D7E05712C
:104B1000A3427FF681AD651CFFF7FDBA541901353C
:104B20002770FFF7F8BA40F2653303600120FFF702
:104B3000BFBBD519013714E49C420271BFF456AFD4
:104B400001340025A3420571E5D894E50779944620
:104B50000124FFF714BA40F2533303600120FFF73A
:104B6000A7BB4FF4427303600120FFF7A1BB0124F0
:104B7000ADE7012432E70124BFE60124E2E6012487
:104B800099E70124D8E60124DBE7022401278BE71B
:104B90000124C6E60124BFE60124B7E70124B1E6FB
:104BA0000124A0E701248CE70124B0E6012494E766
:104BB0000124CDE60124B9E640F20F330360012061
:104BC000FFF776BB174605793D700124FFF76BBAF6
:104BD0000125FFF7A0BA0127FFF7C5BB0125FFF7A5
:104BE00091BA01245CE51446CFE60124FFF774BBBB
:104BF0000024D6E60024B0E61446BAE6B80B00203E
:104C00004360CA699A4205D201F12802026000207D
:104C10008B6770478A6910B40260C8698C690A6F33
:104C2000C01A1C441A44C86100308C6118BF0120AE
:104C30000A675DF8044B704780B90B681A7B202A1D
:104C40000AD110B50722044603F10E0103F1180042
:104C50004DF0A1FA204610BD062070470320704792
:104C60002DE9F0430B7889B00E4605460E2B22D86D
:104C7000DFE803F01C0C1C1C21264B212108211C01
:104C80001C1C1C00C3690BB1032198472B6800242E
:104C9000C3E91E44C3E9204403F134025A671C846B
:104CA0005C62DC62204609B0BDE8F0830024204647
:104CB00009B0BDE8F0830624204609B0BDE8F083C2
:104CC0004B78D9094FEA531239D1012AF3D1B3787D
:104CD0000768202B78D0222BEDD1B6F80740002CA6
:104CE000E9D1B6F8033097F820203B8402F00102A6
:104CF00003F001039A42D9D0C269002B00F0108161
:104D0000002AD3D002219047CCE7037A897893B167
:104D1000827A09308AB1EA7A825C8A42C6D00A066F
:104D2000F47800F19680012CC0D01BD3032CBDD0A9
:104D30000324B7E700235B78FFDE1378FFDE12F071
:104D4000030264D0012AB6D1B378212BB3D1B6F8CF
:104D50000720072AAFD10168701C183100F05CFAF7
:104D600004469FE72E68012B06F10C00E2D96A7B0E
:104D7000012A05F10C0372D98949AA7BCDE90510F6
:104D80001344B26A93F80190002A73D1F16FF36A69
:104D9000B267C6E91F21002B00F0BF8006F12C038B
:104DA00093E8030006F1240383E803004846F26217
:104DB00005A9FEF769FF0446EB69002B3FF472AFCB
:104DC0002846002198476DE7B6F80720072A7FF4A8
:104DD00072AF3B73B6F807300024DBB27B7320461A
:104DE0000E37CDE90573079400F0A0FD204605A914
:104DF000FEF736FF044630B96A4B049503A90393C6
:104E000000F01CFD0446002000F098FD4AE703F086
:104E10001F03012B7FF44FAFB478062C7FF44BAF08
:104E200005A8039200F01EFD0DF10C0C0746F27868
:104E30003179CDF800C028463B46FDF7A1FF052893
:104E40003FF430AF3946701C039A00F0E5F9044690
:104E500028E73CB1032C0CBF0024032422E70023E5
:104E60001B78FFDEEB69002B3FF420AF28460121C1
:104E7000984717E7D6F88440706A06F1340CA242CE
:104E800028BF22466146904667464DF084F9F26F8E
:104E9000F16AA4EB080307EB080C42440020C6E9C2
:104EA0001DC3C6E91F02002961D006F12C0797E84F
:104EB000030006F124044FF0000884E80300C6F85C
:104EC0002C80002B55D0B26A93420ED25AE097E85C
:104ED000030084E80300B36FC6F82C80002B48D091
:104EE000B26AD6F874C09A424CD86146706A4DF0E6
:104EF00052F9D6E91D32B16AC6F880100B44521A35
:104F0000C6E91D32EB6913B1002128469847F36AC0
:104F1000002BDCD1736200244EE7002474624BE75F
:104F20000AB1032190472B7A012B7FF603AF6B7BED
:104F300005F10C04002B93D0AB7BE05C04F0DEFAAF
:104F40002B7A012B7FF6F6AE6B7B012B87D9AB7BDF
:104F50001C44607804F0D2FA002407F134037C6228
:104F6000FC62C7E91E44C7E920447B679AE6002338
:104F7000D0E7736A002BCED0484605A9FEF784FE21
:104F8000044619E71A466146706A4DF004F9D6E9FD
:104F90000932B16FF167521A0B44C6E90932E9E7E9
:104FA000014C0000394C000003681B8CDB071CD54A
:104FB000037A012B16D910B5437B84B000F10C04A1
:104FC0000BB91B78FFDE0B46817B605C91060CBF42
:104FD0000124002401A9CDE901320394FEF740FE2B
:104FE00004B010BD00235B78FFDE0820704700BFCF
:104FF0000368D3F88000704730B50468238CDB0762
:1050000083B034D5A56FDDB9636A002B32D1C4E912
:105010000912027A012A28D9417B012900F10C02E8
:1050200021D9837B1549009113440C34587801949D
:105030006946FEF729FE002808BF922003B030BD64
:10504000954228BF15462A460846616F4DF0A3F8E1
:10505000D4E91D320020521B2B44C4F88050C4E90F
:105060001D3203B030BD1B78FFDE5B78FFDE082009
:1050700003B030BD112003B030BD00BF8D3E000035
:1050800070B50C4606680020154600F04FFC631E04
:10509000012B0BD8338C234214BF012300232B6038
:1050A0000024002000F04AFC204670BD06240020A9
:1050B00000F044FC204670BD002070472DE9F04F01
:1050C0004B6885B0002B75D00D461446CDE9000223
:1050D00003F088FEEE68A64228BF26468246002ED0
:1050E00000F081804FF000094A46CB464FF001089E
:1050F00014E00AEB020022464DF04DF8D5E90232E9
:105100001B1B141BC5F804B0C5E902342BB3002CDB
:1051100008BF4FF000083A46002E38D0D5E90113F9
:10512000B3421C4628BF3446361BA7180029E0D1DD
:1051300093B12846524450F8101B4B68D3F80490A2
:105140002346C847D5E902321B1B141BC5E90234AC
:105150002BB34FF00109DAE7EC68B9F1000F1ED16B
:1051600034B32968002935D0CDF808B003E0AB6826
:1051700029680133AB604B6800225C6802A80123F8
:10518000A0470028F3D128613A46002EC6D1009BE3
:10519000C3F800A05F60404605B0BDE8F08F2B6803
:1051A0001B68196829608CB9A0464FF00109B2E765
:1051B000C846B0E70B681B681B68002B84D18B685E
:1051C000002B81D1C0E900339846E4E74FF0010994
:1051D0000029C9D16960002FD9D0019BBB4288BF8B
:1051E0004FF00008D3E737464FF00108CFE700BF84
:1051F00008B50020FEF7C6FC8020BDE80840FEF799
:10520000C1BC00BF08B50020FEF7CCFC8020BDE883
:105210000840FEF7C7BC00BF70B5C38893421D4667
:1052200028BF1546934284B00E461DD800220020A8
:105230000392CDE9016500F079FB01A98020FEF71A
:105240000FFD044628B1002000F078FB204604B092
:1052500070BD03F0C7FE802812D0002000F06EFB66
:105260001024204604B070BD8020144603F0BAFC20
:10527000B4FBF0F303FB1042B2FA82F25209D6E714
:10528000054A064B92E8030083E80300002000F083
:1052900055FB204604B070BDA03E0500E80B002081
:1052A0002DE9F04F0B78062B87B07BD010D90D2B52
:1052B00069D02AD80B2B06D00C2B2FD1B34A1378E8
:1052C000002B40F0A0800024204607B0BDE8F08FFE
:1052D000022BF8D045D9032B25D0052B1ED10DF17B
:1052E0000D008DF80C3003F01BFE9DF80D20A84D2D
:1052F000002102F01F032960032B00F23D81DFE84B
:1053000013F01401E300B600AF000E2B19D0852B6B
:1053100004D19E4B1A78032A00F0308106242046DF
:1053200007B0BDE8F08F9B4800F0E2FD0028CAD02E
:10533000994B01221A60BFF36F8FBFF34F8F002488
:10534000C2E7924B1A78012ABDD0944994480A7852
:10535000012422F002021C700A700024FDF7C6FE30
:10536000B2E7012BDAD1894B1A78032AD6D08B49C0
:105370008B480A78032422F002021C700A7006246B
:10538000FDF7B4FEA0E74FF08042804BD2F838140E
:105390001A78C90733D5022A95D0804980480A78FF
:1053A0000224D6E7C87803280D4600F0EC80784E3A
:1053B0003368002B00F00B8100223260716898473F
:1053C0000446C8B93368002B00F0EE80AB78002BA0
:1053D0007FF479AF03F0CAFD76E76C4C2378043B89
:1053E000012B00F2F6809DF80F30002B00F06A814F
:1053F000012B00F07881072403F0EAFD64E7012A1D
:105400003FF461AFA1E7654C65482178002321F0A6
:105410000201217013701C46FDF768FE54E706294F
:1054200000F01E81082900F00A81C9B95D4C0222F2
:1054300020464CF0D4FE594A23781278960743F060
:10544000010148BF43F0030321700DF10D0048BF77
:10545000237002225349FFF7DFFE0446062C03D1D6
:1054600003A8FEF7E7FB0446002C7CD0C4E79DF8B8
:105470001100040707D003A9FEF7C6FB062804465F
:10548000F2D19DF80D2012F0600F75D19DF80E300D
:105490003E4A9DF811401278012B00F09C80C0F02C
:1054A000AD80032B68D104F00F03072B64D8BDF83F
:1054B0000F10002960D1052A02D0002B40F089800E
:1054C000204603F093FC4EE001A99DF81100FEF781
:1054D00071FB0646002872D003AA9DF80410FEF75F
:1054E0008FFB06280446BFD19DF80D3013F0600FE6
:1054F00082D1264A9DF8041012789DF80EC0DF096B
:1055000040F0C380BCF10B0F7FF476AF052A60D169
:10551000BDF80F30FF2B3FF66EAF30469DF80F20E1
:10552000FEF7C6FB0446F4B166E7C2F34114002C53
:1055300096D1D2099DF80E107FF471AF03296FD078
:1055400009293FF44AAF01298AD1BDF80F30012B58
:1055500086D1FEF70FFB002800F0B2800F4A1378C7
:1055600023F0020313702B682BB303F03BFD0446BA
:1055700000287FF4A8AE2DE706243DE70749084838
:105580000A780424F7E61C469EE600BFC80B0020FC
:10559000E80B0020F00B00205C700240E40B0020C0
:1055A000683E0500F40B0020994B1B68082B08D0BF
:1055B00003F004FD88E603F001FD002484E61024D6
:1055C0001AE7944B1B68002B3FF47DAEF0E70E24E6
:1055D00012E7082410E704F00F03072BCCD8BDF81E
:1055E0000F100029C8D1052A01D0002BF1D1204687
:1055F00003F086FC204603F005FCB4E7052A01D041
:105600002007E6D1204603F059FC83490222088096
:105610000DF10D00FFF700FE0446002CA3D0EBE6D1
:10562000BDF80F30012B7FF41BAFFEF7A3FA002863
:1056300046D07A4A137843F00203137093E778490F
:105640000978052939D004297FF40AAF724A147009
:105650000DF10D0001227049FFF7DEFD0446FDE665
:105660009DF81020022A60D0032A48D0012A7FF436
:10567000F7AEBDF81330002B9DD00DF10D001222B6
:105680006849FFF7C9FD0446E8E6BCF1000F72D097
:10569000BCF10A0F7FF4B0AE052A9AD13046FEF76E
:1056A00047FB5D493A4608700DF10D00FFF7B4FD68
:1056B0000446002C3FF457AF9EE6574B1A70C7E7DD
:1056C0000F2499E6FEF7A0FB2378042B3FF44BAFA1
:1056D000524A55481378042123F0020313702170B5
:1056E000FDF704FD3FE7FEF729FB2378052B3FF488
:1056F0003AAF05234C482370FDF7F8FC33E7BDF8BB
:105700001330002B3FF457AFBDF811109DF80F0078
:1057100000F0D8F8014600283FF4A2AE0DF10D00CC
:105720000A78FFF779FD044698E6BDF81320002AB1
:105730003FF441AF092A28BF09229046FEF734FA08
:10574000A34606464FF0090A36B3CDF804B0002749
:1057500000E0013772680123D2F80490314600223C
:1057600001A8C8470028F4D1337A32682344166868
:10577000BA44DCB2E8E7052A7FF42BAF264B0DF1E3
:105780000D0019460222A3F800C0FFF745FD0446AC
:10579000002C3FF4E8AE2FE61F4E24493046424627
:1057A0004CF0F9FC3471A6F802A0FEF7E3F918B149
:1057B000F37943F02003F371FEF7F6F91C4BBDF8C3
:1057C000132018600020C3E90168DA6000F0AEF829
:1057D00018498020FEF758FA044630B1002000F046
:1057E000ADF8062C7FF408AE3AE603F0FBFB802808
:1057F00004D0204600F0A2F81024FDE50E4B93E8FB
:10580000030085E80300204600F098F8ABE600BFEF
:105810003001001034010010F40B0020E40B0020D4
:10582000C80B00208C3E0500683E05006C3E05005C
:10583000CC0B0020B83E0500A03E050038B505465B
:105840000C4603F0CFFBA84207D194E80300044ABA
:1058500082E803000023184638BD1023184638BDDF
:10586000E80B002008B1402303600148704700BFE7
:10587000F40B002070B54FF0805286B0D2F8A830FB
:10588000D2F8A42000926FEA83436FEA93439BB25D
:1058900002A80A4A0A4E0D214DF04EF802AD00242E
:1058A00004E015F8013B06F8013B013402A84DF075
:1058B000ABF88442F5D306B070BD00BFC03E050012
:1058C000F88C012068B1052823D8154B185CF8B175
:1058D000144B10B553F82040ECB123781BB9A01C31
:1058E00010BD114870470020FFF7BCFF2278A2B11D
:1058F00000230133DBB220F8132014F8012F002A13
:10590000F7D101335B00DBB243F44073038010BD79
:10591000704700207047204610BD40F20233F5E783
:10592000383F0500203F0500CE3E050072B6024A12
:105930001368013313607047340C0020034A136866
:10594000013B136003B962B6704700BF340C0020FE
:10595000F8B5234E4579234C234F0346234847F897
:105960002520801B04EBC506C0083679000486BBE1
:105970001A680D88C2F8085593F904208978002A1E
:105980001FDB02F1604202F561424901C9B282F8AF
:10599000001393F90420164F1649012602F01F0543
:1059A000520906FA05F547F822505A7904EBC20568
:1059B00040F003002E7144F83230FBF713FF002053
:1059C000F8BD0D4D02F00F0249011544C9B2297608
:1059D000DFE740F002000949FBF704FF0820F8BDAB
:1059E0000CC00500380C0020400C002034C005001D
:1059F00000E100E06C3F0500FCEC00E0483F0500E2
:105A0000036801221A607047036801225A607047D8
:105A1000F0B404684FF480358D40C4F8085306682C
:105A20008C00C6F8485304F5A0740668A4B2002799
:105A3000375182B036590468019601F5A87122F0F9
:105A40007F42019E44F821200268C2F8445313B1FA
:105A50000368C3F8045302B0F0BC70472DE9F04767
:105A60000F464FF48038016808FA07F8C1F84883F8
:105A70000168C1F8088306460068BC000119D0F827
:105A80000455D1F84005C1F8405504F5A074A4B2FE
:105A900031684FF0000941F8049082B0401B095969
:105AA000009120F07F4001289A4622F07F45009B1C
:105AB0000BD1254B4FF4806043F0010398473368C6
:105AC00043F804901B590193019B3068D0F80445BA
:105AD0002B1B23F07F43012B07F5A87716D11A4B18
:105AE000013540F8275043F001034FF48060984798
:105AF0003268D2F804359C4221D1C2F8448333681D
:105B00000020C3F8048302B0BDE8F08740F82750B6
:105B10003268D2F804156B1ACAF1FF1A013B0AF574
:105B20007F4A23F07F439A4509D3002BE5D1013505
:105B300042F827503268D2F804359942DDD00D2062
:105B400002B0BDE8F08700BF403F050002680223B5
:105B5000C2F8443311B10268C2F80433704700BF81
:105B60000368D3F8040150B1002282B0C3F80421C5
:105B7000D3F804310193019B012002B070477047B4
:105B80004FF48033026803FA01F1C2F84813036846
:105B9000C3F80813704700BF890001F5A07189B2EE
:105BA0000368585840B100225A5082B05B580193A4
:105BB000019B012002B07047704700BF0368D3F813
:105BC0000405704790F9043005485A09403203F043
:105BD0001F03012101FA03F340F82230704700BF90
:105BE00000E100E0024A034B10681B68184700BF41
:105BF000380C0020400C00200A4830B40022012557
:105C0000510902F01F0350F8214005FA03F3013255
:105C10002343782A40F82130F2D1034B1D70002035
:105C200030BC7047440C002014BA0020F8B52B4B50
:105C30001C780CB92046F8BD00FB01F14A1E40F665
:105C4000B7339A422ED820292FD800242346244F38
:105C500040F6B83C02E0782B144423D03F2B37D9D0
:105C60005F2B37D96F2B8CBF62464FF400725D09F2
:105C700003F01F0657F8251021FA06F010F0010076
:105C800003F10103E7D0174B01201C4400FA06F68C
:105C900021EA06062046002147F825604CF09FFACD
:105CA0002046F8BD00242046F8BD4029CDD9B1F5E5
:105CB000807F03D84FF480544023C8E7B1F5007FBC
:105CC0008BBF4FF4A0444FF4405470236023BEE7D1
:105CD0004022CCE74FF48072C9E700BF14BA00201D
:105CE000440C0020540C0020174B1B782BB320B31E
:105CF000002230B41346154C40F6B8350CE03F2B6B
:105D00001CD95F2B1CD96F2B8CBF29464FF4007117
:105D10000133782B0A440ED0A1188842EFD15809DC
:105D20000B4903F01F0351F82040012202FA03F34C
:105D3000234341F8203030BC704770474021E7E7EB
:105D40004FF48071E4E700BF14BA0020540C002027
:105D5000440C002099B110B4B2FBF3F403FB1424FB
:105D6000A4B244B9C0E9001484608281C381204692
:105D70005DF8044B704709205DF8044B70470E2016
:105D8000704700BF30B482B050E8013F9DB2C48973
:105D900025448489A54228BF2D1B0489A54202BF42
:105DA000BFF32F8F002207E0C5EA030540E8015446
:105DB000002CE9D14FF001028DF803200193019BE3
:105DC0009DF803200B602AB10B880068184402B0CC
:105DD00030BC704702F0FF031846F8E70A884B888A
:105DE0009A4201D00020704750E8012FC2EA0242D7
:105DF00040E80123002BF7D10120704730B482B076
:105E000050E8023F1FFAA3F5C488A54202BFBFF3C2
:105E10002F8F00220DE0C48925448489A54228BF24
:105E20002D1BC3EA054540E80254002CE8D14FF091
:105E300001028DF803200193019B9DF803200B6064
:105E40002AB14B880068184402B030BC704702F099
:105E5000FF031846F8E700BF0A884B889A4201D032
:105E60000020704750E8022FC2EA224240E8022395
:105E7000002BF7D10120704750E8002F0B4640E877
:105E8000003C9CF0000FF7D11046704750E8003FEF
:105E900003EB010240E8002C9CF0000FF6D1104605
:105EA000704700BF50E8003FA3EB010240E8002C20
:105EB0009CF0000FF6D11046704700BF50E8003F3D
:105EC0008B422CBF5A1A1A4640E8002C9CF0000F57
:105ED000F4D11046704700BF012350E8002F42EA7A
:105EE000030C40E800C191F0000FF6D16046704706
:105EF000002350E800CF0CEA030240E8002191F0B3
:105F0000000FF6D160467047B8B130B4D0E9011245
:105F1000521A0468D2B2531E2160DBB242B101684A
:105F20000A685C1E551C0D601370E3B2FF2BF6D19E
:105F300003680020187130BC70470E20704700BF06
:105F400038B504460020FFF7F1FCD4E900311A68A7
:105F50008A4215D9511E19602168A3680868258AEC
:105F600012F8012CE4681B1A0879DBB2984205FB91
:105F7000024400D20B710020FFF7E0FC204638BD40
:105F80000024F8E738B5054600200C46FFF7CEFCA4
:105F90002A681368591C1160E9682A8A641AB4FBDC
:105FA000F2F41C700020BDE83840FFF7C7BC00BF0A
:105FB000826842B110B50446436901680069984798
:105FC0000023A36010BD70470EB400B582B00399E2
:105FD00029B102AA04AB42F8043D00F0A9F802B0CE
:105FE0005DF804EB03B070472DE9F04F924683B0A3
:105FF00051450F4605461E46DDE90CB2C0F09280C1
:106000000B464FF00108B3FBFAF39A4508F101087B
:10601000F9D9B04538BFB04612F00109A96802D1DC
:10602000BBF1000F54D1012402E0013E0AFB04F44D
:10603000012EFAD8B7FBF4F08245F7D93B4E02E0C7
:10604000A968B7FBF4F0335C2A680A2B04FB1077CD
:1060500002EB010E01F1010029D0A8608EF800309A
:10606000D5E90131994202D32846FFF7A1FFB4FBDD
:10607000FAF4002CE4D1B9F1000F15D0BBF1000FF8
:1060800012D0C34510D92024AB682A68591CA960D6
:10609000D454D5E901329A420BF1FF3B14D2BBF143
:1060A000000F01D0C345EFD103B0BDE8F08FA86069
:1060B0004FF00D005054D5E9011088421DD22968D7
:1060C00001EB000E0130C8E72846FFF771FFE6E755
:1060D000930722D42024C345A5D92B684A1CAA6063
:1060E0005C54D5E9013199420BF1FF3B10D2BBF171
:1060F000000F98D0C345F0D195E728460193FFF7EC
:1061000057FFAA682968019B501C01EB020EA4E707
:106110002846FFF74DFFA968E9E7002E0CBF3024A1
:106120002024D8E74FF0010873E700BF8C3F05003B
:10613000002900F0B9822DE9F04F054687B091465D
:106140000C460E78DFF8C8A64FF00D0B13E0AB68D5
:1061500028680A2E03F1010200EB030100F04B82D4
:10616000AA600E70D5E901329A4280F01B81267830
:10617000002E00F01E810134002E00F01A81252E21
:10618000E5D12346002713F8012B2D2A00F0E380E8
:10619000302A00F0E4802B2A00F0D4802A2A00F074
:1061A0000D81A2F13006F1B2092903D97DE2A1F1F6
:1061B00030060346184606EB860110F8012BA2F1C3
:1061C0003004092C02EB4101F1D92E2A00F00281A2
:1061D0004FF00008013301E013F8012B02F0FB013E
:1061E00068291C46F8D0253A532AC0D801A353F891
:1061F00022F000BFDF6500006F6100006F610000EA
:106200006F6100006F6100006F6100006F6100004E
:106210006F6100006F6100006F6100006F6100003E
:106220006F6100006F6100006F6100006F6100002E
:106230006F6100006F6100006F6100006F6100001E
:106240006F6100006F6100006F6100006F6100000E
:106250006F6100006F6100006F6100006F610000FE
:106260006F6100006F6100006F6100006F610000EE
:106270006F6100006F6100006F6100006F610000DE
:106280006F6100006F6100006F6100006F610000CE
:106290006F6100006F6100006F6100006F610000BE
:1062A0006F6100006F6100006F6100006F610000AE
:1062B0006F6100006F6100006F6100006F6100009E
:1062C000C36500006F6100006F6100006F61000036
:1062D0006F6100006F6100006F6100006F6100007E
:1062E0006F6100006F6100006F6100006763000074
:1062F000496500006F6100006F6100006F61000080
:106300006F610000496500006F6100006F6100006F
:106310006F6100006F6100006F6100006F6100003D
:10632000B16400006F6100006F610000296400002B
:106330006F6100000D6400006F6100006F6100007C
:10634000C365000047F004071C46234613F8012BE1
:106350002D2A7FF41DAF47F001071C46F5E747F0F3
:1063600002071C46F1E7D9F800301A1DC9F80020D1
:106370001E78AB680A2E0CD12A68591CA96002F855
:1063800003B0D5E90123934203D32846FFF710FE5B
:10639000AB682A68591CA960D654D5E901329A42E3
:1063A000FFF4E5AE2846FFF703FE2678002E7FF4C3
:1063B000E2AE2B7B23BB07B0BDE8F08FD9F80020FD
:1063C000111DC9F80010166862782E2A04F1020027
:1063D0007FF4FEAE5A78A2F13003092B00F2BD81A2
:1063E0004FF0000808EB880802EB480810F8012F6E
:1063F000A2F13003092BA8F13008F3D90346E9E6EE
:10640000284607B0BDE8F04FFFF7D2BDD9F80030FD
:106410001A1DC9F8002019680197434600960A2200
:106420002846FFF7E1FDA2E6D9F800301A1DC9F8A9
:106430000020D3F80080FB0700F1E880B8F1000FDE
:1064400000F0A18140464CF0DFFA0746BE4215D964
:10645000A6B1202100E08EB1AA682B68501CA8606C
:106460009954D5E901329A4206F1FF3604D3284601
:106470000391FFF79DFD0399BE42ECD108F1FF386F
:1064800018F8016F002E3FF472AEAB6828680A2E30
:1064900003F1010200EB030100F09081AA600E708D
:1064A000D5E901329A42EBD32846FFF781FDE7E7B1
:1064B000D9F80020131DC9F80030AB6829681768A7
:1064C000581C3022A860CA54D5E90123934280F0B9
:1064D000E6802A68581C7821A860D154D5E90123A8
:1064E000934280F0D7800F2F03D93A4612090F2A22
:1064F000FCD84FF080560DE0AA6081F80080D5E905
:1065000001329A4202D32846FFF752FD36093FF482
:106510002EAEAB68B7FBF6F21AF802802868B8F125
:106520000A0F06FB127700EB030103F10102E3D12E
:10653000AA6000F803B0D5E901329A4280F049819F
:106540002B6899180132D7E7D9F800301A1DC9F81D
:106550000020196881EAE173A3EBE173092B40F392
:106560000E81AA480122A0FB03C3DB08092B02F11C
:106570000102F8DC4245134638BF4346039307F057
:106580000203002E40F09580002B00F0B780B8F198
:10659000000F00F0F680F80740F1B0800029C0F24B
:1065A000FF807A0700F1C88007F00303022B00F098
:1065B000A780CDE9006743460A222846FFF714FD6D
:1065C000D5E5D9F800301A1DC9F8002019680197DF
:1065D0004346009610222846FFF706FDC7E5AB6844
:1065E0002A68581C2521A860D154D5E901329A4265
:1065F000FFF4BDADD6E6AA6000F803B0D5E90132DC
:106600009A423FD2296811440132A9E54146A1EBE3
:10661000080311F8017BD7B1AB68D5F800C00A2F89
:1066200003F101020CEB030000F0AF80AA600770D9
:10663000D5E901329A42EAD328460391FFF7B8FC24
:106640000399A1EB080311F8017B002FE4D19E42CE
:106650007FF68DAD202702E0002E3FF488ADA968BB
:106660002A68481CA8605754D5E90121914206F1D7
:10667000FF3604D328460393FFF79AFC039BB342EB
:10668000EAD174E52846FFF793FCAB6829685A1CE9
:10669000194465E52846FFF78BFCAB6823E72846DD
:1066A000FFF786FCAB6814E77047184600262346C0
:1066B0008BE5002920DB7A071ED41BB1B8F1000F4F
:1066C0003FF46CAFF8073FF569AFBEB1039BB3422F
:1066D000BFF464AF2023AA68501CA86028688354C4
:1066E000D5E90102824206F1FF3640D236B1039A63
:1066F000B242F0D1164651E7013EDEE700264DE7F3
:10670000B8F1000F7FF455AF002E6AD0039BB3425F
:10671000BFF44FAF3023AA68501CA8602868835488
:10672000D5E90102824206F1FF3618D2002E58D078
:10673000039AB242EFD13CE7AA68531CAB602B68C6
:106740002B209854D5E901329A42FFF42DAF284608
:106750000491FFF72DFC049926E7034638E5284607
:10676000CDE90413FFF724FCDDE90413DEE7284636
:10677000CDE90413FFF71CFCDDE90413B6E70122A1
:10678000F8E646460AE7474660E6AA600CF803B01A
:10679000D5E901329A4226D22B689818013245E792
:1067A000AA68531CAB602B682D209854D5E90132A0
:1067B0009A42C1F10001FFF4F7AEC8E7AA6000F801
:1067C00003B0D5E901329A4217D229681144013247
:1067D00064E62846FFF7ECFBA9682B684A1C1944BD
:1067E0008AE60026E5E628460391FFF7E1FBA86864
:1067F0002B680399421C184418E72846FFF7D8FB7A
:10680000AB6829685A1C194448E600BFCDCCCCCCF3
:106810008C3F0500FFF778BB2DE9F041058ACE1CBF
:10682000043D2E440746B6FBF5F6FFF789FB78B327
:10683000F6B24FF48073013E0446C5800760838042
:1068400027D08046002509E06379AE4203F10103B9
:106850006371C8F80000076080461AD03846FFF719
:106860006FFB01350028EFD16679721E14D02346E4
:10687000013082421B68FBD11F684EB1002523689E
:106880002146013538461C46FFF77CFBAE42F6D167
:1068900000242046BDE8F0812768EFE7043001219D
:1068A000FFF7F4BAF8B5012104460430FFF7FAFA0D
:1068B000C0B200B1F8BD6679721E12D02346013015
:1068C00082421B68FBD11F68002EF3D0002523688D
:1068D0002146013538461C46FFF754FBAE42F6D13F
:1068E000F8BD2768F2E700BF2DE9F843C78846796D
:1068F00007FB06F6043E02EB030C0446664503F173
:10690000040015468846B0FBF7F238BFF51A07FBBE
:10691000120012B1013A2468FCD13E1AAE4228BFDF
:106920002E469DB14FF000090430AD1B2044324685
:1069300008EB09014BF02FFCAF42B14424683E46FE
:106940004FF0000028BF2E46002DEDD1BDE8F883A2
:106950002DE9F843C7884679154607FB06F6043E3D
:1069600005EB030C1A1D664504468846B2FBF7F09A
:1069700038BFF51A07FB102110B101382468FCD18B
:106980007E1AAE4228BF2E469DB14FF00009043159
:106990002144AD1B324608EB09004BF0FCFBAF4233
:1069A000B14424683E464FF0000128BF2E46002D1A
:1069B000EDD1BDE8F88300BF826800239360826850
:1069C0001361826853618268D36082685360826811
:1069D0001360704770B54468064620680D4618B9C4
:1069E00008E02468206828B1B36829469847002841
:1069F000F7D120682860256070BD00BF4368186823
:106A000008B102681A60704743681868704700BF91
:106A10004068036873B18B4203D107E0814204D020
:106A2000034618680028F9D1704718460B680360C0
:106A3000012070471846704710B570B101280BD17E
:106A40000D4C2369A0703BB1D3E9002301202261E2
:106A500098472369002BF7D110BD074CA36801228A
:106A60006270002BF8D0D3E900230020A260984781
:106A7000A368002BF7D1EFE718BA002038B50A4C0D
:106A800023786BB909486360A3602361E36000F079
:106A900021F9054600F02CF901232370284638BD62
:106AA0008525284638BD00BF18BA0020396A000085
:106AB00038B5154CA378054673B110B14368012071
:106AC00098470020FEF732FFE3680133E3600020BF
:106AD000BDE83840FEF732BF03F0FF00FEF726FFA7
